:100000000C9412060C9459060C9459060C94282C46
:100010000C9459060C9459060C9459060C945906E4
:100020000C9459060C9459060C94A6110C940916BC
:100030000C9487220C9459060C9459060C9459067A
:100040000C9459060C9459060C9459060C945906B4
:100050000C9459060C947D120C9459060C94590674
:100060000C9459060C9459060C9459060C94590694
:100070000C9459060C9459060C9459060C94590684
:100080000C9459060C9459060C9459060C94590674
:100090000C9459060C9459060C9459060C94590664
:1000A0000C9459060C9459060C9459060501090440
:1000B000A101A1000501093009311581257F9502B3
:1000C00075088102C0C005010902A101850209016C
:1000D000A1000509190129081500250195087501D8
:1000E00081020501093009311581257F95027508C6
:1000F000810609381581257F950175088106050C53
:100100000A38021581257F950175088106C0C00651
:1001100060FF0961A1010962150026FF00952075A5
:100120000881020963150026FF00952075089102D9
:10013000C005010906A101050719E029E7150025F9
:10014000019508750181029501750881010507195E
:100150000029FF150026FF00950675088100050897
:100160001901290595057501910295017503910104
:10017000C0000000000000000000000000000000BF
:10018000000000000000000000000000000000006F
:1001900000000000007E0F00D4FFFFFFC70000003A
:1001A0007800000000000000002A2B28000000005A
:1001B0000000000000000000000000002900000016
:1001C000002C1E3420212224342627252E362D37BC
:1001D00038271E1F202122232425263333362E378D
:1001E000381F0405060708090A0B0C0D0E0F101125
:1001F00012131415161718191A1B1C1D2F31302332
:100200002D350405060708090A0B0C0D0E0F1011F9
:1002100012131415161718191A1B1C1D2F313035FF
:100220004C00DA0281FFD9F1DB20A4A62EAF00A09A
:10023000C000A1C800AED580A81FD300408D1420F7
:1002400000556E646566696E65640A0046756E6386
:100250000A00437265610A0047616D650A004D61DD
:10026000696E0A0046756E630A00437265610A0092
:1002700047616D650A004D61696E0A0046756E63DF
:100280000A00437265610A0047616D650A004D61AD
:10029000696E0A0046756E630A00437265610A0062
:1002A00047616D650A004D61696E0A004D6F6465B6
:1002B0003A0A008C86868686868C988C8686868608
:1002C000868C988C86868686868C988C8686868692
:1002D000868C9800787CC6C6C6C6FCF8C0F8F8C004
:1002E000C0C0C0C00080E0F8FC9C0E0606F6F60612
:1002F00006F6F60606F6F606367666860606F6F67E
:100300000686E6663636363666E68606FEFEFEFE6D
:10031000FE00988C86868686868C988C8686868655
:10032000868C988C86868686868C988C8686868631
:10033000868C980111116D111101010111116D11BE
:100340001101010111116D111101010111116D1145
:10035000110101000038383838381F0F00FFFFE066
:10036000783E27313C3F0F838FBF3C38200F3F3012
:10037000303F3F30B03F8F000E1FBFB1B1303F3F25
:1003800080879F98B0B0B0B0989F8780FFFFFFFF35
:10039000FF00010111116D111101010111116D1108
:1003A0001101010111116D111101010111116D11E5
:1003B000110101000000000000000000000000002A
:1003C000000000000000000000000000000000002D
:1003D000000000000000000000000000000000001D
:1003E000040404040404000A0A0A151500040404A1
:1003F00004040002070302001C1310101010000078
:100400000F0F0F0F0F0F0F0F0F0F0F8FFFFFFFFFBC
:10041000FF000000000000000000000000000000DD
:1004200000000000000000000000000000000000CC
:1004300000000000000000000000000000000000BC
:1004400000000000000000000000000000000000AC
:100450000000000000202070787E7E7E7E7E7E7E02
:100460007E7E7E7E7E7E7E7E7E7E7E7E7E7E7E7EAC
:100470007E7E7E7E7E7E7E7E7E7E7E7E7E7E7E7E9C
:100480007E7E7E7E7E7E7E7E7E3E3F3F1F0F07030A
:10049000000000000000000000000000000000005C
:1004A000000000000000000000000000000000004C
:1004B00000000000AE14001A00080015001700002C
:1004C0000004001600070009000A0000001D001BC0
:1004D000000600190005002C00E100E000E300E246
:1004E00000625D635D00001C0018000C0012001328
:1004F0000035000B000D000E000F00330028001126
:100500000010003600370038002A004C00E600E7F3
:1005100000E400035101000100010001000100009E
:1005200000010001000100010001000100010001C3
:1005300000010001000100010001000100010001B3
:1005400000000001000000010001000100010001A5
:100550000001000100010001000100010001000193
:100560000001000100010001000100010001000183
:10057000000100010029001E001F002000210000D2
:10058000002B002F0030001D0110000100E10005CC
:100590000013001D6308000100E00001001B00E2E1
:1005A0000000000100000001000100010001000145
:1005B0000001000100010001000100010001000133
:1005C000001B0106011901160101000100010001D3
:1005D00000010001001E001F002000210022000079
:1005E0000001000100010001002D000100010001D7
:1005F00000010001002F00010001000100010001C5
:100600000000000100000023002400250026002730
:100610000001002E00010001000100310001003046
:1006200000010001000100010001000100010001C2
:10063000000100010007087F0807003E5B4F5B3E9A
:10064000003E6B4F6B3E001C3E7C3E1C00183C7E07
:100650003C18001C577D571C001C5E7F5E1C000070
:10066000183C180000FFE7C3E7FF0000182418003B
:1006700000FFE7DBE7FF0030483A060E0026297945
:10068000292600407F05050700407F05253F005AC9
:100690003CE73C5A007F3E1C1C0800081C1C3E7FA7
:1006A0000014227F2214005F5F005F5F0006097F55
:1006B000017F00006689956A006060606060009458
:1006C000A2FFA2940008047E04080010207E2010DF
:1006D0000008082A1C0800081C2A0808001E101020
:1006E0001010000C1E0C1E0C0030383E3830000676
:1006F0000E3E0E060000000000000000005F00003B
:1007000000000700070000147F147F1400242A7FD4
:100710002A12002313086462003649562050000054
:100720000807030000001C224100000041221C00B9
:10073000002A1C7F1C2A0008083E08080000807060
:100740003000000808080808000000606000002071
:1007500010080402003E5149453E0000427F40001F
:10076000007249494946002141494D33001814128D
:100770007F10002745454539003C4A494931004131
:100780002111090700364949493600464949291EC1
:1007900000000014000000004034000000000814B5
:1007A0002241001414141414000041221408000201
:1007B00001590906003E415D594E007C1211127C20
:1007C000007F49494936003E41414122007F414175
:1007D000413E007F49494941007F09090901003E26
:1007E00041415173007F0808087F0000417F4100AC
:1007F000002040413F01007F08142241007F40401B
:100800004040007F021C027F007F0408107F003EF2
:100810004141413E007F09090906003E4151215EE8
:10082000007F091929460026494949320003017F02
:100830000103003F4040403F001F2040201F003F79
:100840004038403F00631408146300030478040335
:10085000006159494D4300007F41414100020408B5
:10086000102000004141417F0004020102040040C9
:1008700040404040000003070800002054547840E6
:10088000007F284444380038444444280038444415
:10089000287F0038545454180000087E09020018BC
:1008A000A4A49C78007F080404780000447D4000E4
:1008B000002040403D00007F102844000000417FA0
:1008C0004000007C04780478007C08040478003838
:1008D0004444443800FC182424180018242418FC2C
:1008E000007C080404080048545454240004043FC5
:1008F0004424003C4040207C001C2040201C003C44
:100900004030403C004428102844004C9090907C9B
:10091000004464544C440000083641000000007755
:100920000000000041360800000201020402003C01
:100930002623263C00000000000000404040F0F864
:10094000F8FF38FFF8F83FF8F8FF38FFF8F8F04004
:10095000404000000000000080C0C0C0800000C017
:10096000C08000000080C0C000C0C0000080C0C0C7
:100970000000000000C0C0C0C0C000C0C000000037
:100980000000000000000000000000000000000067
:100990000000000000000000000000000000000057
:1009A0000000000000000000000000000000000047
:1009B00000000000C0F0F8FC3E1E06010000007FB1
:1009C0004141417F007F4141417F000080C0E07E86
:1009D0005B4F5BFEC00000C000DCD7DEDEDED7DC94
:1009E00000C0000000000000000000000000000047
:1009F0000000000000000000000000494949FFFF1E
:100A0000FFFFE0DFBFBF00BFBFDFE0FFFFFFFF4929
:100A1000494900000000001F3F6060E0BF1F007FE9
:100A20007F071E381E077F7F007F7F0E1F3B716090
:100A300000000000007F7F0C0C0C007E7E007F7E9B
:100A40000303007F7E03037E7E03037F7E000F3E51
:100A5000703C063C703E0F00327B49493F7E007F70
:100A60007E0303001E3F69696F260000000000003E
:100A700000000000030F1F3F3C7870600000007F03
:100A80004141417F007F4141417F00307B7F783091
:100A9000202030787F3B0003000F7F0F0F0F7F0F68
:100AA0000003000000000000000000000000000043
:100AB0000000000000000000000000010101070F1D
:100AC0000F7F0F7F0F0F7E0F0F7F0F7F0F0F07011D
:100AD0000101000000000000000000000101000012
:100AE0000000000000000000000000000000000006
:100AF00000000000000000000000000000000000F6
:100B000000000000000000000000000000000000E5
:100B100000000000000000000000000000000000D5
:100B200000000000000000000000000000000000C5
:100B300000000000000000000000000000000000B5
:100B400000000000000000000000000000000000A5
:100B50000000000000000000000000000000000095
:100B60000000000000000000000000000000000085
:100B7000000000000000AF09027400040100A0FAA8
:100B800009040000010301010009211101000122F3
:100B900040000705810308000A0904010002030060
:100BA0000000092111010001222200070582032013
:100BB00000010705030320000109040200010300EE
:100BC00000000921110100012249000705840320CA
:100BD000000A0904030001030000000921110100BB
:100BE00001221A000705850308000A12010002000D
:100BF000000008464346430100010200011003665D
:100C0000006F0072006D0079003400360000000EA5
:100C1000036D00610072006200790033000000047F
:100C20000309040011241FBECFEFDAE0DEBFCDBF01
:100C300004B603FE27C08091AE049091AF04A0914A
:100C4000B004B091B1048730904BA740B04BD1F4C1
:100C50001092AE041092AF041092B0041092B1043E
:100C600014BE84B7877F84BF0FB6F894A89580918F
:100C70006000886180936000109260000FBEE0E029
:100C8000F8E3099511E0A0E0B1E0EAEFFCE502C06D
:100C900005900D92A238B107D9F724E0A2E8B1E09F
:100CA00001C01D92AE3AB207E1F70E94AE220C9449
:100CB000442E0C940000E8EDF0E080818E7F80836C
:100CC0001092E2001092DA001092E100A0EEB0E083
:100CD0008C9181608C9380818F77808319BCA7ED84
:100CE000B0E08C918E7F8C9380818F7E8083109278
:100CF0008B0408952091E4003091E50095E6A90168
:100D00002091EC00822F817020FF06C08091E800C6
:100D100080FF06C080E008952091E80022FD1AC0FF
:100D200080919804882389F0853089F08091EB00C8
:100D300085FD0FC02091E4003091E5004217530774
:100D4000F9F29150E1F684E0089582E0089583E09D
:100D5000089581E00895EF92FF920F931F93CF9330
:100D60007C018B010E947A06C82F811117C08091E7
:100D7000E80085FD0BC08091E8008E778093E80045
:100D80000E947A06882399F3C82F08C0F701819141
:100D90007F018093F1000150110949F78C2FCF9109
:100DA0001F910F91FF90EF90089580919A0487FF13
:100DB00013C08091E80082FF06C08091E8008B7725
:100DC0008093E80004C0809198048111F2CF0895C7
:100DD000809198048823D9F38091E80080FFF8CFB0
:100DE0008091E8008E77ECCF982F9093E900242F24
:100DF000762F50E0891731F07091EC002091ED00D2
:100E00005091F00021FD07C09F5F973071F78093EC
:100E1000E90081E008953091EB003E7F3093EB00D4
:100E20003091ED003D7F3093ED003091EB0031606B
:100E30003093EB007093EC002093ED005093F000A2
:100E40002091EE0027FDE0CF80E00895CF92DF9261
:100E5000EF92FF920F931F93CF93DF93C8EDD0E0F3
:100E600088818F7E8883E7EDF0E0808181608083D8
:100E700084E082BF81E080938B0488818E7F8883A9
:100E800002EE10E0F80110821092DA0081EEC82E16
:100E9000D12CF601108288818F77888388818068C1
:100EA000888388818F7D888319BC10929804109262
:100EB0009904109297041092960490EEE92EF12C6A
:100EC000F70180818B7F808388818160888342E005
:100ED00060E080E00E94F406F60180818E7F8083CE
:100EE000F801808181608083808188608083F70140
:100EF00080818E7F8083888180618883DF91CF911C
:100F00001F910F91FF90EF90DF90CF900895FC011B
:100F10008091A0049091A10486179707A0F0611515
:100F2000710529F49091E8009E779093E80090E095
:100F30006115710551F4911108C08091E80082FF9C
:100F400034C080E00895BC01F2CF809198048823DA
:100F5000C1F18530C1F18091E80083FD30C08091FE
:100F6000E80082FDEACF8091E80080FFE1CF809128
:100F7000F3002091F200382F6115710519F0283027
:100F8000310558F091E02830310509F090E02091CA
:100F9000E8002E772093E800CBCF81918093F10079
:100FA000615071092F5F3F4FE7CF809198048823EC
:100FB00041F0853041F08091E80083FFBECF81E0B1
:100FC000089582E0089583E008950895089580913A
:100FD0008D04089587E797E79093010880930008B0
:100FE00088E19AE00FB6F894A895809360000FBE50
:100FF00090936000FFCF2FB7F894609187047091B1
:1010000088048091890490918A042FBF08959C01DF
:10101000FC0132969FEF80E04191461751F09F3FCF
:1010200019F4411101C0982F8F5F8630A9F79F3FB7
:1010300009F40895290F311D97FD3A95F90162834E
:101040000895E0918404F0918504309739F022E00E
:10105000DC012C930480F581E02D09940895FC01B6
:10106000680F791F8FEF91E32191822728E030E00C
:1010700087FF09C0880F892721503109C9F7E61772
:10108000F70791F70895880FF7CF30916E022091FE
:101090006F0290917002809171027091680260916C
:1010A000690240916A0250916B02F0916D02E091E9
:1010B0006702FE1313C0332311F037130FC022232E
:1010C00011F026130BC0882311F0851307C0992354
:1010D00019F081E0941303C080E001C081E080FF3B
:1010E00004C08CE692E00E94210810926E021092D9
:1010F0006F02109270021092710286E0ECE6F2E04C
:10110000A6E6B2E001900D928A95E1F7089540912C
:101110006202803F59F48091630287FF0DC01092F4
:10112000630241110BC010925A0208C0813F81F442
:101130008091630218169CF3442381F0809164022D
:1011400090916502892B09F05AC0109259020895B6
:10115000823F49F447FFF0CF109262028091630210
:101160008111ECCFE0CF833F19F41416ACF3E4CF38
:1011700090916402893F29F41916F4F610926402E2
:10118000DBCF8A3F19F497FFD7CFF8CF9091650254
:101190008B3F29F497FFD0CF10926502CDCF8C3FC3
:1011A00019F41916CCF3C8CF9CE0980F953090F441
:1011B000845F990B21E030E0B90102C0660F771F10
:1011C0008A95E2F7CB018095909161028923809303
:1011D0006102B2CF8D3F31F480915B028E7F8093AC
:1011E0005B02AACF8E3F21F480915B028D7FF7CF07
:1011F0008F3F09F0A1CF80915B028B7FF0CF0895E4
:1012000080915B0280FD16C081FD16C082FD16C074
:10121000809159028823A1F0883280F428E0829FCF
:10122000C001112468E270E00E94C22D862F672B56
:1012300039F0089582E0089584E0089588E00895E3
:1012400081E0089580915B0280FD14C081FD14C08F
:1012500082FD16C080915A02882381F0843180F487
:1012600022E3829FC001112464E170E00E94C22D3C
:10127000862F08958CE0089589E1089585E008950A
:1012800082E30895803F31F40E9422098195809382
:1012900063020895813F19F40E942209F8CF823F2A
:1012A00031F40E9422098195809362020895833F60
:1012B00019F40E942209F8CF893F29F40E940009FD
:1012C0008093640208958A3F21F40E940009819569
:1012D000F7CF8B3F31F40E9400098195809365021E
:1012E00008958C3F19F40E940009F8CF9CE0980FF4
:1012F000953070F4845F990B21E030E001C0220F3B
:101300008A95EAF780916102822B809361020895A9
:101310008D3F31F480915B02816080935B02089580
:101320008E3F21F480915B028260F7CF8F3FB9F747
:1013300080915B028460F1CF80E0089578940895F5
:10134000F894E82FE295EF70F0E031A1282F2F708C
:1013500081E090E001C0880F2A95EAF7982F9095D8
:10136000932391A392A1892B82A30C949E0990911F
:101370000C0292FF06C0282F28712830F9F4877FCD
:10138000846093FF06C0282F28712831F1F4877EEE
:10139000846120910D0220FF06C0382F387138304B
:1013A000D9F4877F816021FF06C0282F287128315A
:1013B000D1F4877E816194FD877E0895282F247162
:1013C0002430F9F68B7F8860DCCF282F24712431FC
:1013D00001F78B7E8861DDCF382F3171313019F7FD
:1013E0008E7F8860E0CF282F2171213121F78E7EFA
:1013F0008861E1CFCF93DF93EC018238910589F1C9
:10140000B8F58133910509F492C028F58932910528
:1014100009F486C08A9709F491C0C11522E5D20764
:1014200008F0AAC0C11531E5D30708F014C1CF3FB9
:10143000D10511F008F090C0C03FD10508F0E9C017
:10144000C53AD10508F081C0C430D105F8F4C130E7
:10145000D105E1F040C08533910509F45AC0C99720
:10146000E1F680910C02837089F0C0EED0E00EC0EE
:10147000833E910599F170F4803E910501F1823E21
:10148000910559F680910C0282FD21C0CE01DF91B9
:10149000CF910895863E910561F1873E910571F1E6
:1014A000843E910509F0B9CF80910D0281FFEECF06
:1014B00080910C02C7EED0E084FD0DC0E7CF809193
:1014C0000C0280FDF9C090910D0290FFDFCFC3EEBA
:1014D000D0E084FFDBCFD0E0C0E0D8CF80910C0219
:1014E00082FDEDC090910D0290FDBFCF84FFCECF65
:1014F000F2CF80910C0283FDDDCFC8CF80910C022A
:1015000083FDE0C090910D0291FFF0CFC4EED0E0DA
:10151000BDCF80910C0285FFB9CFC9E2D0E0B6CF34
:1015200080910C0285FFB2CFC5E3D0E0AFCF8091B0
:101530000C0286FFABCFCAE2D0E0A8CF80910C02AC
:1015400086FFA4CFC1E3D0E0A1CFCE01815E910997
:10155000079708F49BCFBFCFC11540E5D40708F02B
:101560005DC0C11580E4D80708F055C0C11590E2F0
:10157000D90708F48BCFAFCFC11526E5D20718F5F0
:10158000C11535E5D30708F07EC0C11544E5D40781
:1015900008F074C09C2F969596959E012370332772
:1015A000C115D34508F45CC0C1E0D0E002C0CC0F47
:1015B000DD1F2A95E2F730E2939FC0011124C82B6A
:1015C000D92BDA6863CFC1159AE5D90778F4C1152C
:1015D00029E5D20708F062C0C11538E5D30708F441
:1015E0007ACFDC2FCC27C06FD06A50CFCE01905677
:1015F0008115904208F06FCF8D2F8F710E94B7092F
:1016000090E0982F882788279F719C012C2BE90157
:1016100043C0D0653BCFDF70D06A38CFCE01E4E065
:1016200096958795EA95E1F783702C2F2695269558
:10163000237090E2299F90011124382B8C2F837006
:10164000C1E0D0E002C0CC0FDD1F8A95E2F7C22BCB
:10165000D32BDC681BCFDC2FCC27C16FD06A16CF11
:10166000C1E0D0E002C0CC0FDD1F2A95E2F720E2F6
:10167000929FC0011124C82BD92BEBCFDC2FCC2794
:10168000C46FD06A03CF8C2F0E94B709C82FD0E057
:10169000DC2FCC27CC27DF71D062F8CE8C2F8F7057
:1016A0000E94B70934E0D695C7953A95E1F7CF7017
:1016B0009C2FEC01D069EACEC9E3D0E0E7CEC2EEC0
:1016C000D0E0E4CEC6EED0E0E1CE0C94FB078091F2
:1016D000E00181111092E00108958091DF01909165
:1016E000DE01892B9091DD01892B809384019091FB
:1016F000E001992391F0892B8093840120E086E812
:1017000091E0FC013191CF0131112F5FF1E08C3874
:101710009F07B9F721110E94670BE0918404F091B3
:101720008504309731F00280F381E02D84E891E068
:10173000099408958091DB019091AA01981301C04A
:1017400008958F5F8770FACFE92FEE0FE90FEE0F44
:101750008E0F982F977086958695869523E0829FA9
:10176000F0011124EE56FE4F50E040E080E0219160
:1017700030E0092E02C0369527950A94E2F72170D1
:101780003327042E01C0220F0A94EAF7822B4F5F01
:101790005F4F4330510559F70895E92FEE0FE90FD8
:1017A000EE0F8E0F982F977041E001C0440F9A956D
:1017B000EAF786958695869593E0899FF001112436
:1017C000EE56FE4F30E020E070E05191DF011197BE
:1017D000CB01022E02C0969587950A94E2F781709C
:1017E00081958527842385278C932F5F3F4F233056
:1017F000310559F70895882341F080959091DE01D5
:1018000089238093DE010C946D0B0895882339F0B1
:101810009091DE01982B9093DE010C946D0B08954E
:10182000882341F080959091DF0189238093DF0127
:101830000C946D0B0895882339F09091DF01982B5B
:101840009093DF010C946D0B0895982F92959F70E3
:1018500011F0892F94E0282F2695269511F09E5F90
:10186000822F869509F09F5F892F089580E0089563
:10187000853FF1F485E096E890937A0090E89093A4
:101880007B00806480937C0080917A0080648093E8
:101890007A0080917A0086FDFCCF809178002091BB
:1018A000790090917A009F7790937A00922F089513
:1018B00084E0E1CF8091A9049091A7049093AC04B7
:1018C0008093AD0485E08093E9008FEF9091E8006C
:1018D000815095FD06C095ED9A95F1F700008111B4
:1018E000F5CF8091E80085FF0DC050E040E062E058
:1018F00070E08CEA94E00E94AB068091E8008E775D
:101900008093E80008959C0184E08093E9009FEFB4
:101910008091E800915085FD06C085ED8A95F1F72C
:1019200000009111F5CF8091E80085FF0CC050E0D8
:1019300040E066E070E0C9010E94AB068091E800DB
:101940008E778093E8000895CF93DF93EC0181E0D8
:101950008093E9008FEF9091E800815095FD06C0DB
:1019600095ED9A95F1F700008111F5CF8091E8008F
:1019700085FF14C050E040E068E070E0CE010E94B6
:10198000AB068091E8008E778093E80088E0FE0146
:10199000AEE8B4E001900D928A95E1F7DF91CF9126
:1019A00008959F92AF92BF92CF92DF92EF92FF92F3
:1019B0000F931F93CF93DF937C015B016A018091AA
:1019C000070201E010E08A3010F40AE010E0C1E004
:1019D000D0E0F894B501C701F6010995982E0E9450
:1019E0009E09911004C021960C171D076CF4892DD7
:1019F000DF91CF911F910F91FF90EF90DF90CF90EB
:101A0000BF90AF909F900895CC9F9001CD9F300DD7
:101A1000300D112490E080E045E34A95F1F7000095
:101A2000019682179307C1F7D4CF8091EB01811102
:101A300010C08091D80080618093D8008AE18A9597
:101A4000F1F700C08091D90080FF0AC081E0809347
:101A5000EB0181E09091EB01913009F080E0089575
:101A600082E08093EB010E945B0610929804F1CF14
:101A70000E94150D882351F0E0918404F0918504B3
:101A8000309721F00190F081E02D099480E00895D5
:101A9000CF92DF92EF92FF920F931F93CF93DF933A
:101AA0006C017B0164E670E088E70E947F2AEC010C
:101AB00097FD12C010E000E0F601E00FF11F8491E5
:101AC00064E670E00E94F92AEC01892B29F40F5F8B
:101AD0001F4F0E151F0581F70E947C2BCE01DF9151
:101AE000CF911F910F91FF90EF90DF90CF900895CD
:101AF000CF93C0918204809183048823D1F00E9407
:101B0000FB07605A75418F4F9F4F60937E0470931F
:101B10007F048093800490938104C11108C062E027
:101B200070E085E79BE00E94480D892B29F0C09169
:101B300082048C2FCF91089581E080938204F7CFA7
:101B40001F93CF93DF93162F8A3031F481E0DF911A
:101B5000CF911F910C94450E8D3011F480E0F7CF9A
:101B6000C0917C04D0917D0496E0FE01A6E7B4E02C
:101B700001900D929A95E1F7803EA8F186E0FE0172
:101B800011928A95E9F7C0917C04D0917D041111DE
:101B900036C046E050E0BE0186E794E00E94EC2D9E
:101BA0009E0126573240892BA9F52A5F3F4F40916D
:101BB0007302642F70E0C9010E94A22D481B4630B9
:101BC00010F4240F311D211572E0370710F030E0BA
:101BD00020E02A583D4F30937D0420937C04DF9110
:101BE000CF911F910895F6E08F9FB00111246B5C97
:101BF000794F46E050E0CE010E94E32DC4CF9E0114
:101C00002A5F3F4FFE012E173F0719F28081809512
:101C10008193F9CFC90145E0969587954A95E1F7FB
:101C200041E050E0BA0102C0660F771F8A95E2F7E3
:101C3000CB016091740270917502862B972BB901CC
:101C40006B5F7F4FE5E076956795EA95E1F702C017
:101C5000440F551F6A95E2F7842B952B90937502DC
:101C600080937402A2CF1F93CF93DF93EC01162FC2
:101C7000FE018491811104C0DF91CF911F910895DD
:101C8000612F0E94A00D2196F3CFCF93382FE091C2
:101C90007C04F0917D04E657F24020917302622F9C
:101CA00070E0CF010E94A22D281B822F332369F000
:101CB00066E00E94B62DC82FC15010F4CF91089550
:101CC00060E080E20E94A00DF7CF9F01280F311D38
:101CD0002115324018F080E0F0E0E0E08E0F9F2FF9
:101CE000911D8A589D4F90937D0480937C04E6CF8C
:101CF000CF93DF93C7EAD1E060E0CE010E94102EBF
:101D00002196C11584E0D807B9F7DF91CF910895E6
:101D10006F927F928F929F92AF92BF92CF92DF92FB
:101D2000EF92FF920F931F93CF93DF9385EBC82E13
:101D300084E0D82E93E9E92EF12CE701C056D109B1
:101D400036011BC0F50185909490692DC8010E9451
:101D5000102E682DC80101960E94102E82E0A80E58
:101D6000B11C0E5F1F4FC017D10761F78CE0680EE2
:101D7000711C2C96CE15DF0529F08E010C5011092F
:101D80005301E0CF7E0180E6E80EF11C80E6C80E2C
:101D9000D11C83E1E81682E0F80679F6DF91CF9155
:101DA0001F910F91FF90EF90DF90CF90BF90AF9079
:101DB0009F908F907F906F900895CF93C82F6FEF73
:101DC000811161E283E290E00E94102E6FEFC11159
:101DD00061E184E290E00E94102E6FEFC11162E099
:101DE00085E290E0CF910C94102E80E00E94DD0EF1
:101DF00060E086E290E00E94102E0E94880E0E9411
:101E0000780E81E00C94DD0ECF93C0910D02C2FBE1
:101E1000992790F9981781F080FBC2F9C0930D02C1
:101E200060910C0284E090E00E94102E6C2F82E200
:101E300090E0CF910C94102ECF9108950F931F93A3
:101E4000CF93DF93C42FD0E0CC0FDD1F2CE0629F37
:101E5000C00DD11D112430E6839FC00DD11D11246A
:101E6000CE0187960E94022E082F10E0102F002727
:101E7000CE0188960E94022E9801282BC901DF917D
:101E8000CF911F910F910895462F843038F4783008
:101E900028F4663018F4672F0C941E0F90E080E051
:101EA0000895CF92DF92FF920F931F93CF93DF930A
:101EB0006C010091A5048091E101082BC7E0D0E0FE
:101EC00010E0FC2EC8010C2E02C0959587950A944F
:101ED000E2F780FD0CC02197A0F7F12C8F2DDF9148
:101EE000CF911F910F91FF90DF90CF900895B60191
:101EF0008C2F0E94440F0E94FA09019761F3EECFE4
:101F0000CF93DF93EC010E94510FBE010E94440F5A
:101F1000DF91CF910C94FA09FC01808191810E949C
:101F2000800F292F2F7092959F7092509E3078F4D9
:101F3000E92FF0E0EA5BF14D0C94D62D803F19F0CB
:101F400020F4883E20F481E00895843FE1F380E0AE
:101F50000895883EC0F3813FD1F7F5CF822F869553
:101F600086958695089583E290E00E94022E813244
:101F700089F484E290E00E94022E813159F485E2D6
:101F800090E00E94022E91E0823009F090E0892FCB
:101F90008170089580E0FCCFCF9384E090E00E94B0
:101FA000022EC82F82E290E00E94022E982F8C2FE2
:101FB000CF9108950F931F93CF93DF9300D000D05C
:101FC000CDB7DEB740910302509104026091050243
:101FD000709106022FB7F89480918704909188043D
:101FE000A0918904B0918A042FBF841B950BA60B86
:101FF000B70B84369105A105B10588F10E94150D36
:10200000882379F10E94FB076E5F7F4F8F4F9F4FB0
:1020100069837A838B839C8380912B0190912C011F
:1020200088509E4F40912A0150E04530510510F0F4
:1020300044E050E0BE016F5F7F4F0E94F92D84E0C5
:1020400090E00E94EE2C892BD9F40E94FB0760934C
:10205000030270930402809305029093060281E0CC
:1020600010C00E94FB070091080210910902209104
:102070000A0230910B02600F711F821F931FC4CFA1
:1020800080E00F900F900F900F90DF91CF911F91F4
:102090000F9108956F927F928F929F92AF92BF920D
:1020A000CF92DF92EF92FF920F931F93CF93DF9324
:1020B0000F92CDB7DEB7862E5A016901682E880FC0
:1020C0007708C3010E94EE2C892B09F088C08AE0B2
:1020D000869DF001879DF00D1124E050FF4F458152
:1020E00050E04115510511F041E050E08AE0869D35
:1020F000F001879DF00D1124E050FF4F668177813C
:1021000068507E4FCE0101960E94F92DF501408165
:102110005181628173812FB7F894809187049091E7
:102120008804A0918904B0918A042FBF841B950B69
:10213000A60BB70B84369105A105B10540F4B70194
:10214000C8010E942F089981891709F44FC0082CF3
:10215000000C9908C4010E94EE2C892B91F0B12C3F
:102160008B2D0F90DF91CF911F910F91FF90EF90EA
:10217000DF90CF90BF90AF909F908F907F906F90A7
:1021800008958AE0889DF001899DF00D1124E050AA
:10219000FF4F458150E0E416F50608F4A7018AE0F8
:1021A000889DF001899DF00D1124E050FF4F66815C
:1021B000778168507E4FC6010E94F92DB701C80192
:1021C0000E942F0899818913CACF0E94FB07F5014D
:1021D0006083718382839383BB24B394C1CFB12C7A
:1021E000A701B801C6010E94F92DBACFBB24B39450
:1021F000F7CFCF92DF92EF92FF920F931F93CF937F
:10220000DF9300D000D0CDB7DEB76B0184E0E82EBD
:10221000F12C09EF11E09E012F5F3F4F40EF51E09D
:1022200061E080E00E944A10882361F049815A8170
:102230006B817C814093EC015093ED016093EE0142
:102240007093EF014091EC015091ED016091EE012E
:102250007091EF01F60140835183628373830F9085
:102260000F900F900F90DF91CF911F910F91FF90E2
:10227000EF90DF90CF90089569EE7EEF90E080E0E0
:102280000E942E2E60E082E090E00E94102E60E01E
:1022900083E090E00E94102E1092E10160E084E063
:1022A00090E00E94102E60E082E290E00E94102EEA
:1022B00060E085E090E00E94102E60E086E090E013
:1022C0000E94102E6FEF87E090E00E94102E40E0F9
:1022D00050E0BA0188E090E00E94222E60E08DE09C
:1022E00090E00E94102E40E050E0BA0188E190E0BA
:1022F0000E94222E60E087E190E00E94102E40E0D4
:1023000050E0BA018CE190E00E94222E70E060E083
:1023100080E290E00E942E2E40E050E0BA0188E179
:1023200090E00E94222E80E00E94DD0E0E94F50EB9
:1023300040E050E0BA018FE090E00E94222E40E0A1
:1023400050E0BA0183E190E00C94222E1F920F928C
:102350000FB60F9211242F933F934F935F936F9378
:102360007F938F939F93AF93BF93EF93FF9380914E
:10237000E10082FF09C08091E20082FF05C08091E8
:10238000E1008B7F8093E1008091DA0080FF24C020
:102390008091D80080FF20C08091DA008E7F8093EA
:1023A000DA008091D90080FF9BC080E189BD82E185
:1023B00089BD09B400FEFDCF81E08093980480912F
:1023C0008B04811109C00E945B060E942607809140
:1023D000E20084608093E2008091E10080FF17C0FA
:1023E0008091E20080FF13C08091E2008E7F809395
:1023F000E2008091E20080618093E2008091D80049
:1024000080628093D80019BC85E080939804809105
:10241000E10084FF29C08091E20084FF25C080E1B3
:1024200089BD82E189BD89B5982F917080FFFBCF6E
:102430008091D8008F7D8093D8008091E1008F7EBD
:102440008093E1008091E2008F7E8093E200809192
:10245000E20081608093E20080919904882309F46E
:1024600045C084E0809398048091E10083FF27C0F9
:102470008091E20083FF23C08091E100877F8093F9
:10248000E10082E080939804109299048091E10029
:102490008E7F8093E1008091E2008E7F8093E20046
:1024A0008091E20080618093E20042E060E080E0A1
:1024B0000E94F4068091F00088608093F000FF9104
:1024C000EF91BF91AF919F918F917F916F915F91AC
:1024D0004F913F912F910F900FBE0F901F90189525
:1024E00019BC1092980410928B0476CF8091E3006F
:1024F00087FD93E090939804B7CF78941F921FB60E
:102500001F9211248F939F93AF93BF938091870461
:1025100090918804A0918904B0918A040196A11D2C
:10252000B11D8093870490938804A0938904B0938D
:102530008A04BF91AF919F918F911F901FBE1F90F2
:1025400018959C014FB7F894809187049091880466
:10255000A0918904B0918A044FBF821B930B089508
:102560002FB7F8948091870490918804A0918904F2
:10257000B0918A042FBF08950E94B0129C019091DF
:10258000620280916302982B21F030935F022093C6
:102590005E029091640280916502982B21F0309345
:1025A0005D0220935C0280E692E00C942108109278
:1025B000DE011092DD010E946D0B86E0E0E6F2E0A4
:1025C000DF011D928A95E9F710925A021092590282
:1025D00010925B020C94BC128093A5040C94D71249
:1025E0008091A504982F9670963019F488600C9409
:1025F000EC12877FFCCF21E030E001C0220F8A95EA
:10260000EAF720958091A50482230C94EC12909116
:10261000DC01809589238093DC01282F277039F411
:10262000282F082E000C330B9217130621F49091DB
:102630000D0292FF07C08595859585950E94FB1236
:102640001092DC01089521E030E001C0220F8A954C
:10265000EAF78091A504822B0C94EC128093E1019F
:102660000C94D7121092DF01E6E8F1E086E0DF017A
:102670001D928A95E9F70C94D7121F93CF93DF939D
:10268000CDB7DEB7AA970FB6F894DEBF0FBECDBFA9
:102690008AE994E02091F100DC012D93CD01B4E0B2
:1026A000823A9B07B9F780919B04833009F471C08B
:1026B000B8F4813009F448C0823009F4B2C0809186
:1026C000E80083FF3AC180919A0490919B049A306C
:1026D00008F033C1E92FF0E0EC5AF14D0C94D62DFF
:1026E0008A3009F48DC08B3009F470C0893039F715
:1026F00080919A04813219F780919E0490919F04F1
:10270000009711F00297D9F68091E800877F8093B7
:10271000E8008091E80082FF37C09091F30080913B
:10272000F200029729F48091F1008B7F813021F42F
:102730008091F10080938D048091E8008B778093E5
:10274000E8000E94D506BBCF80919A04813A09F037
:10275000B6CF8091E800877F8093E80080919E0447
:1027600090919F04892B61F468E08EE894E070E01A
:102770000E9487078091E8008B778093E8009FCFC5
:1027800060E090E080E0F3CF809198048111C1CFA8
:1027900096CF80919A04813A09F091CF80919E045E
:1027A00090919F04892B09F08ACF8091E800877F60
:1027B0008093E8008091E80080FFFCCF8091440185
:1027C0008093F1008091E8008E77B9CF80919A04D0
:1027D000813209F074CF80919E0490919F04892BDF
:1027E00009F06DCF8091E800877F8093E8000E9418
:1027F000D50680919C04809344010E9432135FCFE0
:1028000080919A04813209F05ACF8091E800877F45
:102810008093E8000E94D50680919D0480938C04EB
:102820004ECF80919A04813A09F049CF8091E80017
:10283000877F8093E8008091E80080FFFCCF809143
:102840008C04BECF803899F0823809F076C0809130
:102850009E048F70873008F070C08093E9008091EB
:10286000EB0085FB882780F91092E90006C0809173
:10287000960490919704911182609091E800977F5F
:102880009093E8008093F1001092F1008091E800AD
:102890008E77BAC1882309F4A7C1823009F04DC0F0
:1028A00080919C048111ABC180919E048F702FEFA9
:1028B000280F263008F041C08093E9002091EB00FA
:1028C00020FF9DC1933031F48091EB0080628093B2
:1028D000EB0095C19091EB0090619093EB0021E0AB
:1028E00030E001C0220F8A95EAF72093EA001092A7
:1028F000EA008091EB008860EACF81111EC0109140
:102900009C041F778091E3008078812B8093E30003
:102910008091E800877F8093E8000E94D50680912F
:10292000E80080FFFCCF8091E30080688093E300A3
:1029300082E0111183E0809398048091E80083FF86
:102940000AC08091E800877F8093E8008091EB00C7
:1029500080628093EB00AA960FB6F894DEBF0FBE9C
:10296000CDBFDF91CF911F9108958058823028F715
:1029700020919C0430919D042C3DE3E03E07A1F59D
:1029800083E08A838AE289834FB7F894DE01139645
:1029900020E03EE051E2E32FF0E050935700E49155
:1029A00020FF03C0E295EF703F5FEF708E2F90E045
:1029B000EA30C0F0C7968D939D932F5F243159F76D
:1029C0004FBF8091E800877F8093E8006AE270E063
:1029D000CE0101960E9487078091E8008B77809353
:1029E000E800ABCFC096E7CF80919E0490919F0402
:1029F000432F55274330510509F44AC078F541303B
:102A0000510509F47AC084E790E0E7E7FBE0423043
:102A1000510509F092CF2091E800277F2093E8002C
:102A20002091A0043091A1048217930708F49C011F
:102A300040E02115310509F065C0411163C0809166
:102A4000E80082FDC9CF80919804882329F285305F
:102A500019F28091E80083FFF2CFBECF41325105D9
:102A600009F43CC04232510509F067CF843091052A
:102A700008F063CFFC01EE0FFF1FEF58FE4F0190EF
:102A8000F081E02D83599E4FDC018C9190E01AC0BB
:102A9000332721303105D1F02115310561F0223085
:102AA000310509F04ACFEDEFFBE0E4918E2F90E085
:102AB000EDEFFBE007C0EFE1FCE0E4918E2F90E04A
:102AC000EFE1FCE0009709F438CFA5CFEFE0FCE0A0
:102AD000E4918E2F90E0EFE0FCE0F4CF843091059C
:102AE00008F02BCF880F991FFC01E758FE4F01908B
:102AF000F081E02D89E090E08ECF82E190E0EBEE76
:102B0000FBE089CF80919804882309F465CF853054
:102B100009F462CF8091E80083FD5ECF8091E800E8
:102B200082FD8DCF8091E80080FF83CF9091F300EC
:102B30008091F2002115310519F08830910550F08F
:102B400041E0089709F040E08091E8008E7780939B
:102B5000E8006FCF44914093F10031962150310944
:102B60000196E8CF803809F0E8CE8091E800877FB1
:102B70008093E800809199048093F10087CE8111C1
:102B8000DCCE10919C04123008F0D7CE8091E80082
:102B9000877F8093E800109399040E94D506112343
:102BA00011F084E005C08091E30087FDFACF81E059
:102BB0008093980442E061EC81E00E94F40642E2D6
:102BC00061EC84E00E94F40642E261EC82E00E9443
:102BD000F40642E260EC83E00E94F40642E061EC1D
:102BE00085E00E94F406A9CE80919C04813009F012
:102BF000A4CE81E0933009F080E080939704109296
:102C0000E9008091E800877F8093E8000E94D50664
:102C100094CE1F920F920FB60F9211242F933F93D1
:102C20004F935F936F937F938F939F93AF93BF93D4
:102C3000CF93DF93EF93FF93D091E900DF70809102
:102C4000EC00C82FC17080FDC0E81092E9008091AF
:102C5000F000877F8093F00078940E943D131092DB
:102C6000E9008091F00088608093F000CD2BCF7058
:102C7000C093E900FF91EF91DF91CF91BF91AF91A8
:102C80009F918F917F916F915F914F913F912F9184
:102C90000F900FBE0F901F901895882309F460C005
:102CA0009CEF980F913A78F4E6E8F1E02CE831E0F7
:102CB0009191891303C0DF0111971C922E173F07D2
:102CC000B9F70C946D0B90E2980F983088F48770E8
:102CD00021E030E0A90102C0440F551F8A95E2F7B8
:102CE000CA0180959091DF0189238093DF01E9CFAC
:102CF0009BE5980F9330B0F480918E0190918F01F5
:102D0000892B71F110928F0110928E01E091840451
:102D1000F0918504309721F10680F781E02D90E055
:102D200080E0099498E5980F9731A0F48091900184
:102D300090919101892BA1F0109291011092900134
:102D4000E0918404F0918504309751F00084F1857E
:102D5000E02DE5CF803F20F00E9487080C94BC1244
:102D60000895CF93DF93EC010E944D16CE010E948F
:102D7000360C9E01205E31092830310510F0CD2B34
:102D800021F4DF91CF910C94100CDF91CF910C9432
:102D9000FB0BCF93C82F8823E1F18CEF8C0F813A86
:102DA000F8F4E6E8F1E0DF018D91C81761F081E009
:102DB000AC38B807C9F76C2F84E891E00E94070887
:102DC000CF910C946D0B8191C81303C0DF01119753
:102DD0001C9281E0EC38F807B1F70E946D0BEBCF45
:102DE00080E28C0F883068F4C77021E030E001C0C9
:102DF000220FCA95EAF78091DF01822B8093DF01D1
:102E0000DFCFC03F30F08C2F0E944209CF910C944D
:102E1000BC12CF9108951F93CF93DF93182FD0E06A
:102E2000C0E0893311F4C0E5D0E0812F0E94C916BB
:102E3000209731F4812FDF91CF911F910C944D1683
:102E40008FE99FE00197F1F700C000002197F0CFD4
:102E50000F931F93CF93DF93C62FD42F022FFC0124
:102E600082818823A1F06093A4040E94B012909301
:102E7000A3048093A204C77081E001C0880FCA95A3
:102E8000EAF7DF91CF911F910F910C941B0C809169
:102E9000A404681335C08091A2049091A3040E94F9
:102EA000A112883C910560F510E21D0FCD17B9F015
:102EB00080E28C0F883040F4C77081E001C0880F39
:102EC000CA95EAF70E94100C183048F481E09D2F53
:102ED000977001C0880F9A95EAF70E941B0C802F0B
:102EE0000E940B17183098F4D77081E001C0880F4A
:102EF000DA95EAF7DF91CF911F910F910C94100CA6
:102F0000C77081E001C0880FCA95EAF7F3CFDF915F
:102F1000CF911F910F910895CF93C62F8091A50453
:102F20000E94250C8130E1F0882339F0823001F1D4
:102F30008330F1F180E0CF9108958091720288236F
:102F400041F0CC2321F082E00E94EC12F3CF84E028
:102F5000FBCF89EFC11101C08AEF0E940B17EACFA6
:102F6000809172028823A9F3C111F1CF81E0ECCFE7
:102F700080917202882319F0C111F8CFE4CF80EE5E
:102F8000CC2379F00E94C91681EE0E94C9168DE10A
:102F90000E940B1780EE0E944D1681EE0E944D1686
:102FA000C9CF0E94C9168DE10E940B1780EEF6CFA3
:102FB00080917202882369F289EAC111CECF8AEA30
:102FC000CCCFCF92DF92EF92FF920F931F93CF93CC
:102FD000DF930F92CDB7DEB7EE24E394F12C0EEF22
:102FE00011E09E012F5F3F4F44EF51E063E082E02C
:102FF0000E944A10082F882321F1C09018028C2DBE
:1030000090E09C01275E3D4F79011981F901808193
:10301000181BD12E80E00AC0DA94F70180818F5FFF
:10302000808360E08C2D0E948C17802F1D14A4F3E8
:10303000912F17FD90E0191B11110EC081110E94F4
:10304000650B802F0F90DF91CF911F910F91FF9013
:10305000EF90DF90CF9008951F5FF701808181503E
:10306000808361E08C2D0E948C17802FE5CFCF9359
:10307000DF93EC010E94360C9E01205E310928305E
:10308000310510F0209739F40E941B0C8C2FDF9132
:10309000CF910C94C9160E94060CF8CF3F924F9224
:1030A0005F926F927F928F929F92AF92BF92CF92D8
:1030B000DF92EF92FF920F931F93CF93DF93CDB7E1
:1030C000DEB762970FB6F894DEBF0FBECDBF8C019E
:1030D000FC0183819481892B31F080819181892346
:1030E0008F3F09F0FCC562960FB6F894DEBF0FBEA5
:1030F000CDBFDF91CF911F910F91FF90EF90DF90A7
:10310000CF90BF90AF909F908F907F906F905F9087
:103110004F903F9008950E94510FF82E682F89819B
:103120009A810E94CD0B69817A818F2D0E94440F74
:103130007C01F8012281222309F4C3C582519F45F5
:10314000409708F071C58FEF93E00E94022EFEEECB
:10315000EF0E77EA872E99249394882389F1809142
:10316000DC01877009F4BFCFF8018281882309F45C
:10317000BACF82E062960FB6F894DEBF0FBECDBF25
:10318000DF91CF911F910F91FF90EF90DF90CF9043
:10319000BF90AF909F908F907F906F905F904F9077
:1031A0003F900C940713811424E09206C1F2C401ED
:1031B0000E94022E811101C0EA943FEF831A930A04
:1031C000E110F1CF1C821B82442443946AE0362E26
:1031D00074018FEFE81AF80AC4010E94022E898355
:1031E0001A82882309F4BBCF9FEF980F933000F524
:1031F0008A83498292E0890E911CC7010E94022EA7
:103200008B83882309F4ABCFFE0131967F01F70150
:1032100020812223E9F2213009F049C09181828185
:10322000913041F4F2E0EF0EF11C0E940B1709C03F
:103230004701EACF923049F422E0E20EF11C0E94ED
:10324000C9163FEFE31AF30AE2CF933031F432E0CC
:10325000E30EF11C0E944D16F4CF943021F08FEF55
:10326000E81AF80AEECF92E0E90EF11C30E020E017
:10327000B7016F5F7F4FF70141818053990B8A300F
:10328000910550F021503109E0F28FE99FE001975C
:10329000F1F700C00000F6CF329EF001339EF00D32
:1032A00011249C012E0F3F1F842F7B01E1CFE22FC1
:1032B000F0E0EF55FE4F5490822F869586958695C7
:1032C00090E0FC01EF56FE4F64902770712C022EA7
:1032D00002C0759467940A94E2F7E1E06E227724C5
:1032E000FC01EF57FE4FA490B12C022E02C0B59402
:1032F000A7940A94E2F7F1E0AF22BB24FC01EF5857
:10330000FE4FC490D12C02C0D594C7942A95E2F701
:1033100021E0C222DD246114710419F081EE0E94C3
:10332000C916A114B10419F086EE0E94C916852DA4
:103330000E940B17AB2819F086EE0E944D166728E5
:1033400019F081EE0E944D16CD2809F47ACF8CE257
:103350006CCF81E00E9423130E94F01200CF81E025
:103360000E94FB12F9CF82E0F5CF222309F4F7CEB9
:10337000809146028F5F833019F080934602EFCE32
:1033800010924602ECCE222309F48BC18091720286
:1033900091E08927809372021092A40482E0E816DB
:1033A0008CE5F80608F461C196E1E9169CE5F9069A
:1033B00030F0C7018A5F9C45099708F056C10E940A
:1033C000CC0F90930D0280930C02E0E1EE16ECE539
:1033D000FE0609F419C108F09BC028E0E2162CE5AE
:1033E000F20609F4FFC008F067C084E0E8168CE537
:1033F000F80609F4EFC008F049C0E2E0EE16ECE58B
:10340000FE0609F4E1C080910C028260F3E0EF1641
:10341000FCE5FF0609F4DBC060910C02F0900D02A0
:1034200084E090E00E94102E6F2D82E290E00E94D6
:10343000102E0E94321393CEE5EFEE16ECE5FE0659
:10344000F1F0C8F036EFE3163CE5F30609F01EC4D0
:1034500027E245EE66EE03C026E241EE61EEC801CA
:103460000E9428177CCE27E245EE65EEF8CF26E2D3
:1034700041EE60EEF4CF27E245EE64EEF0CF26E2B7
:1034800041EE62EEECCF28E241E0EFCF80910C02FA
:10349000806126E0E2162CE5F20609F498C08091DE
:1034A0000C02886037E0E3163CE5F30608F48FC0B1
:1034B00080910C0280628BC08CE0E8168CE5F806E7
:1034C00009F49AC078F480910C028C60EAE0EE1660
:1034D000ECE5FE0609F47BC008F488C080910C027C
:1034E0008E7F75C080910C02877F2EE0E2162CE55E
:1034F000F20609F46CC080910C028B7F3FE0E3166A
:103500003CE5F30608F463C080910C028F7E5FC037
:103510008BEFE8168CE5F80609F460C068F5E3E186
:10352000EE16ECE5FE0609F477C090F421E1E21610
:103530002CE5F20609F46CC032E1E3163CE5F30633
:1035400009F06ACF0E94321380910C028F773FC03E
:1035500085E1E8168CE5F80609F466C008F47AC03F
:1035600080910D028160EAEFEE16ECE5FE0609F0AF
:1035700053CF80930D0250CFFFEFEF16FCE5FF060F
:1035800009F44EC068F480910D028D7F3DEFE31683
:103590003CE5F30671F3A0F180910D028360E9CF61
:1035A00091E0E9169DE5F90609F45DC008F448C00C
:1035B00060E0F2E0EF16FDE5FF0609F02DCF8EE0AA
:1035C00090E00E94102E28CF80910C0281608093A1
:1035D0000C0222CF80910C028460F9CF80910D0201
:1035E0008260C7CF80910C028064F1CF0E943213B9
:1035F00080910C028068EBCF80910C028D7FE7CF29
:1036000080910D028E7FB5CF80910C028F7DDFCF30
:1036100080910C028F7BDBCF80910C02837FD7CF10
:1036200080910D028C7FA5CF80910C0282FB99279F
:1036300090F921E0922790FB82F990FB83F9C7CFA4
:1036400080910D02982F909591708E7F892B90FB21
:1036500081F98FCF0E94321390910C02892F97FB32
:1036600087F98058B4CF61E0AACF36E1E3163CE594
:10367000F306B9F4222309F411C38091DF018A7A99
:1036800091E009F490E090938D0169E2811165E386
:1036900084E891E00E9407080E946D0B60CD85E3ED
:1036A00002C3F701E850FD458091AB04482F4370F9
:1036B000E032F10538F553E0F695E7955A95E1F7D4
:1036C000EA55FB4F3081B7016770772781E090E0C2
:1036D00001C0880F6A95EAF7222389F0832B808343
:1036E00042608091AB048C7F842B8093AB040E945A
:1036F0005A0C8091AB048D7F8093AB0405C08095FC
:103700008323EDCF81FDF3CFF8018281882399F0E7
:10371000FAE5EF16FDE5FF0609F476C008F04FC0A4
:10372000E1143CE5F30609F45FC08EEDE8168CE584
:10373000F80609F466C0F8018281E080F1808823F0
:1037400009F466C0C7010E94510FD82E682FC70127
:103750000E94CD0BB7018D2D0E94440F0E94FA09E3
:103760007C01882EF801D280C580C2943FE0C3223C
:103770008091DC018770A1F0AD2CDD2091F08F2DC0
:10378000807F803421F080E28E0D883048F082E026
:103790000E9407138091DC018770AA24A3948111F1
:1037A000A12C9F2C92942FE09222FBE0F91508F4B3
:1037B0006BC0E92DF0E0E25AF14D0C94D62D9BE55B
:1037C000E9169DE5F90611F1ECE5EE16EDE5FE06CC
:1037D00009F0B1CF80910D0282FB882780F991E03A
:1037E00089270E94040FA7CF0E943213FFEF24E322
:1037F0003CE0F15020403040E1F700C000000E9462
:10380000EA070E943C11ABCC81E0EBCF80E0E9CF2E
:10381000C7010E94A40BD82E9DCF2F2D2F70C22E32
:103820008F2D807F19F0C29490EFC922DD20C9F05E
:10383000CC2069F080E28E0D883010F081100BC032
:103840008091DF01C82AC092DF010E946D0B8E2D8E
:103850000E94C91619C08091DE01C82AC092DE01FB
:10386000F4CF8E2D0E944D16CC2071F0C09480E2D2
:103870008E0D883010F081103DC08091DF01C8228C
:10388000C092DF010E946D0BE92DE850FF0B3497C9
:1038900010F40E94380DAA2009F425CC8091DC0197
:1038A00080FD21CCF80112828595859585950E9431
:1038B0002313C8010E944E188091DC0185958595DF
:1038C000859562960FB6F894DEBF0FBECDBFDF912F
:1038D000CF911F910F91FF90EF90DF90CF90BF900D
:1038E000AF909F908F907F906F905F904F903F90A0
:1038F0000C94FB128091DE01C822C092DE01C2CF7F
:103900003F2D3F70B32E8F2D807F803219F0B294FF
:1039100080EFB822882071F081E0881681F1DD20E7
:10392000D9F1CC2091F1F801858180FF90CF8F7083
:1039300085832BC0DD20B1F09091E0018B2D892B88
:10394000C11003C00E941B0C9FCFE1E0CE12FACF42
:1039500020910D0222FD98CF981709F495CF8093FE
:10396000E00192CFC11006C00E94670B8B2D0E9410
:10397000100C8ACFF1E0CF1609F486CFF5CFDD2009
:1039800031F025E02C1508F47FCF8B2DDBCF34E010
:103990003C1508F479CFEACFCC2041F3F9E38F123C
:1039A0003CC12FEF37EE83E0215030408040E1F7FB
:1039B00000C0000032C18E2DDD20C1F10E944209FD
:1039C000EE2DE45FFF0BE530F105B0F581E090E00E
:1039D00001C0880FEA95EAF726E0ECE6F2E0DE01A6
:1039E000179601900D922A95E1F726E0FE01379691
:1039F000DE011D9601900D922A95E1F72885DD20C4
:103A0000C1F0822B8E8786E0FE013D96DE01119685
:103A100001900D928A95E1F786E0FE013196ACE6C1
:103A2000B2E001900D928A95E1F72ECF0E948708AF
:103A3000C7CF80958223E6CF0E94BC1225CF8F2D61
:103A4000837091F5D11020CF4E2D42954695477049
:103A5000440F440F8E2D8F70042E01C0880F0A94DE
:103A6000EAF72E2D2071E4FE07C02FE030E001C000
:103A7000220F4A95EAF720953F2D369536953370FB
:103A8000323069F050F44091E101313029F0822B5D
:103A900084230E942E13F8CE842B822BFACF282B5E
:103AA0008091E1018227F5CF8695DD2011F08F2DE1
:103AB0008170882309F4E8CE4E2D429546954770D3
:103AC000440F440F8E2D8F70042E01C0880F0A946E
:103AD000EAF72E2D2071E4FE07C02FE030E001C090
:103AE000220F4A95EAF720953F2D3695369533708B
:103AF000323069F050F44091A504313029F0822B26
:103B000084230E94EC12C0CE842B822BFACF282B68
:103B10008091A5048227F5CFFF2DFF70FF2EDD20B9
:103B200029F08F2F0E9423138E2D0CCF8E2D0E94F3
:103B3000100C8F2D0E94FB12A7CE8E2D22EF821625
:103B400009F44AC0281570F030EF831631F191EF77
:103B50008916D1F1DD2009F45BC0C11078CE8F2D1C
:103B60008F7137C0E3EF8E16E1F1F4EF8F12F2CFD1
:103B7000DD2009F442C08F2D8F71F82E0E9423138F
:103B800080910D0282FD07C0E8E0FE9EC001112475
:103B900083608093DC018F2D1CC0DD2081F024E048
:103BA0002C1508F471CE2F2D2F7181E090E001C00B
:103BB000880F2A95EAF79091A5048927A2CF35E0CE
:103BC0003C1508F461CEEFCF8F2D8F71DD2009F405
:103BD000B1CF0E94231358CE8F2D8F71DD20C9F3F2
:103BE000A9CF80E0DD2009F48CCF9F2D9F7181E06B
:103BF00001C0880F9A95EAF784CF81E00E940713ED
:103C0000F1E0FC1508F040CE82E00E9407133CCEA4
:103C1000CC2039F0893309F4C4CE8E2D0E944D1684
:103C200033CE8F2D8F7186CFF0E1EF16FFE5FF06C3
:103C300009F48FCB31E1E3163FE5F30609F493CBAA
:103C400082E6E8168DE5F80609F48FCB93E6E916CF
:103C50009DE5F90609F497CBE3EFEE16ECE5FE06D9
:103C600009F405CC08F0E8CB38EDE3163CE5F306A3
:103C700009F4F9CB89EDE8168CE5F80609F403CCD4
:103C800097EDE9169CE5F90609F4E6CB211184CB02
:103C9000F6E1EF16FCE5FF0609F003CD80918D01FA
:103CA0008111FDCC89E2E6E8F1E02CE831E0919168
:103CB000891303C0DF0111971C922E173F07B9F734
:103CC000EBCC80E1E8168FE5F80609F448CB91E1EA
:103CD000E9169FE5F90609F0B3CF82E041CB85E014
:103CE000DE01119601900D928A95E1F7F80122818B
:103CF00089819A8121110FCA0E94A40BF82E13CA40
:103D00001F93CF93DF938091A901807FA9F48091C5
:103D1000A601882389F08091DB01D091AA016091EE
:103D2000A4017091A501A091A701B091A801C62F8F
:103D3000C72316E0D81304C0DF91CF911F910895D7
:103D400090E0109711F0CF3F19F401968770F2CFF1
:103D5000189F9001199F300D1124F901E555FE4F70
:103D600041814713F2CF40814613EFCF4281411189
:103D7000ECCF438154814A1B5B0B483C510528F72B
:103D80008091A9018F7080618093A901F901E055AC
:103D9000FE4F80818F708061808384EA91E00E9471
:103DA0004E18DF91CF911F910C949A0BAF92BF9256
:103DB000CF92DF92EF92FF920F931F93CF93DF93F7
:103DC000CDB7DEB761970FB6F894DEBF0FBECDBF9B
:103DD0008C0185E0F801DE011D9601900D928A9517
:103DE000E1F7F801E28084EAA82E81E0B82E609124
:103DF000A7017091A8016115710509F432C1909174
:103E0000A4014091A501892F84238F3F09F429C182
:103E100020813181C380D480F090A601F601E61B99
:103E2000F70BFF2009F4E8C08091A901582F507FBB
:103E3000E83CF10508F0ABC0511177C0FE2C4313EC
:103E400021C092131FC0E1101DC08F70806180934C
:103E5000A901C5010E944E188091A901F80185832E
:103E60008F2D61960FB6F894DEBF0FBECDBFDF91E8
:103E7000CF911F910F91FF90EF90DF90CF90BF9067
:103E8000AF900895CD2829F0822F83238F3F09F02A
:103E900003C180E0F82FF170DF2E80FF3CC08091DD
:103EA000DB014091AA0156E0841315C02D873E879F
:103EB0008D859E850E94800F292F22952F7022309C
:103EC000F0F0243018F59F70F1F0F8019581907FA3
:103ED000D1F4D12C1EC090E0589FF001599FF00DF5
:103EE0001124E555FE4F6181361306C0608126130B
:103EF00003C06281E6120FC001968770D5CF9F7014
:103F000011F0882331F3805E883018F3C8010E94D5
:103F10004E18FD2CA5CFEE2009F4A2CF8091A90167
:103F200081608093A901F12C9BCF431306C09213AB
:103F300004C0F801EE2009F479C0C8010E948C0F7A
:103F4000882309F1EE20F9F08091A901803270F008
:103F50002091A4013091A50138872F831986DB8633
:103F6000CA868C87CE0107960E944E1886E0F8011B
:103F7000A4EAB1E001900D928A95E1F70E94801EBB
:103F8000FF24F3946DCFC8010E944E18F9CF511150
:103F90000AC084EA91E00E944E1886E0F501119271
:103FA0008A95E9F7C0CF43130FC092130DC0E110FB
:103FB0000BC0F8018583C8010E944E1886E0F50108
:103FC00011928A95E9F74CCFC8010E948C0F882383
:103FD000D1F2EE20C1F28091A901803238F2209115
:103FE000A4013091A5013A8329831B82DD82CC8212
:103FF0008E83CE010196B8CFE83CF105F8F6FE2C91
:10400000EE2009F243131FC092131DC08091A90135
:1040100080FD10C0982F907F69F0F8018583903F54
:1040200031F0982F907F905F8F70892B8583C80126
:104030000E944E1886E0F801A4EAB1E001900D92CA
:104040008A95E1F70DCFC8010E948C0F81118ECFA8
:104050008091A90181608093A901C8010E944E1836
:10406000FFCEEE2009F48FCFC8010E948C0FF82EEE
:10407000882309F488CF86E0F801A4EAB1E0019032
:104080000D928A95E1F78091A4019091A5010E947B
:10409000800F0E94801EE4CE81E08E25FBCE1F9310
:1040A000CF93DF93CDB7DEB767970FB6F894DEBF37
:1040B0000FBECDBF4B8B5C8B6D8B7E8B8F8B61115D
:1040C0001092DE011A8A198A85E0FE017396DE01DC
:1040D0001D9601900D928A95E1F786E0FE013D96CE
:1040E000DE01179601900D928A95E1F7CE010796B1
:1040F0000E94D61E882389F016E08091DB01909102
:10410000AA01891349C067960FB6F894DEBF0FBEA7
:10411000CDBFDF91CF911F91089586E0FE013796C4
:10412000DE01119601900D928A95E1F78A859B85B3
:10413000892B11F38F81988589238F3FE9F2209194
:10414000AA0130E0C9010196877099274091DB01EF
:104150004817190671F40E9432131092AA011092A6
:10416000DB0186E0E4EAF1E0DF011D928A95E9F7E0
:10417000C3CF96E0929FD001939FB00D1124A55517
:10418000BE4FFE01319601900D929A95E1F7809312
:10419000AA010E949A0BB0CF819FC00111248555BE
:1041A0009E4F0E94D61E882309F4ADCF8091DB017B
:1041B00090E00196877099278093DB019ECF9F92B4
:1041C000AF92BF92CF92DF92EF92FF920F931F9325
:1041D000CF93DF93CDB7DEB72C970FB6F894DEBF41
:1041E0000FBECDBF8E010F5F1F4F88E0F801119207
:1041F0008A95E9F787E4C82E81E0D82EF12CE12CCE
:10420000AA24A394B12CF60181916F018F3F09F488
:104210004AC0F894E82FE295EF70F0E021A18F708A
:10422000A50102C0440F551F8A95E2F7CA01922FDB
:10423000982B91A392A18095892382A30E949E0925
:1042400000C0EFE4F1E030E020E0912C41914F3FDD
:1042500009F470C0A42FA295AF70B0E090968C9135
:1042600090E04F7002C0959587954A95E2F780FDE2
:1042700061C08A2D022E01C0880F0A94EAF7982A9D
:104280002F5F3F4F2630310509F7F60131978081C6
:104290008F3F11F00E94A00950EA5A95F1F7F801FA
:1042A000EE0DFF1D90828FEFE81AF80AE4E0EE169B
:1042B000F10409F0A8CF48E050E0B8018EE092E0A8
:1042C0000E94EC2D7C01892B41F088E0F801AEE0E2
:1042D000B2E001900D928A95E1F710911702E11476
:1042E000F10451F181E08093E4010E94B0129093B7
:1042F000E3018093E2018091E2019091E3010E9449
:10430000A112059790F0E12FF0E0EF5AFD4F809158
:104310000E02808380910F0281838091100282833C
:104320008091110283831092E401EF2849F081E02B
:1043300090E059C080E0A3CF8091E4018111DBCFF0
:104340000E94150DF82EE0911702882309F482C00F
:1043500019861A861B861C860E2F10E00F5A1D4FD9
:10436000809107028A3008F050C049EF50E1BE0149
:10437000675F7F4FC8010E94D10C882309F459C0A0
:1043800041EE57E1BE01675F7F4FC8010E94D10C2B
:10439000882309F44EC04AED5FE0BE01675F7F4F9E
:1043A000C8010E94D10C882309F443C0109207026F
:1043B000A0911602B0E0AF5ABD4FBE01675F7F4FBC
:1043C0009E01235F3F4F80E04D91FB019191BF0122
:1043D000491731F0AD0141505109FA0190838F2DF9
:1043E0006217730789F72C960FB6F894DEBF0FBEDD
:1043F000CDBFDF91CF911F910F91FF90EF90DF9094
:10440000CF90BF90AF909F9008958091E5019091DB
:10441000E6010E94A112843F914008F0A6CFE091EE
:104420001602F0E0EF5AFD4F1082118212821382C1
:104430007ECF809107028F3F31F08F5F809307021C
:104440008A3008F4B5CF0E94B0129093E6018093B1
:10445000E501E5CFF0E0EF5AFD4FF89484E0A9EFD5
:10446000B1E001900D928A95E1F764E070E089EF88
:1044700091E00E942F088093F8010E949E09F89411
:10448000E0911C02F0E0E75EFD4F80818987809318
:10449000FE0161E070E0CE0109960E942F08809332
:1044A000FD010E949E09F894C090FF01D090000287
:1044B000E0900102F09002028091E7019091E80102
:1044C000A091E901B091EA01C816D906EA06FB06F7
:1044D000D1F0C092E701D092E801E092E901F092B8
:1044E000EA010E94150D81110EC00E94FB07C61A39
:1044F000D70AE80AF90AC0920802D0920902E092AB
:104500000A02F0920B020E949E0980E06CCF1F927B
:104510001FB61F9211248F939F93AF93BF938091E7
:104520008604811113C08091870490918804A09122
:104530008904B0918A044196A11DB11D809387041E
:1045400090938804A0938904B0938A04BF91AF919B
:104550009F918F911F901FBE1F901895CDB7DEB70A
:10456000EC970FB6F894DEBF0FBECDBF84B7877F40
:1045700084BF0FB6F894A8958091600088618093FD
:104580006000109260000FBE80E890E00FB6F894D3
:1045900080936100909361000FBE85B7806885BFEE
:1045A00085B7806885BF8CE999E0909383018093FB
:1045B00082010E945B060E9426078091E2008460CF
:1045C0008093E2007894809198048823A1F0109160
:1045D000E9001F709091EC00892F817090FD80E8B8
:1045E000182B1092E9008091E80083FD0E943D1392
:1045F0001F701093E90082E084BD93E095BD9AEFAF
:1046000097BD80936E0010920802109209021092DA
:104610000A0210920B020E94B30F811102C00E9485
:10462000F50E54985C9A219A299825E02A95F1F77D
:10463000000089B12198299A30EA3A95F1F790E083
:1046400024E0959587952A95E1F78095909581705E
:10465000809332010E94150D81110E94E12B8091FF
:1046600032018091320194E0811190E09093170221
:1046700084E0891B8093160281E30E94A00983E3F2
:104680000E94A00982E30E94A00986E30E94A0097B
:104690000FE411E085E5E82E81E0F82ED8018D9138
:1046A0008D018F3F11F00E94A009E016F106B1F7CD
:1046B000EEE0F2E086E192E0A1E5B2E011921D9217
:1046C0008E179F07D9F790E080E00E940A2E893E5E
:1046D0009E4F21F40E94B30F811102C00E943C1131
:1046E00082E090E00E94022E809348020E94CC0F4C
:1046F00090930D0280930C020E94DF20EFE3FCE90F
:104700003197F1F700C000000E94DF208091510234
:1047100080FF08C06FEF7FEF90E080E00E942E2EB8
:104720000E94EA0783E090E00E94022E0E942E136E
:104730000E94150D811102C00E94E42B0E94150DEC
:10474000882309F44BC183E080933E0280FD48C179
:1047500080E8809373020E94792A6DE070E084E320
:1047600092E00E94480D892BE9F580913E0263E0BA
:1047700070E081FD37C181E392E00E94480D892BF2
:1047800089F56DE070E081E292E00E94480D892B8E
:1047900049F50E94FB07605A75418F4F9F4F609308
:1047A0007E0470937F048093800490938104E6E7F5
:1047B000F2E080E092E0DF019C011D922150304048
:1047C000E1F7F0937D04E0937C048FEF9FEF9093EB
:1047D00075028093740281E0809383048093820445
:1047E00010923F0286988E9A87988F9A8FB186FB97
:1047F000882780F92FB130E0220F232F221F330B9F
:1048000092E0232B09F490E0892B80931D02909174
:10481000320181E0982790931C02891B8093180233
:1048200083E391E0909385048093840418E1E12E62
:10483000F12C22242394312C8091980400E112E180
:10484000853009F408C10E94DF20C82E81110E9422
:10485000FB07E9E4F2E0A1E5B2E010E000E0902E11
:10486000BD9081918B1509F405C18B25A12CDD2408
:10487000D394982F9D2109F4F8C00E94150D882328
:1048800099F0ADA69EA6BD2081E009F480E08FA737
:104890000E94B0128160782F99AB88AB4DA55EA5C0
:1048A0006FA589A90E944F20F801E75BFD4F808129
:1048B000D826D082E0911D02EE0FEE0FE0931D028C
:1048C0008FB186FB882780F98FAB18AE8FB190E04F
:1048D000880F892F881F990B009711F082E090E0D4
:1048E000AFA9B8AD8A2BE82BE0931D0210911C02F2
:1048F000EF70F0E0EB5AFE4F808190911B02890F20
:1049000080931B02D12C84306CF0E12FF0E0E75E45
:10491000FD4F80818F5F808360E0812F0E948C1724
:10492000DD24D39480911B028D3F6CF4E12FF0E0E5
:10493000E75EFD4F80818150808361E0812F0E947E
:104940008C17DD24D39480911B02082E000C990B48
:1049500064E070E00E94C22D80931B02D1100E947F
:10496000650B80918304882309F439C1809140024A
:10497000909141020E94A112C29708F4ABC00E941C
:10498000B012909341028093400286E792E09093A8
:104990007D0480937C040E94150D882309F46BC26A
:1049A00060E08CEA92E00E94330E8091A5040E94A0
:1049B000250C813009F426C2882309F472C08230A4
:1049C00009F433C2833009F443C260E081E492E029
:1049D0000E94330E81E00E94450E77C080E0B4CE85
:1049E00080E2B7CE8EE292E0C8CE80919804843007
:1049F00011F11092860430E40FB6F894A895E09275
:104A000060000FBE3093600083B7817F846083BFF6
:104A100083B7816083BF7894889583B78E7F83BF87
:104A20000FB6F894A895809160008861809360002B
:104A3000109260000FBE80919704882361F00E945D
:104A4000DF20E1E5F2E081918111F2C489E592E095
:104A50008E179F07C1F780919804853009F4C5CF60
:104A60000E9432130E94380DEECEA394DD0C96E026
:104A7000A912FFCE0F5F1F4F0830110509F0EFCECE
:104A80008FEF8AAB8BAB1CAA0E94B0128160782F8B
:104A90009EAB8DAB4AA95BA96CA98EA90E944F2041
:104AA00009CF61E086EA92E00E94330E60E080EA7E
:104AB00092E00E94330E60E08AE992E00E94330E99
:104AC00060E084E992E00E94330E809183048823A1
:104AD00009F460C0209174023091750221153105EE
:104AE00009F458C080913F02811154C0082F10E092
:104AF0002101082E02C0440C551C0A94E2F7A901BA
:104B000044215521452B09F41BC290913E0290FD92
:104B100019C28295880F807680933F01980136955F
:104B200027953695279520934201815E8093400119
:104B30001092430124E630E047E050E06DE371E07D
:104B400088E70E94282B892B29F5A801F5E0440F5E
:104B5000551FFA95E1F780913E0280FD01C24A5847
:104B60005D4F04E610E020E230E060E488E70E9458
:104B70004F2B892B79F40E94780DC2018095909576
:104B8000409074025090750248225922509275024A
:104B90004092740280918204882309F10E94FB07ED
:104BA00000917E0410917F04209180043091810453
:104BB000601B710B820B930B6F3F7F4F8F4F9F4793
:104BC00070F480918304882351F062E070E083EBFD
:104BD00094E00E94480D892B11F410928204C110B8
:104BE00001C0D1100E94780D86E0E0E6F2E0DE011F
:104BF000119601900D928A95E1F7D0906202C090D3
:104C00006302109164020091650210926202109298
:104C1000630210926402109265028D2D8C2909F4B2
:104C200048C080915E0290915F020E94A1129C0197
:104C300090915A02992309F457C423333105C8F1DE
:104C40009F3F19F09F5F90935A02DD2059F00E9418
:104C500022099FEF1D140CF491E0899F802D1124EF
:104C600080936202CC2059F00E9422099FEF1C140D
:104C70000CF491E0899F802D112480936302309180
:104C800062023323B1F020916302222391F045EBBD
:104C90003403C0011124992309F4C6C19093620220
:104CA00045EB240390011124332309F4C1C130934F
:104CB0006302812F802B09F448C080915C0290919F
:104CC0005D020E94A1129C0190915902992309F45E
:104CD00006C425363105C8F19F3F19F09F5F9093B8
:104CE0005902112359F00E9400099FEF11160CF48C
:104CF00091E0899F802D112480936402002359F054
:104D00000E9400099FEF10160CF491E0899F802DFE
:104D1000112480936502309164023323B1F0209115
:104D20006502222391F045EB3403C001112499233D
:104D300009F482C19093640245EB2403900111248D
:104D4000332309F47DC13093650280916202909112
:104D50006302892B90916402892B90916502892BC3
:104D600011F00E94BC1286E0FE013196A0E6B2E08E
:104D700001900D928A95E1F70E9445081091460234
:104D8000113009F487C1112309F45EC1123009F40E
:104D9000C6C10E94380D90914702891721F00E94E8
:104DA000380D8093470280919804843009F044CDF7
:104DB00083E08093E9008091E80082FF3DCD8091FF
:104DC000E80090E085FF0CC00E947A0640E2C42E05
:104DD000D12C8E010F5F1F4F882309F4ECC191E0A5
:104DE0008091E8008B778093E800992309F424CD23
:104DF000E981E150E33108F04FC2F0E0E659F14DAE
:104E00000C94D62D60E08EE892E00E94330E61E0B3
:104E100088E892E00E94330E60E082E892E00E940F
:104E2000330E60E08CE792E04ECE60E086E792E0E1
:104E30000E94330E60E080E792E00E94330E61E052
:104E40008AE692E00E94330E60E084E692E03BCE78
:104E500060E08EE592E00E94330E60E088E592E02B
:104E60000E94330E60E082E592E00E94330E61E022
:104E70008CE492E028CE80917C0490917D0486574A
:104E800092409C013E5F21303240E8F120E032E068
:104E9000281B390B4091740250917502E3EBF2E04C
:104EA000280F391F8217930788F15093750240939A
:104EB000740280918304882309F46CCE452B09F099
:104EC00009CE80913F02811105CE198286E28A8344
:104ED0001B821C821D8287E08E831F828FEF888752
:104EE0008FE2898724E630E049E050E0BE016F5F41
:104EF0007F4F88E70E94282B892B09F0E6CD81E0BF
:104F000080933F02E2CD20E032E0C4CF6491DC0127
:104F1000AA58BD4F7C91671781F06C93BC01B5E036
:104F200076956795BA95E1F7D10102C0AA0FBB1F2C
:104F30006A95E2F7BD014A2B572B01963196B2CF05
:104F40008F5FD4CD880F880F880F80933F01109218
:104F50004201895F8093400183E080934301EACD61
:104F6000EEE1F2E080E2DF011D928A95E9F7E9E6E1
:104F7000F1E0FCAFEBAF65E671E0E7E08E2EEBAD64
:104F8000FCADA191FCAFEBAFFB018191BF01840FA0
:104F9000952F911D9C012A583D4F3AAF29AFEA2F1A
:104FA000F0E0E25EFD4F90E080E0682C681A922C01
:104FB000082E01C0990C0A94EAF709AD1AADA12C8C
:104FC000D801BD908D01B920262D2A192770722E87
:104FD000022E000C330BBB2D01C0BB0F7A94EAF7F5
:104FE0007B2E3195219531092770332701C0B69466
:104FF0002A95EAF77B28B0807B287082A39428E06A
:10500000A212DECF019631968830910571F68BADF4
:105010009CAD8D56914009F0B2CF04E610E020E23D
:1050200030E04EE152E0A1CD81E08093620238CEC3
:1050300081E0809363023DCE81E0809364027CCE68
:1050400081E08093650281CE85EF0E94380C97FD48
:105050000396959587959595879580589109909396
:10506000A8048093A70484EF0E94380C97FD039650
:105070009595879595958795805891099093AA0461
:105080008093A9048091AB0482608093AB040E945A
:105090005A0C7FCE8091420281110AC284EF0E9495
:1050A000380C8115934034F01093420281E590E072
:1050B0000E943718809143028111ECC184EF0E9455
:1050C000380C813091403CF481E08093430282E5CA
:1050D00090E00E943718809144028111CDC185EF84
:1050E0000E94380C811593403CF081E0809344028B
:1050F0008FE490E00E943718809145028111AEC183
:1051000085EF0E94380C813091400CF042CE81E056
:105110008093450280E590E00E9437183ACE86E001
:10512000ECE6F2E0DE01919601900D928A95E1F7AE
:1051300086E0FE01B196DE01979601900D928A9568
:10514000E1F785EF0E94380C9250B7010E94C22D02
:10515000162F062F84EF0E94380C9250B7010E9440
:10516000C22D862F1B5F1B3008F400E06B5F6B3095
:1051700008F480E009A78AA786E0FE01B796DE0161
:10518000119601900D928A95E1F786E0FE01319625
:10519000ACE6B2E001900D928A95E1F70E944508D5
:1051A000F8CD8091F100D8018D938D01B1E0CB1A3B
:1051B000D10809F414CE8091E80085FDF2CF8091EA
:1051C000E8008B778093E8000E947A06882399F3A1
:1051D00006CE1A8289E08B8311C08A81823009F45D
:1051E00075C1833091F1813009F056C00E94FB07F0
:1051F0000E94DC2D6B837C838D839E838091980439
:10520000843009F019CB1091E9001F709091EC00E7
:10521000892F817090FD80E8182B82E08093E9004F
:105220008091E80080FF0DC050E040E060E270E057
:10523000CE0101960E94AB068091E8008E778093A4
:10524000E8001F701093E900F7CA809151028B8328
:10525000809152028C83809153028D8380915402FD
:105260008E83809155028F8380915602888780912A
:1052700057028987809158028A87C0CF8A818230FD
:1052800059F46B817C818D819E810E94DC2D86E2A8
:1052900090E00E94102EB2CF8FEF8983AFCF4C8168
:1052A0006B818A810E941E0F9827892798279E83E9
:1052B0008D83A4CF0D811E811027012710278A819D
:1052C000CB80ECE0CE9E60011124F0E68F9FC00CF5
:1052D000D11C11248C8190E0880F991FC80ED91E13
:1052E000612FC60187960E94102E602FC6018896F6
:1052F000D0CF0E94880E82CF80E18A837FCF82E068
:105300008A8389E568CF0A811B811027012710272E
:105310009E012F5F3F4F6901AC80C9018A0D911D2D
:105320005C01C80189559E4FCA14DB0409F466CF9D
:105330000935A2E01A0750F40E94022EF601848378
:105340000F5F1F4FBFEFCB1ADB0AEBCFD6011496CE
:105350001C92F6CF0A811B81102701271027FE011E
:1053600031965F01CC80C00ED12ED11CC801895569
:105370009E4F0C151D0509F441CF0935F2E01F07BA
:1053800028F4D50114966C910E94102EBFEFAB1A31
:10539000BB0A0F5F1F4FEACF0E94780E2FCF84E029
:1053A000ACCF0A811B81102701271027FE013196FF
:1053B0006F01AC809F012A0D311D5901C8018796EC
:1053C000AC14BD0409F41ACF003831E0130758F4C7
:1053D0000E94022ED60114968C930F5F1F4FFFEF91
:1053E000CF1ADF0AEBCFF6011482F7CF0A811B81B7
:1053F0001027012710279E012F5F3F4F5901CC80B6
:10540000C00ED12ED11CC80187960C151D0509F4BC
:10541000F5CE003831E0130728F4D50114966C91CD
:105420000E94102EBFEFAB1ABB0A0F5F1F4FEBCFCE
:1054300009BD19BD09B400FEFDCF8091D8008F7D54
:105440008093D8008091E00082608093E00080919A
:10545000E00081FDFCCF0E943213FDCA85EF0E945F
:10546000380C823091400CF494CC1092450280E5C7
:1054700090E00E94B1168DCC85EF0E94380C8F3FD2
:1054800092400CF039CE109244028FE490E00E94DA
:10549000B11632CE84EF0E94380C823091400CF469
:1054A0001ACE1092430282E590E00E94B11613CE0C
:1054B00084EF0E94380C8F3F92400CF0FBCD10928D
:1054C000420281E590E00E94B116F4CD86E290E0C0
:1054D0000E94022E1B821C821D828E838FCE2D3253
:1054E000314008F0FBCB31CC2D32314008F0AACB53
:1054F000E0CB1092B9008CE08093B80008959F92A1
:10550000AF92BF92CF92DF92EF92FF920F931F93D1
:10551000CF93DF93B82EEB010E94B0126C01EE2402
:10552000E394F12CC431D10560F025E0E22EF12C9A
:10553000CF3FDC0731F0CE0164E170E00E94A22D84
:105540007B0184EAA82E94E8992E1092BC00A092C8
:10555000BC000E94B0128C018091BC0087FF0DC07E
:105560008091B900887F883039F18091B900887FB7
:10557000803111F10FEF1FEF09C00E94B012801BA4
:10558000910B8E159F0540F30EEF1FEFCF3FDC0709
:10559000E1F2C6010E94A1128C179D07B0F2C8016A
:1055A000DF91CF911F910F91FF90EF90DF90CF90FF
:1055B000BF90AF909F900895B092BB009092BC00B6
:1055C0000E94B0128C018091BC0087FF0AC08091BC
:1055D000B900887F883111F0803461F610E000E076
:1055E000DECF0E94B012801B910B8E159F0558F3E1
:1055F000CBCF0F931F93CF93DF93EB018093BB002F
:1056000084E88093BC000E94B0128C018091BC00A1
:1056100087FF11C02091B900287F81E090E02832F7
:1056200011F490E080E0919581959109DF91CF91FF
:105630001F910F910895CF3FDC0741F30E94B012F4
:10564000801B910B8C179D0708F38EEF9FEFEECF19
:10565000CF92DF92EF92FF920F931F93CF93DF933E
:105660006B018A017901B9010E947F2AE6010C0DC4
:105670001D1DC017D10761F424E92093BC00DF9100
:10568000CF911F910F91FF90EF90DF90CF900895F1
:1056900097FDF2CFB70189910E94F92AEACFCF9204
:1056A000DF92EF92FF920F931F93CF93DF93C62F5A
:1056B0006A017901B8010E947F2A97FD0CC0B801E8
:1056C0008C2F0E94F92AE601EC0CFD1CCE15DF059B
:1056D00011F097FF0CC024E92093BC00DF91CF911B
:1056E0001F910F91FF90EF90DF90CF900895B80138
:1056F00089910E94F92AEACF84E98093BC00089539
:105700008EE14A9B02C08150E1F74A9BFECF08958B
:105710005A9880E28A95F1F75A9A0895FC013BE085
:105720003A95F1F798E020E080E031E040E14A95D9
:10573000F1F7880F4A9B02C08160232742E04A9517
:10574000F1F7000040E14A95F1F7915079F790E1C7
:105750009A95F1F799B132E03A95F1F7000040E1FE
:105760004A95F1F792FB992790F992272081920FA1
:1057700090830895EF92FF920F931F93CF93DF933F
:105780000F92CDB7DEB719828C017C01E60EF11CB9
:105790000E151F0561F481E09981911180E00F9051
:1057A000DF91CF911F910F91FF90EF9008950E948C
:1057B000802BCE0101960E948E2BF80181938F01E0
:1057C000E7CF529A5A9A089552985A9AEA9AE9E675
:1057D000F0E080818F7C808308956150770B91E0A9
:1057E00001C0990F6A95EAF720E031E0911108C0F5
:1057F000222391F05A9A80E28A95F1F75A980895F7
:10580000492F482339F05A9A232740E24A95F1F765
:105810009695ECCF5A98F9CF5A98EDCFFF920F9307
:105820001F93CF93DF93EC018C01060F111DC0175E
:10583000D10731F4DF91CF911F910F91FF9008951F
:10584000F9900E94882B68E08F2D0E94ED2BEFCFFE
:105850001F920F920FB60F921124EF92FF920F93A7
:105860001F932F933F934F935F936F937F938F93E8
:105870009F93AF93BF93EF93FF93CF93DF930F92D9
:10588000CDB7DEB719820E94802BCE0101960E940F
:105890008E2BA82FA695A695A695282F2295257024
:1058A0009A2F9570290F922F937026952695920F17
:1058B000982797708981982B09F075C0A63008F059
:1058C00072C080E18A95F1F75A9A529AB2E0BA957D
:1058D000F1F700C05A98EA2EF12CEAE0AE9FD00111
:1058E0001124A050BF4F1896ED91FC911997309755
:1058F000B1F0609145017091460116962D913C9151
:105900001797260F371F13968D919C911497680F48
:10591000791F15964C91159712968C9109958AE0EE
:105920008E9DF0018F9DF00D1124E050FF4F658199
:10593000662351F02091450130914601868197817F
:10594000820F931F0E940E2C0E94882BF0E1FA9583
:10595000F1F75A9852985A9A80E18A95F1F78AE0BD
:105960008E9D80018F9D100D112400501F4FD80176
:1059700012966C911297662371F120914501309136
:10598000460113968D919C91820F931F0E94BA2B12
:10599000D801ED91FC91882311F088E001C082E0EC
:1059A00080830E94802B0F90DF91CF91FF91EF9128
:1059B000BF91AF919F918F917F916F915F914F9127
:1059C0003F912F911F910F91FF90EF900F900FBE7D
:1059D0000F901F901895ED91FC91DFCF0F931F93BF
:1059E000CF93DF93EC0106970CF0A9C08AE08C9F5F
:1059F000F0018D9FF00D1124E050FF4F80819181C7
:105A0000892B09F49CC0F894529A5A9885E08A959B
:105A1000F1F700008C2F869585709C2F9570890F6B
:105A2000982F937086958695890F8E0193E0000FCD
:105A3000111F9A95E1F7082B0E94882B00C068E09F
:105A4000802F0E94ED2BA0E1AA95F1F752985A9A67
:105A50004A9B27C087E090E04A9925C08AE08C9F46
:105A600080018D9F100D112400501F4FF80165819A
:105A70006623A1F1209145013091460186819781ED
:105A8000820F931F0E94BA2B811128C0529A5A9AF2
:105A9000D801ED91FC9182E08083789482E090E0DF
:105AA00016C000C0D5CF0197B9F4529A5A9A8AE02D
:105AB0008C9FF0018D9FF00D1124E050FF4F01905D
:105AC000F081E02D81E08083789481E090E0DF91A7
:105AD000CF911F910F91089500C0BECF0E94802BDF
