:100000000C9492060C94D9060C94D9060C94BE302C
:100010000C94D9060C94D9060C94D9060C94D906E4
:100020000C94D9060C94D9060C94C4140C9427197A
:100030000C948B260C94D9060C94D9060C94D906F2
:100040000C94D9060C94D9060C94D9060C94D906B4
:100050000C94D9060C949B150C94D9060C94D906D3
:100060000C94D9060C94D9060C94D9060C94D90694
:100070000C94D9060C94D9060C94D9060C94D90684
:100080000C94D9060C94D9060C94D9060C94D90674
:100090000C94D9060C94D9060C94D9060C94D90664
:1000A0000C94D9060C94D9060C94D90605010904C0
:1000B000A101A1000501093009311581257F9502B3
:1000C00075088102C0C005010902A101850209016C
:1000D000A1000509190129081500250195087501D8
:1000E00081020501093009311581257F95027508C6
:1000F000810609381581257F950175088106050C53
:100100000A38021581257F950175088106C0C00651
:1001100060FF0961A1010962150026FF00952075A5
:100120000881020963150026FF00952075089102D9
:10013000C005010906A101050719E029E7150025F9
:10014000019508750181029501750881010507195E
:100150000029FF150026FF00950675088100050897
:100160001901290595057501910295017503910104
:10017000C0000000000000000000000000000000BF
:10018000000000000000000000000000000000006F
:1001900000000000007E0F00D4FFFFFFC70000003A
:1001A0007800000000000000002A2B28000000005A
:1001B0000000000000000000000000002900000016
:1001C000002C1E3420212224342627252E362D37BC
:1001D00038271E1F202122232425263333362E378D
:1001E000381F0405060708090A0B0C0D0E0F101125
:1001F00012131415161718191A1B1C1D2F31302332
:100200002D350405060708090A0B0C0D0E0F1011F9
:1002100012131415161718191A1B1C1D2F313035FF
:100220004C00DA0281FFD9F1DB20A4A62EAF00A09A
:10023000C000A1C800AED580A81FD300408D1420F7
:1002400000556E646566696E65640A0046756E6386
:100250000A00437265610A0047616D650A004D61DD
:10026000696E0A0046756E630A00437265610A0092
:1002700047616D650A004D61696E0A0046756E63DF
:100280000A00437265610A0047616D650A004D61AD
:10029000696E0A0046756E630A00437265610A0062
:1002A00047616D650A004D61696E0A004D6F6465B6
:1002B0003A0A008C86868686868C988C8686868608
:1002C000868C988C86868686868C988C8686868692
:1002D000868C9800787CC6C6C6C6FCF8C0F8F8C004
:1002E000C0C0C0C00080E0F8FC9C0E0606F6F60612
:1002F00006F6F60606F6F606367666860606F6F67E
:100300000686E6663636363666E68606FEFEFEFE6D
:10031000FE00988C86868686868C988C8686868655
:10032000868C988C86868686868C988C8686868631
:10033000868C980111116D111101010111116D11BE
:100340001101010111116D111101010111116D1145
:10035000110101000038383838381F0F00FFFFE066
:10036000783E27313C3F0F838FBF3C38200F3F3012
:10037000303F3F30B03F8F000E1FBFB1B1303F3F25
:1003800080879F98B0B0B0B0989F8780FFFFFFFF35
:10039000FF00010111116D111101010111116D1108
:1003A0001101010111116D111101010111116D11E5
:1003B000110101000000000000000000000000002A
:1003C000000000000000000000000000000000002D
:1003D000000000000000000000000000000000001D
:1003E000040404040404000A0A0A151500040404A1
:1003F00004040002070302001C1310101010000078
:100400000F0F0F0F0F0F0F0F0F0F0F8FFFFFFFFFBC
:10041000FF000000000000000000000000000000DD
:1004200000000000000000000000000000000000CC
:1004300000000000000000000000000000000000BC
:1004400000000000000000000000000000000000AC
:100450000000000000202070787E7E7E7E7E7E7E02
:100460007E7E7E7E7E7E7E7E7E7E7E7E7E7E7E7EAC
:100470007E7E7E7E7E7E7E7E7E7E7E7E7E7E7E7E9C
:100480007E7E7E7E7E7E7E7E7E3E3F3F1F0F07030A
:10049000000000000000000000000000000000005C
:1004A000000000000000000000000000000000004C
:1004B00000000000AE000101010101010101010283
:1004C0000202020202020202030303030303030304
:1004D00004040404040404050505050506060606CF
:1004E00006070707070708080808090909090A0A8B
:1004F0000A0B0B0B0C0C0C0D0D0D0E0E0E0F0F0F2F
:1005000010101111111212131314141515161617B9
:1005100017181819191A1A1B1B1C1D1D1E1E1F2027
:1005200020212222232424252626272829292A2B74
:100530002C2D2D2E2F303132323334353637383999
:100540003A3B3C3D3E3F4041424344454647484993
:100550004A4C4D4E4F50515354555658595A5B5D65
:100560005E5F616264656668696B6C6D6F70727303
:100570007577787A7B7D7E8082838587888A8C8E6A
:100580008F91939596989A9C9EA0A2A3A5A7A9AB9C
:10059000ADAFB1B3B5B7BABCBEC0C2C4C6C9CBCD8E
:1005A000CFD1D4D6D8DBDDDFE2E4E7E9EBEEF0F340
:1005B000F5F8FAFDFF14001A0008001500170000F6
:1005C0000004001600070009000A0000001D001BBF
:1005D000000600190005002C00E100E000E300E245
:1005E00000625D635D00001C0018000C0012001327
:1005F0000035000B000D000E000F00330028001125
:100600000010003600370038002A004C00E600E7F2
:1006100000E400035101000100010001000100009D
:1006200000010001000100010001000100010001C2
:1006300000010001000100010001000100010001B2
:1006400000000001000000010001000100010001A4
:100650000001000100010001000100010001000192
:100660000001000100010001000100010001000182
:10067000000100010029001E001F002000210000D1
:10068000002B002F0030001D0110000100E10005CB
:100690000013001D6308000100E00001001B00E2E0
:1006A0000000000100000001000100010001000144
:1006B0000001000100010001000100010001000132
:1006C000001B0106011901160101000100010001D2
:1006D00000010001001E001F002000210022000078
:1006E0000001000100010001002D000100010001D6
:1006F00000010001002F00010001000100010001C4
:10070000000000010000002300240025002600272F
:100710000001002E00010001000100310001003045
:1007200000010001000100010001000100010001C1
:10073000000100010007087F0807003E5B4F5B3E99
:10074000003E6B4F6B3E001C3E7C3E1C00183C7E06
:100750003C18001C577D571C001C5E7F5E1C00006F
:10076000183C180000FFE7C3E7FF0000182418003A
:1007700000FFE7DBE7FF0030483A060E0026297944
:10078000292600407F05050700407F05253F005AC8
:100790003CE73C5A007F3E1C1C0800081C1C3E7FA6
:1007A0000014227F2214005F5F005F5F0006097F54
:1007B000017F00006689956A006060606060009457
:1007C000A2FFA2940008047E04080010207E2010DE
:1007D0000008082A1C0800081C2A0808001E10101F
:1007E0001010000C1E0C1E0C0030383E3830000675
:1007F0000E3E0E060000000000000000005F00003A
:1008000000000700070000147F147F1400242A7FD3
:100810002A12002313086462003649562050000053
:100820000807030000001C224100000041221C00B8
:10083000002A1C7F1C2A0008083E0808000080705F
:100840003000000808080808000000606000002070
:1008500010080402003E5149453E0000427F40001E
:10086000007249494946002141494D33001814128C
:100870007F10002745454539003C4A494931004130
:100880002111090700364949493600464949291EC0
:1008900000000014000000004034000000000814B4
:1008A0002241001414141414000041221408000200
:1008B00001590906003E415D594E007C1211127C1F
:1008C000007F49494936003E41414122007F414174
:1008D000413E007F49494941007F09090901003E25
:1008E00041415173007F0808087F0000417F4100AB
:1008F000002040413F01007F08142241007F40401A
:100900004040007F021C027F007F0408107F003EF1
:100910004141413E007F09090906003E4151215EE7
:10092000007F091929460026494949320003017F01
:100930000103003F4040403F001F2040201F003F78
:100940004038403F00631408146300030478040334
:10095000006159494D4300007F41414100020408B4
:10096000102000004141417F0004020102040040C8
:1009700040404040000003070800002054547840E5
:10098000007F284444380038444444280038444414
:10099000287F0038545454180000087E09020018BB
:1009A000A4A49C78007F080404780000447D4000E3
:1009B000002040403D00007F102844000000417F9F
:1009C0004000007C04780478007C08040478003837
:1009D0004444443800FC182424180018242418FC2B
:1009E000007C080404080048545454240004043FC4
:1009F0004424003C4040207C001C2040201C003C43
:100A00004030403C004428102844004C9090907C9A
:100A1000004464544C440000083641000000007754
:100A20000000000041360800000201020402003C00
:100A30002623263C00000000000000404040F0F863
:100A4000F8FF38FFF8F83FF8F8FF38FFF8F8F04003
:100A5000404000000000000080C0C0C0800000C016
:100A6000C08000000080C0C000C0C0000080C0C0C6
:100A70000000000000C0C0C0C0C000C0C000000036
:100A80000000000000000000000000000000000066
:100A90000000000000000000000000000000000056
:100AA0000000000000000000000000000000000046
:100AB00000000000C0F0F8FC3E1E06010000007FB0
:100AC0004141417F007F4141417F000080C0E07E85
:100AD0005B4F5BFEC00000C000DCD7DEDEDED7DC93
:100AE00000C0000000000000000000000000000046
:100AF0000000000000000000000000494949FFFF1D
:100B0000FFFFE0DFBFBF00BFBFDFE0FFFFFFFF4928
:100B1000494900000000001F3F6060E0BF1F007FE8
:100B20007F071E381E077F7F007F7F0E1F3B71608F
:100B300000000000007F7F0C0C0C007E7E007F7E9A
:100B40000303007F7E03037E7E03037F7E000F3E50
:100B5000703C063C703E0F00327B49493F7E007F6F
:100B60007E0303001E3F69696F260000000000003D
:100B700000000000030F1F3F3C7870600000007F02
:100B80004141417F007F4141417F00307B7F783090
:100B9000202030787F3B0003000F7F0F0F0F7F0F67
:100BA0000003000000000000000000000000000042
:100BB0000000000000000000000000010101070F1C
:100BC0000F7F0F7F0F0F7E0F0F7F0F7F0F0F07011C
:100BD0000101000000000000000000000101000011
:100BE0000000000000000000000000000000000005
:100BF00000000000000000000000000000000000F5
:100C000000000000000000000000000000000000E4
:100C100000000000000000000000000000000000D4
:100C200000000000000000000000000000000000C4
:100C300000000000000000000000000000000000B4
:100C400000000000000000000000000000000000A4
:100C50000000000000000000000000000000000094
:100C60000000000000000000000000000000000084
:100C7000000000000000AF09027400040100A0FAA7
:100C800009040000010301010009211101000122F2
:100C900040000705810308000A090401000203005F
:100CA0000000092111010001222200070582032012
:100CB00000010705030320000109040200010300ED
:100CC00000000921110100012249000705840320C9
:100CD000000A0904030001030000000921110100BA
:100CE00001221A000705850308000A12010002000C
:100CF000000008464346430100010200011003665C
:100D0000006F0072006D0079003400360000000EA4
:100D1000036D00610072006200790033000000047E
:100D20000309040011241FBECFEFDAE0DEBFCDBF00
:100D300004B603FE27C080915D0590915E05A091E9
:100D40005F05B09160058730904BA740B04BD1F460
:100D500010925D0510925E0510925F05109260057D
:100D600014BE84B7877F84BF0FB6F894A89580918E
:100D70006000886180936000109260000FBEE0E028
:100D8000F8E3099511E0A0E0B1E0E2E3F6E602C085
:100D900005900D92A239B107D9F725E0A2E9B1E09B
:100DA00001C01D92AD35B207E1F70E94B2260C9446
:100DB000E0320C940000E8EDF0E080818E7F8083CB
:100DC0001092E2001092DA001092E100A0EEB0E082
:100DD0008C9181608C9380818F77808319BCA7ED83
:100DE000B0E08C918E7F8C9380818F7E8083109277
:100DF0003A0508952091E4003091E50095E6A901B7
:100E00002091EC00822F817020FF06C08091E800C5
:100E100080FF06C080E008952091E80022FD1AC0FE
:100E200080914705882389F0853089F08091EB0017
:100E300085FD0FC02091E4003091E5004217530773
:100E4000F9F29150E1F684E0089582E0089583E09C
:100E5000089581E00895EF92FF920F931F93CF932F
:100E60007C018B010E94FA06C82F811117C0809166
:100E7000E80085FD0BC08091E8008E778093E80044
:100E80000E94FA06882399F3C82F08C0F7018191C0
:100E90007F018093F1000150110949F78C2FCF9108
:100EA0001F910F91FF90EF9008958091490587FF62
:100EB00013C08091E80082FF06C08091E8008B7724
:100EC0008093E80004C0809147058111F2CF089516
:100ED000809147058823D9F38091E80080FFF8CFFF
:100EE0008091E8008E77ECCF982F9093E900242F23
:100EF000762F50E0891731F07091EC002091ED00D1
:100F00005091F00021FD07C09F5F973071F78093EB
:100F1000E90081E008953091EB003E7F3093EB00D3
:100F20003091ED003D7F3093ED003091EB0031606A
:100F30003093EB007093EC002093ED005093F000A1
:100F40002091EE0027FDE0CF80E00895CF92DF9260
:100F5000EF92FF920F931F93CF93DF93C8EDD0E0F2
:100F600088818F7E8883E7EDF0E0808181608083D7
:100F700084E082BF81E080933A0588818E7F8883F8
:100F800002EE10E0F80110821092DA0081EEC82E15
:100F9000D12CF601108288818F77888388818068C0
:100FA000888388818F7D888319BC109247051092B1
:100FB0004805109246051092450590EEE92EF12C59
:100FC000F70180818B7F808388818160888342E004
:100FD00060E080E00E947407F60180818E7F80834C
:100FE000F801808181608083808188608083F7013F
:100FF00080818E7F8083888180618883DF91CF911B
:101000001F910F91FF90EF90DF90CF900895FC011A
:1010100080914F059091500586179707A0F06115B4
:10102000710529F49091E8009E779093E80090E094
:101030006115710551F4911108C08091E80082FF9B
:1010400034C080E00895BC01F2CF80914705882329
:10105000C1F18530C1F18091E80083FD30C08091FD
:10106000E80082FDEACF8091E80080FFE1CF809127
:10107000F3002091F200382F6115710519F0283026
:10108000310558F091E02830310509F090E02091C9
:10109000E8002E772093E800CBCF81918093F10078
:1010A000615071092F5F3F4FE7CF8091470588233B
:1010B00041F0853041F08091E80083FFBECF81E0B0
:1010C000089582E0089583E0089508950895809139
:1010D0003C05089587E797E79093010880930008FF
:1010E00088E19AE00FB6F894A895809360000FBE4F
:1010F00090936000FFCF2FB7F89460913605709100
:10110000370580913805909139052FBF08959C01CE
:10111000FC0132969FEF80E04191461751F09F3FCE
:1011200019F4411101C0982F8F5F8630A9F79F3FB6
:1011300009F40895290F311D97FD3A95F90162834D
:101140000895E0913305F0913405309739F022E0AD
:10115000DC012C930480F581E02D09940895FC01B5
:10116000680F791F8FEF91E32191822728E030E00B
:1011700087FF09C0880F892721503109C9F7E61771
:10118000F70791F70895880FF7CFFA01811101C091
:10119000FB01099480911C03982F9E7F39F4809164
:1011A0001C038170826080931C0308958430B8F71B
:1011B000089530918B0220918C0290918D02809144
:1011C0008E02709185026091860240918702509153
:1011D0008802F0918A02E0918402FE1313C0332347
:1011E00011F037130FC0222311F026130BC08823F0
:1011F00011F0851307C0992319F081E0941303C0FF
:1012000080E001C081E080FF04C089E892E00E9494
:10121000A10810928B0210928C0210928D021092F3
:101220008E0286E0E9E8F2E0A3E8B2E001900D92D8
:101230008A95E1F7089540917F02803F59F48091AB
:10124000800287FF0DC01092800241110BC01092E6
:10125000770208C0813F81F48091800218169CF3C8
:10126000442381F08091810290918202892B09F0C0
:101270005AC0109276020895823F49F447FFF0CF9A
:1012800010927F02809180028111ECCFE0CF833FEA
:1012900019F41416ACF3E4CF90918102893F29F43C
:1012A0001916F4F610928102DBCF8A3F19F497FFEA
:1012B000D7CFF8CF909182028B3F29F497FFD0CF00
:1012C00010928202CDCF8C3F19F41916CCF3C8CFFF
:1012D0009CE0980F953090F4845F990B21E030E00A
:1012E000B90102C0660F771F8A95E2F7CB0180959E
:1012F00090917E02892380937E02B2CF8D3F31F49C
:10130000809178028E7F80937802AACF8E3F21F45D
:10131000809178028D7FF7CF8F3F09F0A1CF809128
:1013200078028B7FF0CF08958091780280FD16C0FF
:1013300081FD16C082FD16C0809176028823A1F03F
:10134000883280F428E0829FC001112468E270E0B6
:101350000E945832862F672B39F0089582E0089555
:1013600084E0089588E0089581E0089580917802EE
:1013700080FD14C081FD14C082FD16C080917702EB
:10138000882381F0843180F422E3829FC0011124FC
:1013900064E170E00E945832862F08958CE0089531
:1013A00089E1089585E0089582E30895803F31F44E
:1013B0000E94B6098195809380020895813F19F4B7
:1013C0000E94B609F8CF823F31F40E94B609819598
:1013D00080937F020895833F19F40E94B609F8CFE5
:1013E000893F29F40E9494098093810208958A3FDD
:1013F00021F40E9494098195F7CF8B3F31F40E942C
:10140000940981958093820208958C3F19F40E947B
:101410009409F8CF9CE0980F953070F4845F990B95
:1014200021E030E001C0220F8A95EAF780917E0228
:10143000822B80937E0208958D3F31F48091780253
:1014400081608093780208958E3F21F48091780224
:101450008260F7CF8F3FB9F7809178028460F1CF37
:1014600080E0089578940895F894E82FE295EF705D
:10147000F0E031A1282F2F7081E090E001C0880FAB
:101480002A95EAF7982F9095932391A392A1892BFF
:1014900082A30C94320A9091280292FF06C0282F52
:1014A00028712830F9F4877F846093FF06C0282FC5
:1014B00028712831F1F4877E84612091290220FF70
:1014C00006C0382F38713830D9F4877F816021FF0A
:1014D00006C0282F28712831D1F4877E816194FDC0
:1014E000877E0895282F24712430F9F68B7F886039
:1014F000DCCF282F2471243101F78B7E8861DDCF6A
:10150000382F3171313019F78E7F8860E0CF282F66
:101510002171213121F78E7E8861E1CFCF93DF9356
:10152000EC018238910589F1B8F58133910509F410
:1015300092C028F58932910509F486C08A9709F48A
:1015400091C0C11522E5D20708F0AAC0C11531E546
:10155000D30708F014C1CF3FD10511F008F090C0B7
:10156000C03FD10508F0E9C0C53AD10508F081C0F7
:10157000C430D105F8F4C130D105E1F040C0853365
:10158000910509F45AC0C997E1F680912802837049
:1015900089F0C0EED0E00EC0833E910599F170F461
:1015A000803E910501F1823E910559F68091280215
:1015B00082FD21C0CE01DF91CF910895863E910535
:1015C00061F1873E910571F1843E910509F0B9CF33
:1015D0008091290281FFEECF80912802C7EED0E0F2
:1015E00084FD0DC0E7CF8091280280FDF9C0909165
:1015F000290290FFDFCFC3EED0E084FFDBCFD0E045
:10160000C0E0D8CF8091280282FDEDC090912902E0
:1016100090FDBFCF84FFCECFF2CF8091280283FD13
:10162000DDCFC8CF8091280283FDE0C090912902D0
:1016300091FFF0CFC4EED0E0BDCF8091280285FFAE
:10164000B9CFC9E2D0E0B6CF8091280285FFB2CFF2
:10165000C5E3D0E0AFCF8091280286FFABCFCAE2CE
:10166000D0E0A8CF8091280286FFA4CFC1E3D0E0CC
:10167000A1CFCE01815E9109079708F49BCFBFCF20
:10168000C11540E5D40708F05DC0C11580E4D80756
:1016900008F055C0C11590E2D90708F48BCFAFCF41
:1016A000C11526E5D20718F5C11535E5D30708F0B1
:1016B0007EC0C11544E5D40708F074C09C2F9695F0
:1016C00096959E0123703327C115D34508F45CC05D
:1016D000C1E0D0E002C0CC0FDD1F2A95E2F730E276
:1016E000939FC0011124C82BD92BDA6863CFC11591
:1016F0009AE5D90778F4C11529E5D20708F062C048
:10170000C11538E5D30708F47ACFDC2FCC27C06F9A
:10171000D06A50CFCE0190568115904208F06FCF1D
:101720008D2F8F710E944B0A90E0982F8827882771
:101730009F719C012C2BE90143C0D0653BCFDF702A
:10174000D06A38CFCE01E4E096958795EA95E1F727
:1017500083702C2F26952695237090E2299F900167
:101760001124382B8C2F8370C1E0D0E002C0CC0F45
:10177000DD1F8A95E2F7C22BD32BDC681BCFDC2F51
:10178000CC27C16FD06A16CFC1E0D0E002C0CC0F29
:10179000DD1F2A95E2F720E2929FC0011124C82B99
:1017A000D92BEBCFDC2FCC27C46FD06A03CF8C2F83
:1017B0000E944B0AC82FD0E0DC2FCC27CC27DF714A
:1017C000D062F8CE8C2F8F700E944B0A34E0D695F1
:1017D000C7953A95E1F7CF709C2FEC01D069EACE1E
:1017E000C9E3D0E0E7CEC2EED0E0E4CEC6EED0E072
:1017F000E1CE0C947B088091F00181111092F001F0
:1018000008958091EF019091EE01892B9091ED0167
:10181000892B809394019091F001992391F0892B69
:101820008093940120E086E991E0FC013191CF01A1
:1018300031112F5FF1E08C399F07B9F721110E9418
:10184000FB0BE0913305F0913405309731F00280C5
:10185000F381E02D84E991E0099408958091EB01F2
:101860009091BA01981301C008958F5F8770FACFE5
:10187000E92FEE0FE90FEE0F8E0F982F97708695D8
:101880008695869523E0829FF0011124EE55FE4F48
:1018900050E040E080E0219130E0092E02C0369512
:1018A00027950A94E2F721703327042E01C0220FF6
:1018B0000A94EAF7822B4F5F5F4F4330510559F787
:1018C0000895E92FEE0FE90FEE0F8E0F982F977006
:1018D00041E001C0440F9A95EAF786958695869572
:1018E00093E0899FF0011124EE55FE4F30E020E097
:1018F00070E05191DF011197CB01022E02C0969545
:1019000087950A94E2F7817081958527842385273E
:101910008C932F5F3F4F2330310559F7089588236B
:1019200041F080959091EE0189238093EE010C9413
:10193000010C0895882339F09091EE01982B909333
:10194000EE010C94010C0895882341F0809590914C
:10195000EF0189238093EF010C94010C08958823F3
:1019600039F09091EF01982B9093EF010C94010CBA
:101970000895982F92959F7011F0892F94E0282F49
:101980002695269511F09E5F822F869509F09F5F20
:10199000892F089580E00895853FF1F485E096E869
:1019A00090937A0090E890937B00806480937C0011
:1019B00080917A00806480937A0080917A0086FD1D
:1019C000FCCF809178002091790090917A009F77E8
:1019D00090937A00922F089584E0E1CF809158058A
:1019E0009091560590935B0580935C0585E080930C
:1019F000E9008FEF9091E800815095FD06C095EDCC
:101A00009A95F1F700008111F5CF8091E80085FFEC
:101A10000DC050E040E062E070E08BE595E00E9490
:101A20002B078091E8008E778093E80008959C0151
:101A300084E08093E9009FEF8091E800915085FD5C
:101A400006C085ED8A95F1F700009111F5CF8091E0
:101A5000E80085FF0CC050E040E066E070E0C9019E
:101A60000E942B078091E8008E778093E80008950C
:101A7000CF93DF93EC0181E08093E9008FEF9091A9
:101A8000E800815095FD06C095ED9A95F1F70000AC
:101A90008111F5CF8091E80085FF14C050E040E04F
:101AA00068E070E0CE010E942B078091E8008E77FD
:101AB0008093E80088E0FE01ADE3B5E001900D926F
:101AC0008A95E1F7DF91CF91089560914F01809160
:101AD0001C0380FF20C080914E0143E0849FC00121
:101AE00011248E569D4F539A2BB1277F3BB13860FE
:101AF0005FB7F894FC01649FE00DF11D1124BF0154
:101B000068177907D1F45FBF8FE594E00197F1F78B
:101B100000C000000895809150019091510123E090
:101B2000829FF0011124EE56FD4F8917A0F6118215
:101B3000108212828F5F3396F8CFFC014191CF0162
:101B4000E8E03BB9000000C047FF2BB9440F00009C
:101B500000C000C000C02BB900C0EA9591F7D0CFFB
:101B6000ECE1F3E080818E7F8083EFE8F2E0828118
:101B7000816082832FEF80E792E021508040904087
:101B8000E1F700C000000C94650D9F92AF92BF92E8
:101B9000CF92DF92EF92FF920F931F93CF93DF9339
:101BA0007C015B016A018091230201E010E08A3030
:101BB00010F40AE010E0C1E0D0E0F894B501C701EC
:101BC000F6010995982E0E94320A911004C02196C0
:101BD0000C171D076CF4892DDF91CF911F910F9188
:101BE000FF90EF90DF90CF90BF90AF909F900895BF
:101BF000CC9F9001CD9F300D300D112490E080E0FE
:101C000045E34A95F1F70000019682179307C1F763
:101C1000D4CF8091FB01811110C08091D8008061E8
:101C20008093D8008AE18A95F1F700C08091D900AD
:101C300080FF0AC081E08093FB0181E09091FB016D
:101C4000913009F080E0089582E08093FB010E94CA
:101C5000DB0610924705F1CF0E94090E882351F050
:101C6000E0913305F0913405309721F00190F08137
:101C7000E02D099480E00895CF92DF92EF92FF92D9
:101C80000F931F93CF93DF936C017B0164E670E0A9
:101C900088E70E94152FEC0197FD12C010E000E0CC
:101CA000F601E00FF11F849164E670E00E948F2F2F
:101CB000EC01892B29F40F5F1F4F0E151F0581F7CB
:101CC0000E941230CE01DF91CF911F910F91FF90B2
:101CD000EF90DF90CF900895CF93C0913105809120
:101CE00032058823D1F00E947B08605A75418F4FDE
:101CF0009F4F60932D0570932E0580932F05909331
:101D00003005C11108C062E070E085E79CE00E94E8
:101D10003C0E892B29F0C09131058C2FCF9108956D
:101D200081E080933105F7CF1F93CF93DF93162F78
:101D30008A3031F481E0DF91CF911F910C94390FFB
:101D40008D3011F480E0F7CFC0912B05D0912C0598
:101D500096E0FE01A5E2B5E001900D929A95E1F7BB
:101D6000803EA8F186E0FE0111928A95E9F7C091C4
:101D70002B05D0912C05111136C046E050E0BE0174
:101D800085E295E00E9482329E0125523340892BE4
:101D9000A9F52A5F3F4F40912203642F70E0C901EB
:101DA0000E943832481B463010F4240F311D211593
:101DB00072E0370710F030E020E02B5D3C4F3093AD
:101DC0002C0520932B05DF91CF911F910895F6E00C
:101DD0008F9FB00111246B5C784F46E050E0CE013C
:101DE0000E947932C4CF9E012A5F3F4FFE012E1719
:101DF0003F0719F2808180958193F9CFC90145E0B1
:101E0000969587954A95E1F741E050E0BA0102C006
:101E1000660F771F8A95E2F7CB01609123037091DB
:101E20002403862B972BB9016B5F7F4FE5E07695F6
:101E30006795EA95E1F702C0440F551F6A95E2F7EE
:101E4000842B952B9093240380932303A2CF1F937D
:101E5000CF93DF93EC01162FFE018491811104C012
:101E6000DF91CF911F910895612F0E94940E2196CA
:101E7000F3CFCF93382FE0912B05F0912C05E5524D
:101E8000F34020912203622F70E0CF010E9438328C
:101E9000281B822F332369F066E00E944C32C82F42
:101EA000C15010F4CF91089560E080E20E94940E3A
:101EB000F7CF9F01280F311D2115324018F080E027
:101EC000F0E0E0E08E0F9F2F911D8B5D9C4F909373
:101ED0002C0580932B05E6CFCF93DF93C7EAD1E0A3
:101EE00060E0CE010E94AC322196C11584E0D80793
:101EF000B9F7DF91CF9108956F927F928F929F9261
:101F0000AF92BF92CF92DF92EF92FF920F931F9307
:101F1000CF93DF9385EBC82E85E0D82E93E9E92E89
:101F2000F12CE701C056D10936011BC0F50185909F
:101F30009490692DC8010E94AC32682DC8010196A9
:101F40000E94AC3282E0A80EB11C0E5F1F4FC0177A
:101F5000D10761F78CE0680E711C2C96CE15DF0559
:101F600029F08E010C5011095301E0CF7E0180E66B
:101F7000E80EF11C80E6C80ED11C83E1E81682E071
:101F8000F80679F6DF91CF911F910F91FF90EF90B6
:101F9000DF90CF90BF90AF909F908F907F906F9089
:101FA0000895CF93C82F6FEF811161E283E290E033
:101FB0000E94AC326FEFC11161E184E290E00E94B7
:101FC000AC326FEFC11169E085E290E0CF910C94E3
:101FD000AC3280E00E94D10F60E086E290E00E9487
:101FE000AC320E947C0F0E946C0F81E00C94D10FE8
:101FF000CF93C0912902C2FB992790F9981781F0DD
:1020000080FBC2F9C09329026091280284E090E02D
:102010000E94AC326C2F82E290E0CF910C94AC32F3
:10202000CF9108950F931F93CF93DF93C42FD0E0E8
:10203000CC0FDD1F2CE0629FC00DD11D112430E6B6
:10204000839FC00DD11D1124CE0187960E94983226
:10205000082F10E0102F0027CE0188960E9498329A
:102060009801282BC901DF91CF911F910F910895FD
:10207000462F843038F4783028F4663018F4672F0F
:102080000C94121090E080E00895CF92DF92FF92BE
:102090000F931F93CF93DF936C01009154058091B0
:1020A000F101082BC7E0D0E010E0FC2EC8010C2E97
:1020B00002C0959587950A94E2F780FD0CC02197A0
:1020C000A0F7F12C8F2DDF91CF911F910F91FF90F1
:1020D000DF90CF900895B6018C2F0E9438100E9497
:1020E0008E0A019761F3EECFCF93DF93EC010E944C
:1020F0004510BE010E943810DF91CF910C948E0ADA
:10210000FC01808191810E947410292F2F7092957B
:102110009F7092509E3078F4E92FF0E0EE51FD4C24
:102120000C946C32803F19F020F4883E20F481E05A
:102130000895843FE1F380E00895883EC0F3813F35
:10214000D1F7F5CF822F869586958695089583E2FF
:1021500090E00E949832813289F484E290E00E94FB
:102160009832813159F485E290E00E94983291E0F2
:10217000893009F090E0892F8170089580E0FCCFCC
:10218000CF9384E090E00E949832C82F82E290E0E2
:102190000E949832982F8C2FCF910895CF92DF9282
:1021A000EF92FF926B017C010E94CA08B701A60161
:1021B00088E090E0FF90EF90DF90CF900C94BE32DB
:1021C0008F929F92AF92BF92CF92DF92EF92FF9247
:1021D0000F931F93CF93DF93D82FC62F142F822EE8
:1021E00000911C0300FFD5C0E02FE695F0E0E45815
:1021F000FE4F808180938F02802F8E7F8230D1F4BA
:10220000E42FF0E0EB54FB4F611144C02491F22F16
:10221000E22F00FF0FC0809150019091510133E0F7
:10222000839FD0011124AE56BD4F891708F4A7C073
:102230000E94650D80911D038D1308C080911E03BF
:102240008C1304C080911F03811729F080919102A3
:10225000826080939102D0931D03C0931E0310935C
:102260001F03882009F495C060911C0370911D0321
:1022700080911E0390911F03DF91CF911F910F91C9
:10228000FF90EF90DF90CF90BF90AF909F908F9096
:102290000C94CE10E62EF12CE4919E2ECE2ED12C55
:1022A00026E0D29FC00111242FEF30E0B9010E9437
:1022B00038328D2F90E0880F991FF5E5F69FA00129
:1022C000F79F500D1124841B950BB82EBB0CB80E34
:1022D000A9014E195F094C9DC0014D9D900D5C9D5B
:1022E000900D1124F92FCB9DA0011124452F5527C6
:1022F000D901A41BB50BAC9DA001AD9D500DBC9D9B
:10230000500D1124D901AB19B1095D01AE9CD0016A
:10231000AF9CB00DBE9CB00D1124AB2FBB272A1B68
:102320003B0B2C9DD0012D9DB00D3C9DB00D11247B
:102330002B2F62307105A1F050F46115710509F47D
:1023400068CF6130710581F0292FF52F62CF64309D
:10235000710569F080F06630710509F45ACFF4CF49
:102360002E2FE92FFB2F55CF2E2FE52F52CF292FC0
:10237000FE2FEB2F4ECFE92FF92D252F4ACF1196A7
:10238000EC9311972C931296FC9312978F5F1396F0
:102390004CCFDF91CF911F910F91FF90EF90DF9085
:1023A000CF90BF90AF909F908F900895ECE1F3E0B5
:1023B000438121E1421B08F440E021E062818181F8
:1023C0000C94E010ECE1F3E0438121E1420F08F4CA
:1023D0004FEF21E0628181810C94E010ECE1F3E0A9
:1023E000628121E1621B08F460E021E04381818188
:1023F0000C94E010ECE1F3E0628121E1620F08F45B
:102400006FEF21E0438181810C94E010ECE1F3E077
:10241000818121E04381628188500C94E010ECE1DD
:10242000F3E0818121E043816281885F0C94E010B8
:1024300080912003882319F08150809320036091BC
:102440001C0370911D0380911E0390911F030C9437
:10245000CE1080912003833018F48F5F8093200387
:1024600060911C0370911D0380911E0390911F03C6
:102470000C94CE1080911C0380FF1EC0817082607E
:1024800080931C0380919102816080939102662366
:1024900051F060911C0370911D0380911E03909177
:1024A0001F030E94CE1020E040911F0360911E0385
:1024B00080911D030C94E010089580911C03869573
:1024C000815009F481E061E00C943A1261E081E00E
:1024D0000C943A12ECE1F3E083E0808311828FEFF9
:1024E000828383831482AFE8B2E012968C911297B4
:1024F000836012968C9360817181828193810C94A8
:10250000CE1069EE7EEF90E080E00E94CA3260E07B
:1025100082E090E00E94AC3260E083E090E00E94B4
:10252000AC321092F10160E084E090E00E94AC32A5
:1025300060E082E290E00E94AC3260E085E090E0F2
:102540000E94AC3260E086E090E00E94AC326FEF17
:1025500087E090E00E94AC3240E050E0BA0188E0B1
:1025600090E00E94BE3260E08DE090E00E94AC32CC
:1025700040E050E0BA0188E190E00E94BE3260E0A5
:1025800087E190E00E94AC3240E050E0BA018CE17B
:1025900090E00E94BE3270E060E080E290E00E9435
:1025A000CA3240E050E0BA0188E190E00E94BE32B9
:1025B00080E00E94D10F0E94E90F40E050E0BA0194
:1025C0008FE090E00E94BE3240E050E0BA0183E12B
:1025D00090E00C94BE32CF93DF93CDB7DEB728974F
:1025E0000FB6F894DEBF0FBECDBF85E0ECE1F3E09F
:1025F000DE01119601900D928A95E1F780918F028C
:1026000090919002A09191028E839F83A887288544
:1026100040911F025091200260912102709122028C
:102620003FB7F8948091360590913705A091380511
:10263000B09139053FBF841B950BA60BB70B8436B1
:102640009105A105B10510F4222319F180913501FE
:1026500090913601845F9D4F4091340150E04930A4
:10266000510510F048E050E0BE016F5F7F4F0E94BF
:102670008F3285E090E00E948431892BB1F40E9472
:102680007B0860931F027093200280932102909335
:1026900022021092910281E028960FB6F894DEBFD4
:1026A0000FBECDBFDF91CF91089580E0F5CF0F939E
:1026B0001F93CF93DF9300D000D0CDB7DEB740910A
:1026C00008025091090260910A0270910B022FB723
:1026D000F8948091360590913705A0913805B09116
:1026E00039052FBF841B950BA60BB70B84369105BC
:1026F000A105B10588F10E94090E882379F10E9495
:102700007B086E5F7F4F8F4F9F4F69837A838B83E8
:102710009C8380912B0190912C01845F9D4F40916F
:102720002A0150E04530510510F044E050E0BE0170
:102730006F5F7F4F0E948F3284E090E00E9484316F
:10274000892BD9F40E947B086093080270930902D8
:1027500080930A0290930B0281E010C00E947B08D4
:102760000091240210912502209126023091270227
:10277000600F711F821F931FC4CF80E00F900F90D6
:102780000F900F90DF91CF911F910F9108956F924D
:102790007F928F929F92AF92BF92CF92DF92EF92F1
:1027A000FF920F931F93CF93DF930F92CDB7DEB7B6
:1027B000862E5A016901682E880F7708C3010E948E
:1027C0008431892B09F088C08AE0869DF001879DBD
:1027D000F00D1124E050FF4F458150E041155105A7
:1027E00011F041E050E08AE0869DF001879DF00DF8
:1027F0001124E050FF4F66817781645F7D4FCE01E9
:1028000001960E948F32F50140815181628173816E
:102810002FB7F8948091360590913705A09138052F
:10282000B09139052FBF841B950BA60BB70B8436CF
:102830009105A105B10540F4B701C8010E94AF0898
:102840009981891709F44FC0082C000C9908C4011C
:102850000E948431892B91F0B12C8B2D0F90DF9148
:10286000CF911F910F91FF90EF90DF90CF90BF908D
:10287000AF909F908F907F906F9008958AE0889D91
:10288000F001899DF00D1124E050FF4F458150E08B
:10289000E416F50608F4A7018AE0889DF001899DF9
:1028A000F00D1124E050FF4F66817781645F7D4F0A
:1028B000C6010E948F32B701C8010E94AF089981FA
:1028C0008913CACF0E947B08F501608371838283DC
:1028D0009383BB24B394C1CFB12CA701B801C60127
:1028E0000E948F32BACFBB24B394F7CFCF92DF923E
:1028F000EF92FF920F931F93CF93DF9300D000D0FE
:10290000CDB7DEB76B0184E0E82EF12C0DE012E0CC
:102910009E012F5F3F4F40E052E061E080E00E9467
:10292000C713882361F049815A816B817C81409370
:10293000FC015093FD016093FE017093FF014091F3
:10294000FC015091FD016091FE017091FF01F601C3
:1029500040835183628373830F900F900F900F9089
:10296000DF91CF911F910F91FF90EF90DF90CF906B
:10297000089590E080E00E94A632893E9E4F11F4B7
:102980000C94A71080E008951F920F920FB60F923B
:1029900011242F933F934F935F936F937F938F9364
:1029A0009F93AF93BF93EF93FF938091E10082FFDA
:1029B00009C08091E20082FF05C08091E1008B7F19
:1029C0008093E1008091DA0080FF24C08091D800DC
:1029D00080FF20C08091DA008E7F8093DA008091A2
:1029E000D90080FF9BC080E189BD82E189BD09B427
:1029F00000FEFDCF81E08093470580913A0581116B
:102A000009C00E94DB060E94A6078091E200846054
:102A10008093E2008091E10080FF17C08091E20086
:102A200080FF13C08091E2008E7F8093E20080914E
:102A3000E20080618093E2008091D8008062809300
:102A4000D80019BC85E0809347058091E10084FFA0
:102A500029C08091E20084FF25C080E189BD82E128
:102A600089BD89B5982F917080FFFBCF8091D800E8
:102A70008F7D8093D8008091E1008F7E8093E1006C
:102A80008091E2008F7E8093E2008091E20081607D
:102A90008093E20080914805882309F445C084E0D2
:102AA000809347058091E10083FF27C08091E20079
:102AB00083FF23C08091E100877F8093E10082E063
:102AC00080934705109248058091E1008E7F8093A6
:102AD000E1008091E2008E7F8093E2008091E2002D
:102AE00080618093E20042E060E080E00E94740731
:102AF0008091F00088608093F000FF91EF91BF918A
:102B0000AF919F918F917F916F915F914F913F9185
:102B10002F910F900FBE0F901F90189519BC109217
:102B2000470510923A0576CF8091E30087FD93E048
:102B300090934705B7CF78941F921FB61F92112428
:102B40008F939F93AF93BF938091360590913705F4
:102B5000A0913805B09139050196A11DB11D809352
:102B6000360590933705A0933805B0933905BF918A
:102B7000AF919F918F911F901FBE1F9018959C0140
:102B80004FB7F8948091360590913705A09138059C
:102B9000B09139054FBF821B930B08952FB7F8945E
:102BA0008091360590913705A0913805B09139058F
:102BB0002FBF08950E94CE159C0190917F028091B5
:102BC0008002982B21F030937C0220937B0290911D
:102BD000810280918202982B21F030937A02209317
:102BE00079028DE792E00C94A1081092EE01109208
:102BF000ED010E94010C86E0EDE7F2E0DF011D929D
:102C00008A95E9F710927702109276021092780274
:102C10000C94DA15809354050C94F51580915405A5
:102C2000982F9670963019F488600C940A16877F56
:102C3000FCCF21E030E001C0220F8A95EAF7209511
:102C40008091540582230C940A169091EC01809592
:102C500089238093EC01282F277039F4282F082E20
:102C6000000C330B9217130621F49091290292FF66
:102C700007C08595859585950E9419161092EC01DF
:102C8000089521E030E001C0220F8A95EAF7809193
:102C90005405822B0C940A168093F1010C94F515BF
:102CA0001092EF01E6E9F1E086E0DF011D928A95DE
:102CB000E9F70C94F5151F93CF93DF93CDB7DEB7EB
:102CC000AA970FB6F894DEBF0FBECDBF89E495E09A
:102CD0002091F100DC012D93CD01B5E081359B07FA
:102CE000B9F780914A05833009F471C0B8F4813096
:102CF00009F448C0823009F4B2C08091E80083FF33
:102D00003AC18091490590914A059A3008F033C143
:102D1000E92FF0E0E051FD4C0C946C328A3009F45C
:102D20008DC08B3009F470C0893039F78091490526
:102D3000813219F780914D0590914E05009711F061
:102D40000297D9F68091E800877F8093E800809110
:102D5000E80082FF37C09091F3008091F200029763
:102D600029F48091F1008B7F813021F48091F10072
:102D700080933C058091E8008B778093E8000E9467
:102D80005507BBCF80914905813A09F0B6CF8091B4
:102D9000E800877F8093E80080914D0590914E0573
:102DA000892B61F468E08DE395E070E00E940708EC
:102DB0008091E8008B778093E8009FCF60E090E0FF
:102DC00080E0F3CF809147058111C1CF96CF8091EC
:102DD0004905813A09F091CF80914D0590914E05BA
:102DE000892B09F08ACF8091E800877F8093E800E3
:102DF0008091E80080FFFCCF809153018093F10027
:102E00008091E8008E77B9CF80914905813209F031
:102E100074CF80914D0590914E05892B09F06DCFAF
:102E20008091E800877F8093E8000E945507809199
:102E30004B05809353010E9450165FCF8091490546
:102E4000813209F05ACF8091E800877F8093E800B3
:102E50000E94550780914C0580933B054ECF809191
:102E60004905813A09F049CF8091E800877F809336
:102E7000E8008091E80080FFFCCF80913B05BECF49
:102E8000803899F0823809F076C080914D058F70B6
:102E9000873008F070C08093E9008091EB0085FBDB
:102EA000882780F91092E90006C08091450590912D
:102EB0004605911182609091E800977F9093E80019
:102EC0008093F1001092F1008091E8008E77BAC1F2
:102ED000882309F4A7C1823009F04DC080914B05C9
:102EE0008111ABC180914D058F702FEF280F2630D7
:102EF00008F041C08093E9002091EB0020FF9DC1C4
:102F0000933031F48091EB0080628093EB0095C1A7
:102F10009091EB0090619093EB0021E030E001C0D4
:102F2000220F8A95EAF72093EA001092EA00809136
:102F3000EB008860EACF81111EC010914B051F770E
:102F40008091E3008078812B8093E3008091E800FA
:102F5000877F8093E8000E9455078091E80080FFFA
:102F6000FCCF8091E30080688093E30082E0111140
:102F700083E0809347058091E80083FF0AC0809139
:102F8000E800877F8093E8008091EB008062809367
:102F9000EB00AA960FB6F894DEBF0FBECDBFDF914F
:102FA000CF911F9108958058823028F720914B05CA
:102FB00030914C052C3DE3E03E07A1F583E08A8388
:102FC0008AE289834FB7F894DE01139620E03EE051
:102FD00051E2E32FF0E050935700E49120FF03C04B
:102FE000E295EF703F5FEF708E2F90E0EA30C0F017
:102FF000C7968D939D932F5F243159F74FBF8091D2
:10300000E800877F8093E8006AE270E0CE010196D5
:103010000E9407088091E8008B778093E800ABCF8F
:10302000C096E7CF80914D0590914E05432F5527CF
:103030004330510509F44AC078F54130510509F48F
:103040007AC084E790E0E7E7FCE04230510509F000
:1030500092CF2091E800277F2093E80020914F0530
:10306000309150058217930708F49C0140E0211528
:10307000310509F065C0411163C08091E80082FD0F
:10308000C9CF80914705882329F2853019F28091B4
:10309000E80083FFF2CFBECF4132510509F43CC0B6
:1030A0004232510509F067CF8430910508F063CFB3
:1030B000FC01EE0FFF1FEE57FE4F0190F081E02D57
:1030C00082589E4FDC018C9190E01AC0332721304A
:1030D0003105D1F02115310561F02230310509F0BB
:1030E0004ACFEDEFFCE0E4918E2F90E0EDEFFCE0B5
:1030F00007C0EFE1FDE0E4918E2F90E0EFE1FDE00D
:10310000009709F438CFA5CFEFE0FDE0E4918E2FD2
:1031100090E0EFE0FDE0F4CF8430910508F02BCF94
:10312000880F991FFC01E657FE4F0190F081E02DBA
:1031300089E090E08ECF82E190E0EBEEFCE089CF79
:1031400080914705882309F465CF853009F462CF63
:103150008091E80083FD5ECF8091E80082FD8DCFF5
:103160008091E80080FF83CF9091F3008091F2007E
:103170002115310519F08830910550F041E008978C
:1031800009F040E08091E8008E778093E8006FCFEF
:1031900044914093F1003196215031090196E8CFD6
:1031A000803809F0E8CE8091E800877F8093E800BE
:1031B000809148058093F10087CE8111DCCE10917B
:1031C0004B05123008F0D7CE8091E800877F8093BE
:1031D000E800109348050E945507112311F084E080
:1031E00005C08091E30087FDFACF81E08093470519
:1031F00042E061EC81E00E94740742E261EC84E00D
:103200000E94740742E261EC82E00E94740742E28D
:1032100060EC83E00E94740742E061EC85E00E946C
:103220007407A9CE80914B05813009F0A4CE81E0CE
:10323000933009F080E0809346051092E900809178
:10324000E800877F8093E8000E94550794CE1F9284
:103250000F920FB60F9211242F933F934F935F93CA
:103260006F937F938F939F93AF93BF93CF93DF938E
:10327000EF93FF93D091E900DF708091EC00C82FAD
:10328000C17080FDC0E81092E9008091F000877F56
:103290008093F00078940E945B161092E900809170
:1032A000F00088608093F000CD2BCF70C093E900D0
:1032B000FF91EF91DF91CF91BF91AF919F918F914E
:1032C0007F916F915F914F913F912F910F900FBE22
:1032D0000F901F901895882309F460C09CEF980FF9
:1032E000913A78F4E6E9F1E02CE931E09191891323
:1032F00003C0DF0111971C922E173F07B9F70C94FA
:10330000010C90E2980F983088F4877021E030E04B
:10331000A90102C0440F551F8A95E2F7CA018095A2
:103320009091EF0189238093EF01E9CF9BE5980FFE
:103330009330B0F480919E0190919F01892B71F19F
:1033400010929F0110929E01E0913305F091340597
:10335000309721F10680F781E02D90E080E009941C
:1033600098E5980F9731A0F48091A0019091A10168
:10337000892BA1F01092A1011092A001E0913305D8
:10338000F0913405309751F00084F185E02DE5CFC0
:10339000803F20F00E941B090C94DA150895CF930A
:1033A000DF93EC010E946B19CE010E94CA0C9E01B2
:1033B000205E31092830310510F0CD2B21F4DF914A
:1033C000CF910C94A40CDF91CF910C948F0CCF93E0
:1033D000C82F8823E1F18CEF8C0F813AF8F4E6E9ED
:1033E000F1E0DF018D91C81761F081E0AC39B807D9
:1033F000C9F76C2F84E991E00E948708CF910C9463
:10340000010C8191C81303C0DF0111971C9281E068
:10341000EC39F807B1F70E94010CEBCF80E28C0F7A
:10342000883068F4C77021E030E001C0220FCA95EF
:10343000EAF78091EF01822B8093EF01DFCFC03F4D
:1034400030F08C2F0E94D609CF910C94DA15CF91D1
:1034500008951F93CF93DF93182FD0E0C0E08933F6
:1034600011F4C0E5D0E0812F0E94E719209731F4D4
:10347000812FDF91CF911F910C946B198FE99FE001
:103480000197F1F700C000002197F0CF0F931F9331
:10349000CF93DF93C62FD42F022FFC018281882384
:1034A000A1F0609353050E94CE159093520580932E
:1034B0005105C77081E001C0880FCA95EAF7DF9116
:1034C000CF911F910F910C94AF0C8091530568130D
:1034D00035C080915105909152050E94BF15883CDE
:1034E000910560F510E21D0FCD17B9F080E28C0F49
:1034F000883040F4C77081E001C0880FCA95EAF7B0
:103500000E94A40C183048F481E09D2F977001C0F0
:10351000880F9A95EAF70E94AF0C802F0E94291A13
:10352000183098F4D77081E001C0880FDA95EAF777
:10353000DF91CF911F910F910C94A40CC77081E083
:1035400001C0880FCA95EAF7F3CFDF91CF911F91A1
:103550000F910895CF93C62F809154050E94B90C06
:103560008130E1F0882339F0823001F18330F1F1CC
:1035700080E0CF91089580912103882341F0CC23EE
:1035800021F082E00E940A16F3CF84E0FBCF89EF9E
:10359000C11101C08AEF0E94291AEACF809121034C
:1035A0008823A9F3C111F1CF81E0ECCF80912103F1
:1035B000882319F0C111F8CFE4CF80EECC2379F045
:1035C0000E94E71981EE0E94E7198DE10E94291AF5
:1035D00080EE0E946B1981EE0E946B19C9CF0E9488
:1035E000E7198DE10E94291A80EEF6CF8091210320
:1035F000882369F289EAC111CECF8AEACCCFCF9273
:10360000DF92EF92FF920F931F93CF93DF930F926E
:10361000CDB7DEB7EE24E394F12C02E112E09E0177
:103620002F5F3F4F44E052E063E082E00E94C71307
:10363000082F882321F1C09035028C2D90E09C0149
:103640002A5C3D4F79011981F9018081181BD12E27
:1036500080E00AC0DA94F70180818F5F808360E0A8
:103660008C2D0E94AA1A802F1D14A4F3912F17FDF0
:1036700090E0191B11110EC081110E94F90B802FCF
:103680000F90DF91CF911F910F91FF90EF90DF90FE
:10369000CF9008951F5FF70180818150808361E0A2
:1036A0008C2D0E94AA1A802FE5CFCF93DF93EC01D7
:1036B0000E94CA0C9E01205E31092830310510F0AD
:1036C000209739F40E94AF0C8C2FDF91CF910C948E
:1036D000E7190E949A0CF8CF3F924F925F926F9237
:1036E0007F928F929F92AF92BF92CF92DF92EF9292
:1036F000FF920F931F93CF93DF93CDB7DEB76297FF
:103700000FB6F894DEBF0FBECDBF8C01FC018381E4
:103710009481892B31F08081918189238F3F09F039
:10372000AFC662960FB6F894DEBF0FBECDBFDF9175
:10373000CF911F910F91FF90EF90DF90CF90BF90AE
:10374000AF909F908F907F906F905F904F903F9041
:1037500008950E944510F82E682F89819A810E9451
:10376000610C69817A818F2D0E9438107C01F801EB
:103770002281222309F476C682519F45409708F0A2
:1037800024C68FEF93E00E949832FEEEEF0E77EAA8
:10379000872E99249394882389F18091EC01877076
:1037A00009F4BFCFF8018281882309F4BACF82E0FF
:1037B00062960FB6F894DEBF0FBECDBFDF91CF91FA
:1037C0001F910F91FF90EF90DF90CF90BF90AF903F
:1037D0009F908F907F906F905F904F903F900C9450
:1037E0002516811424E09206C1F2C4010E94983289
:1037F000811101C0EA943FEF831A930AE110F1CFDF
:103800001C821B82442443946AE0362E74018FEF9D
:10381000E81AF80AC4010E94983289831A82882320
:1038200009F4BBCF9FEF980F933000F58A8349824C
:1038300092E0890E911CC7010E9498328B838823E5
:1038400009F4ABCFFE0131967F01F70120812223DD
:10385000E9F2213009F049C091818281913041F42F
:10386000F2E0EF0EF11C0E94291A09C04701EACFCD
:10387000923049F422E0E20EF11C0E94E7193FEF7A
:10388000E31AF30AE2CF933031F432E0E30EF11C95
:103890000E946B19F4CF943021F08FEFE81AF80AE8
:1038A000EECF92E0E90EF11C30E020E0B7016F5F4F
:1038B0007F4FF70141818053990B8A30910550F079
:1038C00021503109E0F28FE99FE00197F1F700C044
:1038D0000000F6CF329EF001339EF00D11249C01C2
:1038E0002E0F3F1F842F7B01E1CFE22FF0E0EF5539
:1038F000FE4F5490822F86958695869590E0FC0128
:10390000EF56FE4F64902770712C022E02C0759402
:1039100067940A94E2F7E1E06E227724FC01EF5706
:10392000FE4FA490B12C022E02C0B594A7940A9425
:10393000E2F7F1E0AF22BB24FC01EF58FE4FC49048
:10394000D12C02C0D594C7942A95E2F721E0C22277
:10395000DD246114710419F081EE0E94E719A114AD
:10396000B10419F086EE0E94E719852D0E94291AEC
:10397000AB2819F086EE0E946B19672819F081EECA
:103980000E946B19CD2809F47ACF8CE26CCF81E0CC
:103990000E9441160E940E1600CF81E00E94191667
:1039A000F9CF82E0F5CF222309F4F7CE80916302AC
:1039B0008F5F833019F080936302EFCE1092630221
:1039C000ECCE222309F494C18091210391E0892750
:1039D000809321031092530583E0E8168DE5F806E5
:1039E00008F072C09AEFE9169CE5F90630F4C701B9
:1039F00082509C45449708F06DC00E94C01090937F
:103A0000290280932802F0E1EF16FCE5FF0609F495
:103A100042C108F0B1C038E0E3163CE5F30609F412
:103A200024C108F081C094E0E9169CE5F90609F488
:103A30000AC108F06AC0F2E0EF16FCE5FF0609F4DF
:103A4000FCC080912802826023E0E2162CE5F20699
:103A500009F4F6C060912802F090290284E090E019
:103A60000E94AC326F2D82E290E00E94AC320E9444
:103A7000501693CEE5EFEE16ECE5FE06F1F0C8F039
:103A800036EFE3163CE5F30609F0D1C427E245EE34
:103A900066EE03C026E241EE61EEC8010E94461ABE
:103AA0007CCE27E245EE65EEF8CF26E241EE60EEF1
:103AB000F4CF27E245EE64EEF0CF26E241EE62EE6F
:103AC000ECCF28E241E0EFCFE1E6EE16EDE5FE06B1
:103AD00009F493CF36E1E3163CE5F30609F006C19D
:103AE000222309F4ACC48091EF018A7A91E009F4B1
:103AF00090E090939D0169E2811165E384E991E092
:103B00000E9487080E94010C48CE809128028061A3
:103B100036E0E3163CE5F30609F492C008F497C0DA
:103B20008091280280628CC0809128028D7F9CE069
:103B3000E9169CE5F90609F483C078F4809128021F
:103B40008C60FAE0EF16FCE5FF0609F479C008F492
:103B500090C0809128028E7F73C080912802877F59
:103B60003EE0E3163CE5F30609F46AC008F48BC0B6
:103B7000809128028F7E64C09CEFE9169CE5F906CF
:103B800009F485C068F5F4E1EF16FCE5FF0609F4D9
:103B90009AC060F432E1E3163CE5F30609F483C011
:103BA00008F47DC080912802837F4AC09AEFE9160D
:103BB0009CE5F90609F44FC008F053C0F5E1EF1693
:103BC000FCE5FF0609F046CF8091280282FB992789
:103BD00090F921E0922790FB82F990FB83F930C0A5
:103BE000E1142DE5F20609F464C090F48EEFE816B6
:103BF0008CE5F80609F443C0809129028D7F9FEF80
:103C0000E9169CE5F90650F1809129028C7F26C0C7
:103C1000E2E0EE16EDE5FE0609F464C008F45CC0CF
:103C200021E6E2162DE5F20609F014CF9091280264
:103C3000892F8F7E94FF806103C08091280281606C
:103C40008093280207CF809128028460F9CF809169
:103C500028028860F5CF8091290281608093290233
:103C6000F9CE809129028260F9CF80912802806488
:103C7000E7CF0E945016809128028068E1CF8091A2
:103C800029028360EBCF809128028B7FD9CF80916E
:103C900029028E7FE3CF809128028F7DD1CF809142
:103CA00028028F7BCDCF0E945016809128028F77FB
:103CB000C7CF80912902982F909591708E7F892B84
:103CC00090FB81F9CBCF0E94501690912802892F4A
:103CD00097FB87F98058B4CF61E08EE090E00E94B6
:103CE000AC32B8CE60E0F9CF85E3AEC3211120C07D
:103CF0008091EF01827299ECE9169CE5F90609F4CE
:103D0000C7C008F05EC0F5ECEF16FCE5FF0609F44D
:103D1000BAC0F0F593ECE9169CE5F90609F4A7C0E2
:103D200008F0ACC0F2ECEF16FCE5FF0609F475C034
:103D3000F701E850FD4580915A05482F4370E03265
:103D4000F10508F0B0C053E0F695E7955A95E1F714
:103D5000EB5AFA4F3081B7016770772781E090E026
:103D600001C0880F6A95EAF7222309F499C0832BD2
:103D70008083426080915A058C7F842B80935A0502
:103D80000E94EE0C80915A058D7F80935A058DC05C
:103D90004EEE51E16AEF71E127ECE2162CE5F206F6
:103DA00009F469C04FE052E166E072E138ECE316D5
:103DB0003CE5F30608F45FC04AEF51E16EEE71E1B5
:103DC0005AC09DECE9169CE5F90609F466C0C8F4F2
:103DD00048E152E169E272E1FBECEF16FCE5FF0617
:103DE00009F449C042EE51E166ED71E12CECE216B6
:103DF0002CE5F20608F43FC049E252E168E172E1C5
:103E00003AC036EDE3163CE5F30608F4C6CC8DE582
:103E1000E816F80609F4C1CC8BCF80911C0380FF13
:103E20001EC08E7F80931C0360911C0370911D0344
:103E300080911E0390911F030E94CE1080919102E9
:103E40008160809391029FEFE0E7F2E09150E040C3
:103E5000F040E1F700C000000E94650D9ECC81603B
:103E600080931C0361E086950E943A1296CC4DE542
:103E700052E166E672E10E94C5088FCC46E652E147
:103E80006DE572E1F8CF46E052E16FE072E1F3CF09
:103E900046ED51E162EE71E1EECF61E081E0E4CF09
:103EA0008095832365CF81FD6BCFF80182818823C4
:103EB00099F0FAE5EF16FDE5FF0609F476C008F083
:103EC0004FC0E1143CE5F30609F45FC08EEDE8163F
:103ED0008CE5F80609F466C0F8018281E080F18083
:103EE000882309F466C0C7010E944510D82E682FA8
:103EF000C7010E94610CB7018D2D0E9438100E94ED
:103F00008E0A7C01882EF801D280C580C2943FE0E1
:103F1000C3228091EC018770A1F0AD2CDD2091F0DF
:103F20008F2D807F803421F080E28E0D883048F024
:103F300082E00E9425168091EC018770AA24A39448
:103F40008111A12C9F2C92942FE09222FBE0F91575
:103F500008F46BC0E92DF0E0E650FD4C0C946C3297
:103F60009BE5E9169DE5F90611F1ECE5EE16EDE5A8
:103F7000FE0609F0B1CF8091290282FB882780F9E3
:103F800091E089270E94F80FA7CF0E945016FFEFFB
:103F900024E33CE0F15020403040E1F700C0000055
:103FA0000E946A080E948112F8CB81E0EBCF80E08A
:103FB000E9CFC7010E94380CD82E9DCF2F2D2F702E
:103FC000C22E8F2D807F19F0C29490EFC922DD2080
:103FD000C9F0CC2069F080E28E0D883010F081109D
:103FE0000BC08091EF01C82AC092EF010E94010C22
:103FF0008E2D0E94E71919C08091EE01C82AC09247
:10400000EE01F4CF8E2D0E946B19CC2071F0C0947C
:1040100080E28E0D883010F081103DC08091EF015C
:10402000C822C092EF010E94010CE92DE850FF0B5D
:10403000349710F40E942C0EAA2009F472CB8091C0
:10404000EC0180FD6ECBF8011282859585958595F2
:104050000E944116C8010E946C1B8091EC0185955D
:104060008595859562960FB6F894DEBF0FBECDBFDD
:10407000DF91CF911F910F91FF90EF90DF90CF9044
:10408000BF90AF909F908F907F906F905F904F9078
:104090003F900C9419168091EE01C822C092EE0157
:1040A000C2CF3F2D3F70B32E8F2D807F803219F00D
:1040B000B29480EFB822882071F081E0881681F1F7
:1040C000DD20D9F1CC2091F1F801858180FF90CFDE
:1040D0008F7085832BC0DD20B1F09091F0018B2D86
:1040E000892BC11003C00E94AF0C9FCFE1E0CE121C
:1040F000FACF2091290222FD98CF981709F495CF85
:104100008093F00192CFC11006C00E94FB0B8B2D53
:104110000E94A40C8ACFF1E0CF1609F486CFF5CF28
:10412000DD2031F025E02C1508F47FCF8B2DDBCF7F
:1041300034E03C1508F479CFEACFCC2041F3F9E321
:104140008F123CC12FEF37EE83E02150304080408A
:10415000E1F700C0000032C18E2DDD20C1F10E94C8
:10416000D609EE2DE45FFF0BE530F105B0F581E0F7
:1041700090E001C0880FEA95EAF726E0E9E8F2E06E
:10418000DE01179601900D922A95E1F726E0FE01D7
:104190003796DE011D9601900D922A95E1F728854C
:1041A000DD20C1F0822B8E8786E0FE013D96DE0188
:1041B000119601900D928A95E1F786E0FE01319605
:1041C000A9E8B2E001900D928A95E1F72ECF0E9406
:1041D0001B09C7CF80958223E6CF0E94DA1525CF31
:1041E0008F2D837091F5D11020CF4E2D429546959D
:1041F0004770440F440F8E2D8F70042E01C0880F1E
:104200000A94EAF72E2D2071E4FE07C02FE030E07B
:1042100001C0220F4A95EAF720953F2D3695369535
:104220003370323069F050F44091F101313029F0AF
:10423000822B84230E944C16F8CE842B822BFACF3B
:10424000282B8091F1018227F5CF8695DD2011F092
:104250008F2D8170882309F4E8CE4E2D4295469526
:104260004770440F440F8E2D8F70042E01C0880FAD
:104270000A94EAF72E2D2071E4FE07C02FE030E00B
:1042800001C0220F4A95EAF720953F2D36953695C5
:104290003370323069F050F440915405313029F0D8
:1042A000822B84230E940A16C0CE842B822BFACF45
:1042B000282B809154058227F5CFFF2DFF70FF2E0C
:1042C000DD2029F08F2F0E9441168E2D0CCF8E2DD0
:1042D0000E94A40C8F2D0E941916A7CE8E2D22EFBE
:1042E000821609F44AC0281570F030EF831631F1B8
:1042F00091EF8916D1F1DD2009F45BC0C11078CEB1
:104300008F2D8F7137C0E3EF8E16E1F1F4EF8F122E
:10431000F2CFDD2009F442C08F2D8F71F82E0E945C
:1043200041168091290282FD07C0E8E0FE9EC0018F
:10433000112483608093EC018F2D1CC0DD2081F05F
:1043400024E02C1508F471CE2F2D2F7181E090E020
:1043500001C0880F2A95EAF7909154058927A2CFCA
:1043600035E03C1508F461CEEFCF8F2D8F71DD2045
:1043700009F4B1CF0E94411658CE8F2D8F71DD20E8
:10438000C9F3A9CF80E0DD2009F48CCF9F2D9F7168
:1043900081E001C0880F9A95EAF784CF81E00E94FE
:1043A0002516F1E0FC1508F040CE82E00E942516AB
:1043B0003CCECC2039F0893309F4C4CE8E2D0E9436
:1043C0006B1933CE8F2D8F7186CFF0E1EF16FFE59D
:1043D000FF0609F4DCCA31E1E3163FE5F30609F410
:1043E000E0CA82E6E8168DE5F80609F4DCCA93E631
:1043F000E9169DE5F90609F4E4CAE3EFEE16ECE5EB
:10440000FE0609F452CB08F035CB38EDE3163CE557
:10441000F30609F446CB89EDE8168CE5F80609F4B5
:1044200050CB97EDE9169CE5F90609F433CB211141
:10443000D1CAF6E1EF16FCE5FF0609F059CC8091F0
:104440009D01811151CC89E2E6E9F1E02CE931E0EE
:104450009191891303C0DF0111971C922E173F071A
:10446000B9F750CB80E1E8168FE5F80609F495CA54
:1044700091E1E9169FE5F90609F0B3CF82E08ECA13
:1044800085E0DE01119601900D928A95E1F7F80121
:10449000228189819A8121115CC90E94380CF82EF1
:1044A00060C91F93CF93DF938091B901807FA9F4F6
:1044B0008091B601882389F08091EB01D091BA01F7
:1044C0006091B4017091B501A091B701B091B801AC
:1044D000C62FC72316E0D81304C0DF91CF911F91D8
:1044E000089590E0109711F0CF3F19F4019687706E
:1044F000F2CF189F9001199F300D1124F901E55456
:10450000FE4F41814713F2CF40814613EFCF4281E6
:104510004111ECCF438154814A1B5B0B483C510550
:1045200028F78091B9018F7080618093B901F901FA
:10453000E054FE4F80818F708061808384EB91E036
:104540000E946C1BDF91CF911F910C942E0CAF92A7
:10455000BF92CF92DF92EF92FF920F931F93CF9370
:10456000DF93CDB7DEB761970FB6F894DEBF0FBE0D
:10457000CDBF8C0185E0F801DE011D9601900D9202
:104580008A95E1F7F801E28084EBA82E81E0B82E4D
:104590006091B7017091B8016115710509F432C1DC
:1045A0009091B4014091B501892F84238F3F09F484
:1045B00029C120813181C380D480F090B601F601F9
:1045C000E61BF70BFF2009F4E8C08091B901582FD2
:1045D000507FE83CF10508F0ABC0511177C0FE2CCC
:1045E000431321C092131FC0E1101DC08F70806162
:1045F0008093B901C5010E946C1B8091B901F8013B
:1046000085838F2D61960FB6F894DEBF0FBECDBFA8
:10461000DF91CF911F910F91FF90EF90DF90CF909E
:10462000BF90AF900895CD2829F0822F83238F3F2C
:1046300009F003C180E0F82FF170DF2E80FF3CC04D
:104640008091EB014091BA0156E0841315C02D878B
:104650003E878D859E850E947410292F22952F708C
:104660002230F0F0243018F59F70F1F0F8019581B8
:10467000907FD1F4D12C1EC090E0589FF001599F3B
:10468000F00D1124E554FE4F6181361306C06081A0
:10469000261303C06281E6120FC001968770D5CF42
:1046A0009F7011F0882331F3805E883018F3C801C1
:1046B0000E946C1BFD2CA5CFEE2009F4A2CF8091A7
:1046C000B90181608093B901F12C9BCF431306C0DF
:1046D000921304C0F801EE2009F479C0C8010E94C9
:1046E0008010882309F1EE20F9F08091B901803221
:1046F00070F02091B4013091B50138872F8319866D
:10470000DB86CA868C87CE0107960E946C1B86E0EA
:10471000F801A4EBB1E001900D928A95E1F70E94B7
:104720005122FF24F3946DCFC8010E946C1BF9CF76
:1047300051110AC084EB91E00E946C1B86E0F501E8
:1047400011928A95E9F7C0CF43130FC092130DC0A1
:10475000E1100BC0F8018583C8010E946C1B86E044
:10476000F50111928A95E9F74CCFC8010E9480109B
:104770008823D1F2EE20C1F28091B901803238F263
:104780002091B4013091B5013A8329831B82DD82E7
:10479000CC828E83CE010196B8CFE83CF105F8F6C5
:1047A000FE2CEE2009F243131FC092131DC080910E
:1047B000B90180FD10C0982F907F69F0F8018583C2
:1047C000903F31F0982F907F905F8F70892B858379
:1047D000C8010E946C1B86E0F801A4EBB1E00190D7
:1047E0000D928A95E1F70DCFC8010E9480108111CA
:1047F0008ECF8091B90181608093B901C8010E9478
:104800006C1BFFCEEE2009F48FCFC8010E948010F0
:10481000F82E882309F488CF86E0F801A4EBB1E0F4
:1048200001900D928A95E1F78091B4019091B501C4
:104830000E9474100E945122E4CE81E08E25FBCEAE
:104840001F93CF93DF93CDB7DEB767970FB6F8947A
:10485000DEBF0FBECDBF4B8B5C8B6D8B7E8B8F8B8A
:1048600061111092EE011A8A198A85E0FE01739691
:10487000DE011D9601900D928A95E1F786E0FE011A
:104880003D96DE01179601900D928A95E1F7CE01D3
:1048900007960E94A722882389F016E08091EB01F9
:1048A0009091BA01891349C067960FB6F894DEBF9C
:1048B0000FBECDBFDF91CF911F91089586E0FE011D
:1048C0003796DE01119601900D928A95E1F78A855F
:1048D0009B85892B11F38F81988589238F3FE9F27E
:1048E0002091BA0130E0C901019687709927409163
:1048F000EB014817190671F40E9450161092BA0184
:104900001092EB0186E0E4EBF1E0DF011D928A9565
:10491000E9F7C3CF96E0929FD001939FB00D112489
:10492000A554BE4FFE01319601900D929A95E1F784
:104930008093BA010E942E0CB0CF819FC001112438
:1049400085549E4F0E94A722882309F4ADCF809101
:10495000EB0190E00196877099278093EB019ECF41
:104960009F92AF92BF92CF92DF92EF92FF920F93FE
:104970001F93CF93DF93CDB7DEB72C970FB6F89484
:10498000DEBF0FBECDBF8E010F5F1F4F88E0F80165
:1049900011928A95E9F786E5C82E81E0D82EF12C90
:1049A000E12CAA24A394B12CF60181916F018F3FD1
:1049B00009F44AC0F894E82FE295EF70F0E021A1E5
:1049C0008F70A50102C0440F551F8A95E2F7CA01F6
:1049D000922F982B91A392A18095892382A30E9464
:1049E000320A00C0EEE5F1E030E020E0912C419188
:1049F0004F3F09F470C0A42FA295AF70B0E090961D
:104A00008C9190E04F7002C0959587954A95E2F79A
:104A100080FD61C08A2D022E01C0880F0A94EAF73A
:104A2000982A2F5F3F4F2630310509F7F60131975D
:104A300080818F3F11F00E94340A50EA5A95F1F7B5
:104A4000F801EE0DFF1D90828FEFE81AF80AE4E0FE
:104A5000EE16F10409F0A8CF48E050E0B8018AE270
:104A600092E00E9482327C01892B41F088E0F801BB
:104A7000AAE2B2E001900D928A95E1F7109133021B
:104A8000E114F10451F181E08093F4010E94CE150C
:104A90009093F3018093F2018091F2019091F301E0
:104AA0000E94BF15059790F0E12FF0E0E259FD4F0D
:104AB00080912A02808380912B02818380912C0235
:104AC000828380912D0283831092F401EF2849F0B4
:104AD00081E090E064C080E0A3CF8091F401811177
:104AE000DBCF0E94090EF82EE0913302882309F4EF
:104AF0008DC019861A861B861C860E2F10E002595F
:104B00001D4F809123028A3008F05BC046E754E1D4
:104B1000BE01675F7F4FC8010E94C50D882309F45D
:104B200064C04FEF5AE1BE01675F7F4FC8010E942A
:104B3000C50D882309F459C047E553E1BE01675FFD
:104B40007F4FC8010E94C50D882309F44EC04BEE6B
:104B500052E1BE01675F7F4FC8010E94C50D8823E7
:104B600009F443C010922302A0913202B0E0A2598E
:104B7000BD4FBE01675F7F4F9E01235F3F4F80E0C7
:104B80004D91FB019191BF01491731F0AD014150A9
:104B90005109FA0190838F2D6217730789F72C96BC
:104BA0000FB6F894DEBF0FBECDBFDF91CF911F913E
:104BB0000F91FF90EF90DF90CF90BF90AF909F90BC
:104BC00008958091F5019091F6010E94BF15843FF0
:104BD000914008F09BCFE0913202F0E0E259FD4FA6
:104BE000108211821282138273CF809123028F3F31
:104BF00031F08F5F809323028A3008F4B5CF0E9492
:104C0000CE159093F6018093F501E5CFF0E0E259DF
:104C1000FD4FF89484E0ADE0B2E001900D928A95EA
:104C2000E1F764E070E08DE092E00E94AF088093CD
:104C30000C020E94320AF894E0913902F0E0EA5C3A
:104C4000FD4F808189878093120261E070E0CE0180
:104C500009960E94AF08809311020E94320AF894CC
:104C6000C0901302D0901402E0901502F09016024A
:104C70008091F7019091F801A091F901B091FA01AA
:104C8000C816D906EA06FB06D1F0C092F701D09209
:104C9000F801E092F901F092FA010E94090E8111E7
:104CA0000EC00E947B08C61AD70AE80AF90AC09209
:104CB0002402D0922502E0922602F09227020E945E
:104CC000320AF89480911E028823F1F080FF0DC013
:104CD0008091170280FF1CC090911C0391609093FB
:104CE0001C0360E086950E943A1280911E0281FFAB
:104CF00009C020E040911A026091190280911802C7
:104D00000E94E01010921E020E94320A80E047CFFB
:104D10000E94B00DEACF1F921FB61F9211248F93ED
:104D20009F93AF93BF9380913505811113C08091FC
:104D3000360590913705A0913805B0913905419617
:104D4000A11DB11D8093360590933705A0933805BA
:104D5000B0933905BF91AF919F918F911F901FBE66
:104D60001F901895CDB7DEB7EC970FB6F894DEBF5D
:104D70000FBECDBF84B7877F84BF0FB6F894A895C8
:104D800080916000886180936000109260000FBE87
:104D900080E890E00FB6F8948093610090936100F2
:104DA0000FBE85B7806885BF85B7806885BF80E303
:104DB0009AE090939301809392010E94DB060E94F7
:104DC000A6078091E20084608093E200789480914D
:104DD00047058823A1F01091E9001F709091EC0025
:104DE000892F817090FD80E8182B1092E900809146
:104DF000E80083FD0E945B161F701093E90082E0BB
:104E000084BD93E095BD9AEF97BD80936E0010929C
:104E100024021092250210922602109227020E946C
:104E2000A710811102C00E94E90F54985C9A219A40
:104E3000299825E02A95F1F7000089B12198299A4F
:104E400030EA3A95F1F790E024E0959587952A9518
:104E5000E1F780959095817080933C0180913C01B1
:104E6000882309F466C010924E0187E180934F01B8
:104E70000E94090E81110E94773080913C0180913F
:104E80003C0194E0811190E09093330284E0891B0F
:104E90008093320281E30E94340A83E30E94340A41
:104EA00082E30E94340A86E30E94340A0EE511E090
:104EB00084E6E82E81E0F82ED8018D918D018F3F98
:104EC00011F00E94340AE016F106B1F7EAE2F2E0CE
:104ED00082E392E0AEE6B2E011921D928E179F0738
:104EE000D9F70E94B914811102C00E94811282E098
:104EF00090E00E949832809365020E94C0109093C7
:104F00002902809328020E94B024EFE3FCE9319744
:104F1000F1F700C000000E94B02480916E0280FF73
:104F20000CC06FEF7FEF90E080E00E94CA320E94D9
:104F30006A0887E180934E0199CF83E090E00E9458
:104F400098320E944C160E94090E811102C00E94E4
:104F50007A300E94090E882309F485C183E080938A
:104F60005B0280FD82C180E8809322030E940F2FA4
:104F70006DE070E084E392E00E943C0E892BE9F53D
:104F800080915B0263E070E081FD71C181E392E09A
:104F90000E943C0E892B89F56DE070E081E292E081
:104FA0000E943C0E892B49F50E947B08605A75418E
:104FB0008F4F9F4F60932D0570932E0580932F0583
:104FC00090933005E5E2F3E080E092E0DF019C01A0
:104FD0001D9221503040E1F7F0932C05E0932B0512
:104FE0008FEF9FEF909324038093230381E08093BE
:104FF00032058093310510925C0280913402811158
:1050000036C00E94B914811104C00E9481120E940E
:105010006A1288E090E00E94A03260931C037093B3
:105020001D0380931E0390931F0380919102836060
:10503000809391026E7F71F40E946A1288E090E082
:105040000E94A03260931C0370931D0380931E0383
:1050500090931F030E94CA0880911C0380FF04C024
:1050600060E086950E943A1281E08093340286982F
:105070008E9A87988F9A8FB186FB882780F92FB1F7
:1050800030E0220F232F221F330B92E0232B09F451
:1050900090E0892B80933A0290913C0181E098271F
:1050A00090933902891B809335028DE391E09093B0
:1050B00034058093330518E1C12ED12C4424439448
:1050C000512C8091470500E112E1853009F408C1B7
:1050D0000E94B024A82E81110E947B08E6E6F2E02F
:1050E000AEE6B2E010E000E0902EED9081918E15DA
:1050F00009F405C18E25B12CFF24F394982F9F212C
:1051000009F4F8C00E94090E882399F0BDA69EA656
:10511000EF2081E009F480E08FA70E94CE15816026
:10512000782F99AB88AB4DA55EA56FA589A90E9484
:105130002024F801EA59FD4F8081F826F082E091A1
:105140003A02EE0FEE0FE0933A028FB186FB88270A
:1051500080F989AF1AAE8FB190E0880F892F881F30
:10516000990B009711F082E090E0A9ADBAAD8A2BBF
:10517000E82BE0933A0210913902EF70F0E0EC591D
:10518000FE4F808190913802890F80933802B12CB4
:1051900084306CF0E12FF0E0EA5CFD4F80818F5F9E
:1051A000808360E0812F0E94AA1ABB24B39480916F
:1051B00038028D3F6CF4E12FF0E0EA5CFD4F808116
:1051C0008150808361E0812F0E94AA1ABB24B3948E
:1051D00080913802082E000C990B64E070E00E9468
:1051E000583280933802B1100E94F90B8091320539
:1051F000882309F438C180915D0290915E020E947B
:10520000BF15C29708F4ABC00E94CE1590935E0202
:1052100080935D0285E293E090932C0580932B05AB
:105220000E94090E882309F46AC260E08CEA92E0C9
:105230000E94270F809154050E94B90C813009F417
:1052400025C2882309F472C0823009F432C2833047
:1052500009F442C260E081E492E00E94270F81E0FD
:105260000E94390F77C080E07ACE80E27DCE8EE258
:1052700092E08ECE80914705843011F11092350571
:1052800030E40FB6F894A895C09260000FBE30933A
:10529000600083B7817F846083BF83B7816083BFF1
:1052A0007894889583B78E7F83BF0FB6F894A895BE
:1052B00080916000886180936000109260000FBE52
:1052C00080914605882361F00E94B024EEE6F2E06A
:1052D0008191811143C586E792E08E179F07C1F740
:1052E00080914705853009F4C5CF0E9450160E9471
:1052F0002C0EEECEB394FF0C96E0B912FFCE0F5FEA
:105300001F4F0830110509F0EFCE8FEF8AAB8BAB42
:105310001CAA0E94CE158160782F9EAB8DAB4AA946
:105320005BA96CA98EA90E94202409CF61E086EABE
:1053300092E00E94270F60E080EA92E00E94270F2F
:1053400060E08AE992E00E94270F60E084E992E041
:105350000E94270F80913205882309F45FC02091B5
:105360002303309124032115310509F457C080919E
:105370005C02811153C0082F10E07201082E02C098
:10538000EE0CFF1C0A94E2F7A9014E215F21452B88
:1053900009F41AC290915B0290FD18C28295880FA1
:1053A0008076809349019801369527953695279503
:1053B00020934C01815E80934A0110924D0124E6B6
:1053C00030E047E050E067E471E088E70E94BE2FDC
:1053D000892B21F5A801F5E0440F551FFA95E1F757
:1053E00080915B0280FD00C24B5D5C4F04E610E0E3
:1053F00020E230E060E488E70E94E52F892B71F419
:105400000E946C0EE094F094809123039091240309
:10541000E822F922F0922403E092230380913105DF
:10542000882309F10E947B0800912D0510912E051B
:1054300020912F0530913005601B710B820B930B6F
:105440006F3F7F4F8F4F9F4770F4809132058823C5
:1054500051F062E070E083EB94E00E943C0E892BF7
:1054600011F410923105A11001C0B1100E946C0E10
:1054700086E0EDE7F2E0DE01119601900D928A954B
:10548000E1F7F0907F02E09080021091810200919C
:10549000820210927F02109280021092810210927A
:1054A00082028F2D8E2909F448C080917B02909151
:1054B0007C020E94BF159C0190917702992309F408
:1054C000A9C423333105C8F19F3F19F09F5F909322
:1054D0007702FF2059F00E94B6099FEF1F140CF4C9
:1054E00091E0899F802D112480937F02EE2059F056
:1054F0000E94B6099FEF1E140CF491E0899F802D45
:1055000011248093800230917F023323B1F02091E7
:105510008002222391F045EB3403C001112499232A
:1055200009F4C8C190937F0245EB24039001112434
:10553000332309F4C3C130938002812F802B09F4F7
:1055400048C08091790290917A020E94BF159C0117
:1055500090917602992309F458C425363105C8F193
:105560009F3F19F09F5F90937602112359F00E949C
:1055700094099FEF11160CF491E0899F802D11245E
:1055800080938102002359F00E9494099FEF101626
:105590000CF491E0899F802D112480938202309138
:1055A00081023323B1F020918202222391F045EB56
:1055B0003403C0011124992309F484C1909381021A
:1055C00045EB240390011124332309F47FC1309368
:1055D000820280917F0290918002892B90918102BA
:1055E000892B90918202892B11F00E94DA1586E0B6
:1055F000FE013196ADE7B2E001900D928A95E1F798
:105600000E94D90810916302113009F489C1112355
:1056100009F460C1123009F4C8C10E942C0E9091A7
:105620006402891721F00E942C0E809364028091FD
:105630004705843009F045CD83E08093E9008091EF
:10564000E80082FF3ECD8091E80090E085FF0CC02D
:105650000E94FA0640E2E42EF12C8E010F5F1F4FEC
:10566000882309F4EEC191E08091E8008B77809364
:10567000E800992309F425CDE981E150E33108F0F0
:1056800043C2F0E0EA5FFC4C0C946C3260E08EE8C0
:1056900092E00E94270F61E088E892E00E94270FC5
:1056A00060E082E892E00E94270F60E08CE792E0E1
:1056B0004FCE60E086E792E00E94270F60E080E72F
:1056C00092E00E94270F61E08AE692E00E94270F95
:1056D00060E084E692E03CCE60E08EE592E00E94DD
:1056E000270F60E088E592E00E94270F60E082E5E6
:1056F00092E00E94270F61E08CE492E029CE809135
:105700002B0590912C05855293409C013E5F2130E2
:105710003240E8F120E032E0281B390B40912303AE
:1057200050912403E3EBF2E0280F391F821793070F
:1057300088F15093240340932303809132058823FA
:1057400009F46CCE452B09F00ACE80915C028111E0
:1057500006CE198286E28A831B821C821D8287E024
:105760008E831F828FEF88878FE2898724E630E05F
:1057700049E050E0BE016F5F7F4F88E70E94BE2F77
:10578000892B09F0E7CD81E080935C02E3CD20E036
:1057900032E0C4CF6491DC01AB5DBC4F7C916717F4
:1057A00081F06C93BC01B5E076956795BA95E1F709
:1057B000D20102C0AA0FBB1F6A95E2F7BD014A2BB6
:1057C000572B01963196B2CF8F5FD5CD880F880FBA
:1057D000880F8093490110924C01895F80934A01A0
:1057E00083E080934D01EBCDEBE3F2E080E2DF015B
:1057F0001D928A95E9F7E8E7F1E0FCAFEBAF64E7CB
:1058000071E0E7E08E2EABADBCAD2D91BCAFABAF80
:10581000FB012190BF01240E352E311CC1018B5D8F
:105820009C4F1C01E22FF0E0E55CFD4F90E080E032
:10583000682C681A942C082E01C0990C0A94EAF777
:1058400038AE2FAA00E0AFA9B8AD1D91B8AFAFAB8D
:105850001921262D201B2770722E022E000C330BCF
:10586000B12F01C0BB0F7A94EAF77B2E31952195B9
:1058700031092770332701C016952A95EAF7712A56
:105880001081712A70820F5F0830E9F60196319617
:105890008830910569F6ECE7F1E02BAD3CADE217FD
:1058A000F30709F0B0CF04E610E020E230E04BE36C
:1058B00052E0A0CD81E080937F0236CE81E08093DC
:1058C00080023BCE81E0809381027ACE81E080939A
:1058D00082027FCE84EF0E94CC0C97FD03969595B3
:1058E0008795959587958058910990935705809352
:1058F000560585EF0E94CC0C97FD039695958795EC
:1059000095958795805891099093590580935805EE
:1059100080915A05826080935A050E94EE0C7DCEDC
:1059200080915F0281115AC285EF0E94CC0C8115D3
:10593000934034F010935F0281E590E00E94551B84
:105940008091600281113CC285EF0E94CC0C8130B5
:1059500091403CF481E08093600282E590E00E94F7
:10596000551B8091610281111DC284EF0E94CC0CF5
:10597000811593403CF081E0809361028FE490E0D8
:105980000E94551B809162028111FEC184EF0E942A
:10599000CC0C813091400CF040CE81E080936202CB
:1059A00080E590E00E94551B38CE86E0E9E8F2E001
:1059B000DE01919601900D928A95E1F786E0FE0155
:1059C000B196DE01979601900D928A95E1F784EFEA
:1059D0000E94CC0C9250B6010E945832162F062F0E
:1059E00085EF0E94CC0C9250B6010E945832862F4F
:1059F0001B5F1B3008F400E06B5F6B3008F480E045
:105A000009A78AA786E0FE01B796DE0111960190EC
:105A10000D928A95E1F786E0FE013196A9E8B2E0A1
:105A200001900D928A95E1F70E94D908F6CD8091F8
:105A3000F100D8018D938D01B1E0EB1AF10809F462
:105A400012CE8091E80085FDF2CF8091E8008B773F
:105A50008093E8000E94FA06882399F304CE1A8204
:105A600089E08B8311C08A81823009F4C5C18330FB
:105A700091F1813009F048C00E947B080E94723287
:105A80006B837C838D839E8380914705843009F0EE
:105A900018CB1091E9001F709091EC00892F817054
:105AA00090FD80E8182B82E08093E9008091E80067
:105AB00080FF0DC050E040E060E270E0CE01019652
:105AC0000E942B078091E8008E778093E8001F707A
:105AD0001093E900F6CADE011396EEE6F2E081913A
