:100000000C941C060C9463060C9463060C945E31ED
:100010000C9463060C9463060C9463060C946306BC
:100020000C9463060C9463060C9462150C94FC19F2
:100030000C9488260C9463060C9463060C94630657
:100040000C9463060C9463060C9463060C9463068C
:100050000C9463060C9439160C9463060C94630696
:100060000C9463060C9463060C9463060C9463066C
:100070000C9463060C9463060C9463060C9463065C
:100080000C9463060C9463060C9463060C9463064C
:100090000C9463060C9463060C9463060C9463063C
:1000A0000C9463060C9463060C9463060501090422
:1000B000A101A1000501093009311581257F9502B3
:1000C00075088102C0C005010902A101850209016C
:1000D000A1000509190129081500250195087501D8
:1000E00081020501093009311581257F95027508C6
:1000F000810609381581257F950175088106050C53
:100100000A38021581257F950175088106C0C00552
:10011000010906A101050719E029E7150025019548
:1001200008750181029501750881010507190029EB
:10013000FF150026FF0095067508810005081901C6
:100140002905950575019102950175039101C0146A
:10015000001A000800150017000000040016000730
:100160000009000A0000001D001B00060019000520
:10017000002C00E100E000E300E200635D645D004C
:10018000001C0018000C001200130035000B000DBD
:10019000000E000F00330028001100100036003759
:1001A0000038002A004C00E600E700E4000351019B
:1001B0000001000100010001000000010001000138
:1001C0000001000100010001000100010001000127
:1001D0000001000100010001000100000001000019
:1001E0000001000100010001000100010001000107
:1001F00000010001000100010001000100010001F7
:1002000000010001000100010001000100010029BE
:10021000001E001F002000210000002B002F0030D6
:10022000001D0110000100E100050013001D63081E
:10023000000100E00001001B00E2000000010000DE
:1002400000010001000100010001000100010001A6
:1002500000010001000100010001001B010601195D
:100260000116010100010001000100010001001E52
:10027000001F0020002100220000000100010001F9
:100280000001002D00010001000100010001002F0C
:100290000001000100010001000100000001000058
:1002A000002300240025002600270001002E000165
:1002B00000010001003100010030000100010001D7
:1002C0000001000100010001000100010001000027
:1002D000DA0281FFD9F1DB20A4A62EAF00A0C00076
:1002E000A1C800AED580A81FD300408D1420000007
:1002F0004C45443A0000556E646566696E65640A53
:100300000046756E630A00437265610A0047616DBD
:10031000650A004D61696E0A0046756E630A004306
:100320007265610A0047616D650A004D61696E0A78
:100330000046756E630A00437265610A0047616D8D
:10034000650A004D61696E0A0046756E630A0043D6
:100350007265610A0047616D650A004D61696E0A48
:10036000004D6F64653A0A008C86868686868C9876
:100370008C86868686868C988C86868686868C98E1
:100380008C86868686868C9800787CC6C6C6C6FC17
:10039000F8C0F8F8C0C0C0C0C00080E0F8FC9C0EF7
:1003A0000606F6F60606F6F60606F6F6063676664D
:1003B000860606F6F60686E6663636363666E6863D
:1003C00006FEFEFEFEFE00988C86868686868C984B
:1003D0008C86868686868C988C86868686868C9881
:1003E0008C86868686868C980111116D111101010B
:1003F0000111116D111101010111116D1111010195
:100400000111116D11110101000038383838381F01
:100410000F00FFFFE0783E27313C3F0F838FBF3C4A
:1004200038200F3F30303F3F30B03F8F000E1FBFAE
:10043000B1B1303F3F80879F98B0B0B0B0989F87F0
:1004400080FFFFFFFFFF00010111116D111101017C
:100450000111116D111101010111116D1111010134
:100460000111116D111101010000000000000000D8
:10047000000000000000000000000000000000007C
:10048000000000000000000000000000000000006C
:100490000000000000040404040404000A0A0A1511
:1004A000150004040404040002070302001C1310D6
:1004B00010101000000F0F0F0F0F0F0F0F0F0F0F67
:1004C0008FFFFFFFFFFF00000000000000000000A2
:1004D000000000000000000000000000000000001C
:1004E000000000000000000000000000000000000C
:1004F00000000000000000000000000000000000FC
:1005000000000000000000000000202070787E7EC7
:100510007E7E7E7E7E7E7E7E7E7E7E7E7E7E7E7EFB
:100520007E7E7E7E7E7E7E7E7E7E7E7E7E7E7E7EEB
:100530007E7E7E7E7E7E7E7E7E7E7E7E7E7E3E3F5A
:100540003F1F0F0703000000000000000000000034
:10055000000000000000000000000000000000009B
:10056000000000000000000000AE000101010101D8
:10057000010101010202020202020202020303035C
:10058000030303030304040404040404050505052C
:1005900005060606060607070707070808080809EC
:1005A0000909090A0A0A0B0B0B0C0C0C0D0D0D0E98
:1005B0000E0E0F0F0F10101111111212131314142D
:1005C000151516161717181819191A1A1B1B1C1DA2
:1005D0001D1E1E1F202021222223242425262627FB
:1005E0002829292A2B2C2D2D2E2F3031323233342D
:1005F00035363738393A3B3C3D3E3F404142434433
:1006000045464748494A4C4D4E4F50515354555614
:1006100058595A5B5D5E5F616264656668696B6CC0
:100620006D6F7072737577787A7B7D7E808283853B
:1006300087888A8C8E8F91939596989A9C9EA0A27B
:10064000A3A5A7A9ABADAFB1B3B5B7BABCBEC0C285
:10065000C4C6C9CBCDCFD1D4D6D8DBDDDFE2E4E749
:10066000E9EBEEF0F3F5F8FAFDFF07087F08070065
:100670003E5B4F5B3E003E6B4F6B3E001C3E7C3E44
:100680001C00183C7E3C18001C577D571C001C5E4B
:100690007F5E1C0000183C180000FFE7C3E7FF0066
:1006A000001824180000FFE7DBE7FF0030483A0697
:1006B0000E00262979292600407F05050700407F86
:1006C00005253F005A3CE73C5A007F3E1C1C0800B1
:1006D000081C1C3E7F0014227F2214005F5F005F15
:1006E0005F0006097F017F00006689956A006060EF
:1006F0006060600094A2FFA2940008047E040800D9
:1007000010207E20100008082A1C0800081C2A0857
:1007100008001E10101010000C1E0C1E0C003038AB
:100720003E383000060E3E0E0600000000000000BD
:1007300000005F000000000700070000147F147F26
:100740001400242A7F2A1200231308646200364909
:1007500056205000000807030000001C2241000042
:100760000041221C00002A1C7F1C2A0008083E08A9
:100770000800008070300000080808080800000029
:10078000606000002010080402003E5149453E0010
:1007900000427F4000007249494946002141494DCD
:1007A00033001814127F10002745454539003C4A94
:1007B00049493100412111090700364949493600AC
:1007C000464949291E000000140000000040340082
:1007D00000000008142241001414141414000041F5
:1007E000221408000201590906003E415D594E00DD
:1007F0007C1211127C007F49494936003E4141413B
:1008000022007F4141413E007F49494941007F0923
:10081000090901003E41415173007F0808087F002B
:1008200000417F4100002040413F01007F08142229
:1008300041007F40404040007F021C027F007F0457
:1008400008107F003E4141413E007F090909060032
:100850003E4151215E007F09192946002649494938
:10086000320003017F0103003F4040403F001F2052
:1008700040201F003F4038403F00631408146300CD
:100880000304780403006159494D4300007F41414E
:100890004100020408102000004141417F00040291
:1008A00001020400404040404000000307080000EF
:1008B0002054547840007F2844443800384444444D
:1008C0002800384444287F00385454541800000845
:1008D0007E09020018A4A49C78007F080404780014
:1008E00000447D4000002040403D00007F1028442F
:1008F000000000417F4000007C04780478007C0800
:1009000004047800384444443800FC1824241800B7
:1009100018242418FC007C0804040800485454548B
:10092000240004043F4424003C4040207C001C2060
:1009300040201C003C4030403C004428102844002B
:100940004C9090907C004464544C44000008364124
:10095000000000007700000000413608000002019E
:10096000020402003C2623263C0000000000000098
:10097000404040F0F8F8FF38FFF8F83FF8F8FF384B
:10098000FFF8F8F040404000000000000080C0C0C8
:10099000C0800000C0C08000000080C0C000C0C097
:1009A000000080C0C00000000000C0C0C0C0C00087
:1009B000C0C00000000000000000000000000000B7
:1009C0000000000000000000000000000000000027
:1009D0000000000000000000000000000000000017
:1009E000000000000000000000C0F0F8FC3E1E0601
:1009F000010000007F4141417F007F4141417F0074
:100A00000080C0E07E5B4F5BFEC00000C000DCD712
:100A1000DEDEDED7DC00C0000000000000000000C9
:100A200000000000000000000000000000000000C6
:100A3000494949FFFFFFFFE0DFBFBF00BFBFDFE065
:100A4000FFFFFFFF49494900000000001F3F6060B1
:100A5000E0BF1F007F7F071E381E077F7F007F7F5C
:100A60000E1F3B716000000000007F7F0C0C0C002B
:100A70007E7E007F7E0303007F7E03037E7E030372
:100A80007F7E000F3E703C063C703E0F00327B497B
:100A9000493F7E007F7E0303001E3F69696F260089
:100AA000000000000000000000030F1F3F3C7870B2
:100AB000600000007F4141417F007F4141417F0054
:100AC000307B7F7830202030787F3B0003000F7F21
:100AD0000F0F0F7F0F000300000000000000000058
:100AE0000000000000000000000000000000000006
:100AF000010101070F0F7F0F7F0F0F7E0F0F7F0F79
:100B00007F0F0F070101010000000000000000003E
:100B100000010100000000000000000000000000D3
:100B200000000000000000000000000000000000C5
:100B300000000000000000000000000000000000B5
:100B400000000000000000000000000000000000A5
:100B50000000000000000000000000000000000095
:100B60000000000000000000000000000000000085
:100B70000000000000000000000000000000000075
:100B80000000000000000000000000000000000065
:100B90000000000000000000000000000000000055
:100BA0000000000000000000000000AF0902540037
:100BB000030100A0FA09040000010301010009215A
:100BC000110100012240000705810308000A090401
:100BD0000100010300000009211101000122490068
:100BE0000705820320000A09040200010300000037
:100BF000092111010001221A000705830308000AD8
:100C000012010002000000084643464301000102B1
:100C10000001100366006F0072006D00790034005F
:100C2000360000000E036D00610072006200790062
:100C3000330000000403090411241FBECFEFDAE0E3
:100C4000DEBFCDBF04B603FE27C08091640690913D
:100C50006506A0916606B09167068730904BA74065
:100C6000B04BD1F41092640610926506109266069D
:100C70001092670614BE84B7877F84BF0FB6F894BE
:100C8000A895809160008861809360001092600058
:100C90000FBEE0E0F8E3099526E0AAE6B2E001C065
:100CA0001D92A436B207E1F712E0A0E0B1E0E2E95C
:100CB000FEE602C005900D92AA36B107D9F70E9450
:100CC000AF260C9418370C94000090915606937040
:100CD00051F0811109C0946090935606109258010A
:100CE00081E08093550608958B3010F09862F4CF20
:100CF000880F880F982BF0CF90915606937061F073
:100D00008093570660935806493708F048E74093A8
:100D1000590681E0809355060895E8EDF0E0808162
:100D20008E7F80831092E2001092DA001092E10030
:100D3000A0EEB0E08C9181608C9380818F7780836E
:100D400019BCA7EDB0E08C918E7F8C9380818F7E53
:100D500080831092370608952091E4003091E500D9
:100D600095E6A9012091EC00822F817020FF06C03A
:100D70008091E80080FF06C080E008952091E8009F
:100D800022FD1AC080914406882389F0853089F0BD
:100D90008091EB0085FD0FC02091E4003091E500CB
:100DA00042175307F9F29150E1F684E0089582E08A
:100DB000089583E0089581E00895EF92FF920F93E4
:100DC0001F93CF937C018B010E94AC06C82F811129
:100DD00017C08091E80085FD0BC08091E8008E77F8
:100DE0008093E8000E94AC06882399F3C82F08C0BE
:100DF000F70181917F018093F1000150110949F7BA
:100E00008C2FCF911F910F91FF90EF9008958091BB
:100E1000460687FF13C08091E80082FF06C08091DC
:100E2000E8008B778093E80004C08091440681112C
:100E3000F2CF0895809144068823D9F38091E80089
:100E400080FFF8CF8091E8008E77ECCF982F9093B9
:100E5000E900242F762F50E0891731F07091EC00D3
:100E60002091ED005091F00021FD07C09F5F973069
:100E700071F78093E90081E008953091EB003E7FA7
:100E80003093EB003091ED003D7F3093ED003091D9
:100E9000EB0031603093EB007093EC002093ED0099
:100EA0005093F0002091EE0027FDE0CF80E0089500
:100EB000CF92DF92EF92FF920F931F93CF93DF9326
:100EC000C8EDD0E088818F7E8883E7EDF0E08081F7
:100ED0008160808384E082BF81E0809337068881CF
:100EE0008E7F888302EE10E0F80110821092DA0003
:100EF00081EEC82ED12CF601108288818F778883ED
:100F000088818068888388818F7D888319BC10924E
:100F1000440610924506109243061092420690EE47
:100F2000E92EF12CF70180818B7F8083888181609D
:100F3000888342E060E080E00E942607F60180811D
:100F40008E7F8083F80180818160808380818860CA
:100F50008083F70180818E7F808388818061888390
:100F6000DF91CF911F910F91FF90EF90DF90CF9085
:100F70000895FC0180914C0690914D0686179707C5
:100F8000A0F06115710529F49091E8009E77909387
:100F9000E80090E06115710551F4911108C080914D
:100FA000E80082FF34C080E00895BC01F2CF809158
:100FB00044068823C1F18530C1F18091E80083FDAA
:100FC00030C08091E80082FDEACF8091E80080FF88
:100FD000E1CF8091F3002091F200382F6115710567
:100FE00019F02830310558F091E02830310509F02A
:100FF00090E02091E8002E772093E800CBCF8191FC
:101000008093F100615071092F5F3F4FE7CF8091CE
:101010004406882341F0853041F08091E80083FF49
:10102000BECF81E0089582E0089583E00895089599
:1010300008958091390608952FB7F894609133068A
:101040007091340680913506909136062FBF089531
:101050009C01FC0132969FEF80E04191461751F0D0
:101060009F3F19F4411101C0982F8F5F8630A9F777
:101070009F3F09F40895290F311D97FD3A95F90115
:1010800062830895E0912C06F0912D06309739F097
:1010900022E0DC012C930480F581E02D0994089571
:1010A000FC01680F791F8FEF91E32191822728E0DF
:1010B00030E087FF09C0880F892721503109C9F71F
:1010C000E617F70791F70895880FF7CFFA01811116
:1010D00001C0FB010994FC01EE0FFF1FE80FF91F8F
:1010E000E457FC4F6183408322830895FC019B01F8
:1010F000AC0197FF04C044275527481B590BBA0180
:10110000620F731F37FD0FC0241B350BC901A5E00B
:10111000880F991FAA95E1F70E94F83280E2861B9A
:10112000F7FD81950895CB0165E0880F991F6A95B9
:10113000E1F7BA01621B730B0E94F83280E6EFCF31
:10114000E6E5F6E0248130E1231B08F420E0248367
:1011500081E0809355060895E6E5F6E0248130E1CC
:10116000230F08F42FEF248381E080935506089520
:10117000E6E5F6E0438120E1421B08F440E081818E
:10118000628190E00C947C06E6E5F6E0438120E184
:10119000420F08F44FEF8181628190E00C947C064D
:1011A000E6E5F6E0628120E1621B08F460E08181FF
:1011B000438190E00C947C06E6E5F6E0628120E154
:1011C000620F08F46FEF8181438190E00C947C06FC
:1011D000E6E5F6E08181438162818850990B0C94A9
:1011E0007C06E6E5F6E0818190E043816281089625
:1011F0000C947C068091560686958695815009F45C
:101200008AE00C94650680915606869586958F5FD8
:101210008B3008F081E00C946506EF920F93972FC6
:1012200023E0029FB0011124759567956E0D792F0B
:101230000F91EF900895622F0895EF920F931F93EF
:10124000CF93DF93D62F172FC82FC9010E19070F81
:10125000009729F480E857FD05C080E003C0BA017B
:101260000E947608702F781B719F712D11246D2FAD
:101270008C2FDF91CF911F910F91EF9008950F93D5
:101280001F93CF93DF93D62F172FC82FC901272F76
:10129000201B022F009729F480E857FD05C080E04D
:1012A00003C0BA010E947608982F990F990F782FE2
:1012B000791B700F719F712D11246D2F8C2FDF9171
:1012C000CF911F910F910895E42FF0E0EE0FFF1FD3
:1012D000E152FE4F408134EE439F412D1124E72F10
:1012E000F0E050E0445E5F4FDA01A21BB1099D01BE
:1012F000B7FF03C031952195310993E0220F331FC9
:101300009A95E1F7AF01421B530B9A0157FD20E07C
:10131000279F212D1124722F089530E020E0869F11
:10132000212D969F200D311D1124C9010895AF92E2
:10133000BF92CF92DF92FF920F931F93CF93DF93D1
:10134000362F472FE82FF0E0E659FA4F71110FC002
:10135000E4918E2F2E2F6E2F722FDF91CF911F9140
:101360000F91FF90DF90CF90BF90AF900895C72F5F
:10137000D0E02491F22E022F10E056E0659FC001CC
:101380001124EFEFF0E0BF010E94D832832F90E0EC
:10139000880F991F35E5369FD001379FB00D112476
:1013A0008A1B9B0B982F990F980F6F01CC1ADD0A9F
:1013B000C09ED001C19EB00DD09EB00D11248B2FC8
:1013C000499FA0011124452F55276F01C41AD50A42
:1013D000C09EA001C19E500DD09E500D11245F01F2
:1013E000A91AB108AC9E6001AD9ED00CBC9ED00C79
:1013F0001124CD2CDD24EC19FD09E09FE001E19FD3
:10140000D00DF09FD00D1124ED2F62307105A1F0A9
:1014100050F46115710509F49ECF6130710581F0BA
:10142000EB2F852F98CF6430710569F080F066301E
:10143000710509F490CFF4CFE22F2B2F8D2F8BCF96
:10144000E22F252F88CFEB2F822F2D2F84CF2B2F0C
:101450008F2DE52F80CF30918803209189039091C3
:101460008A0380918B037091820360918303409182
:10147000840350918503F0918703E0918103FE136B
:1014800013C0332311F037130FC0222311F026139A
:101490000BC0882311F0851307C0992319F081E050
:1014A000941303C080E001C081E080FF04C086E89F
:1014B00093E00E94420810928803109289031092D0
:1014C0008A0310928B0386E0E6E8F3E0A0E8B3E03D
:1014D00001900D928A95E1F7089540917C038D3E2D
:1014E00059F480917D0387FF0DC010927D03411157
:1014F0000BC01092740308C08E3E81F480917D036E
:1015000018169CF3442381F080917E0390917F0311
:10151000892B09F05AC01092730308958F3E49F445
:1015200047FFF0CF10927C0380917D038111ECCFB7
:10153000E0CF803F19F41416ACF3E4CF90917E0312
:10154000893F29F41916F4F610927E03DBCF8A3F07
:1015500019F497FFD7CFF8CF90917F038B3F29F4F1
:1015600097FFD0CF10927F03CDCF8C3F19F419167F
:10157000CCF3C8CF9FE0980F983090F4815F990B1F
:1015800021E030E0B90102C0660F771F8A95E2F7CB
:10159000CB01809590917B03892380937B03B2CF0D
:1015A0008D3F31F4809175038E7F80937503AACFB0
:1015B0008E3F21F4809175038D7FF7CF8F3F09F027
:1015C000A1CF809175038B7FF0CF08958091750333
:1015D00080FD16C081FD16C082FD16C08091730388
:1015E0008823A1F0883280F428E0829FC001112472
:1015F00068E270E00E94F832862F672B39F0089578
:1016000082E0089584E0089588E0089581E00895D7
:101610008091750380FD14C081FD14C082FD16C049
:1016200080917403882381F0843180F422E3829FC7
:10163000C001112464E170E00E94F832862F089501
:101640008CE0089589E1089585E0089582E3089586
:101650008D3E31F40E94080B819580937D0308959F
:101660008E3E19F40E94080BF8CF8F3E31F40E9491
:10167000080B819580937C030895803F19F40E94A4
:10168000080BF8CF893F29F40E94E60A80937E0375
:1016900008958A3F21F40E94E60A8195F7CF8B3F97
:1016A00031F40E94E60A819580937F0308958C3F70
:1016B00019F40E94E60AF8CF9FE0980F983070F472
:1016C000815F990B21E030E001C0220F8A95EAF793
:1016D00080917B03822B80937B0308958D3F31F4AF
:1016E0008091750381608093750308958E3F21F486
:1016F000809175038260F7CF8F3FB9F780917503B2
:101700008460F1CF80E0089578940895F894E82FEC
:10171000E295EF70F0E031A1282F2F7081E090E08A
:1017200001C0880F2A95EAF7982F9095932391A3EB
:1017300092A1892B82A30C94840B90910A0392FFAF
:1017400006C0282F28712830F9F4877F846093FF22
:1017500006C0282F28712831F1F4877E84612091FA
:101760000B0320FF06C0382F38713830D9F4877F3B
:10177000816021FF06C0282F28712831D1F4877E8F
:10178000816194FD877E0895282F24712430F9F615
:101790008B7F8860DCCF282F2471243101F78B7E6A
:1017A0008861DDCF382F3171313019F78E7F886035
:1017B000E0CF282F2171213121F78E7E8861E1CF82
:1017C000CF93DF93EC018238910589F1B8F581332D
:1017D000910509F492C028F58932910509F486C073
:1017E0008A9709F491C0C11522E5D20708F0AAC072
:1017F000C11531E5D30708F014C1CF3FD10511F071
:1018000008F090C0CD3ED10508F0E9C0C53AD10539
:1018100008F081C0C430D105F8F4C130D105E1F041
:1018200040C08533910509F45AC0C997E1F680910B
:101830000A03837089F0C0EED0E00EC0833E9105AC
:1018400099F170F4803E910501F1823E910559F6BF
:1018500080910A0382FD21C0CE01DF91CF910895CE
:10186000863E910561F1873E910571F1843E9105B7
:1018700009F0B9CF80910B0381FFEECF80910A036D
:10188000C7EED0E084FD0DC0E7CF80910A0380FD54
:10189000F9C090910B0390FFDFCFC3EED0E084FF3F
:1018A000DBCFD0E0C0E0D8CF80910A0382FDEDC04D
:1018B00090910B0390FDBFCF84FFCECFF2CF8091EC
:1018C0000A0383FDDDCFC8CF80910A0383FDE0C00A
:1018D00090910B0391FFF0CFC4EED0E0BDCF80918B
:1018E0000A0385FFB9CFC9E2D0E0B6CF80910A03E1
:1018F00085FFB2CFC5E3D0E0AFCF80910A0386FF6A
:10190000ABCFCAE2D0E0A8CF80910A0386FFA4CF74
:10191000C1E3D0E0A1CFCE01815E9109079708F421
:101920009BCFBFCFC11540E5D40708F05DC0C115FE
:1019300080E4D80708F055C0C11590E2D90708F433
:101940008BCFAFCFC11526E5D20718F5C11535E508
:10195000D30708F07EC0C11544E5D40708F074C071
:101960009C2F969596959E0123703327C115D345DC
:1019700008F45CC0C1E0D0E002C0CC0FDD1F2A95A6
:10198000E2F730E2939FC0011124C82BD92BDA680B
:1019900063CFC1159AE5D90778F4C11529E5D207B7
:1019A00008F062C0C11538E5D30708F47ACFDC2F00
:1019B000CC27C06FD06A50CFCE019056811590428F
:1019C00008F06FCF8D2F8F710E949D0B90E0982FA4
:1019D000882788279F719C012C2BE90143C0D06583
:1019E0003BCFDF70D06A38CFCE01E4E09695879583
:1019F000EA95E1F783702C2F26952695237090E2C7
:101A0000299F90011124382B8C2F8370C1E0D0E0E6
:101A100002C0CC0FDD1F8A95E2F7C22BD32BDC6806
:101A20001BCFDC2FCC27C16FD06A16CFC1E0D0E02E
:101A300002C0CC0FDD1F2A95E2F720E2929FC00181
:101A40001124C82BD92BEBCFDC2FCC27C46FD06A45
:101A500003CF8C2F0E949D0BC82FD0E0DC2FCC270A
:101A6000CC27DF71D062F8CE8C2F8F700E949D0B37
:101A700034E0D695C7953A95E1F7CF709C2FEC01ED
:101A8000D069EACEC9E3D0E0E7CEC2EED0E0E4CE42
:101A9000C6EED0E0E1CE0C941C088091D4028111F6
:101AA0001092D40208958091D3029091D202892B92
:101AB0009091D102892B80936C029091D40299234A
:101AC00091F0892B80936C0220E08EE692E0FC017D
:101AD0003191CF0131112F5FF2E084379F07B9F7C1
:101AE00021110E944D0DE0912C06F0912D063097AA
:101AF00031F00280F381E02D8CE692E009940895A4
:101B00008091CF0290919E02981301C008958F5F3B
:101B10008770FACFAF92BF92CF92DF92EF92FF928F
:101B20000F931F93CF93DF93C0901704D0901804A6
:101B3000E0901904F0901A044091D5025091D60219
:101B40006091D7027091D802C42AD52AE62AF72AD2
:101B5000CFE1D0E0082F10E026E0929F000D111D8C
:101B6000112490E3A92EBC2ED701C6010C2E04C06F
:101B7000B695A795979587950A94D2F780FD0FC0E3
:101B8000219788F7B12C8B2DDF91CF911F910F9169
:101B9000FF90EF90DF90CF90BF90AF900895AC9EF4
:101BA000F001AD9EF00D1124E00FF11FEE0FFF1FAD
:101BB000E15BFE4F859194910E94E00B019701F348
:101BC000E2CFCF93DF93EC010E948A0DEC2FF0E07F
:101BD00096E0D99FE00DF11D112490E3899FE00D5F
:101BE000F11D1124EE0FFF1FE15BFE4F85919491D3
:101BF000DF91CF910C94E00BE92FEE0FE90FEE0F80
:101C00008E0F982F977086958695869525E0829FF2
:101C1000F0011124E658FD4F50E040E080E02191B2
:101C200030E0092E02C0369527950A94E2F721701C
:101C30003327042E01C0220F0A94EAF7822B4F5F4C
:101C40005F4F4530510559F70895E92FEE0FE90F21
:101C5000EE0F8E0F982F977041E001C0440F9A95B8
:101C6000EAF786958695869595E0899FF00111247F
:101C7000E658FD4F30E020E070E05191DF01119710
:101C8000CB01022E02C0969587950A94E2F78170E7
:101C900081958527842385278C932F5F3F4F25309F
:101CA000310559F70895FC01808191810E94E10D71
:101CB000292F2F7092959F7092509E3078F4E92FC3
:101CC000F0E0E65EF84C0C940C33803F19F020F401
:101CD000883E20F481E00895843FE1F380E0089598
:101CE000883EC0F3813FD1F7F5CF822F8695869548
:101CF00086950895882341F080959091D20289239A
:101D00008093D2020C94530D0895882339F090915A
:101D1000D202982B9093D2020C94530D08958823ED
:101D200041F080959091D30289238093D3020C9443
:101D3000530D0895882339F09091D302982B9093F6
:101D4000D3020C94530D0895CF92DF92EF92FF923D
:101D50006C01EE24FF2420E0C114D104E104F1045D
:101D600019F0C701B60120E1C72ED82EE92EFF24B5
:101D7000C114D104E104F10419F0285FC701B601D0
:101D80006B017C0154E0F694E794D794C7945A957C
:101D9000D1F7C114D104E104F10419F02C5FC7019B
:101DA000B6016B017C0142E0F694E794D794C794A6
:101DB0004A95D1F7C114D104E104F10419F02E5F62
:101DC000C701B6019695879577956795672B682B20
:101DD000692B09F02F5F822FFF90EF90DF90CF905B
:101DE000089580E00895853FF1F485E096E89093AA
:101DF0007A0090E890937B00806480937C008091CF
:101E00007A00806480937A0080917A0086FDFCCF0E
:101E1000809178002091790090917A009F7790933B
:101E20007A00922F089584E0E1CF80915F0690912F
:101E30005D06909362068093630683E08093E900D9
:101E40008FEF9091E800815095FD06C095ED9A9531
:101E5000F1F700008111F5CF8091E80085FF0DC0FA
:101E600050E040E062E070E082E696E00E94DD062D
:101E70008091E8008E778093E80008959C0182E0CD
:101E80008093E9009FEF8091E800915085FD06C0A6
:101E900085ED8A95F1F700009111F5CF8091E8006A
:101EA00085FF0CC050E040E066E070E0C9010E9490
:101EB000DD068091E8008E778093E8000895CF9347
:101EC000DF93EC0181E08093E9008FEF9091E800CF
:101ED000815095FD06C095ED9A95F1F700008111AE
:101EE000F5CF8091E80085FF14C050E040E068E045
:101EF00070E0CE010E94DD068091E8008E7780932D
:101F0000E80088E0FE01AAE3B6E001900D928A9510
:101F1000E1F7DF91CF910895539A3BB1377F2BB111
:101F200028604FB7F8948CE893E0FC015191CF0101
:101F300068E02BB9000000C057FF3BB9550F000007
:101F400000C000C000C03BB900C06A9591F7F4E042
:101F500086319F0751F74FBF8FE594E00197F1F766
:101F600000C0000008959F92AF92BF92CF92DF927F
:101F7000EF92FF920F931F93CF93DF937C015B014E
:101F80006A018091090301E010E08A3010F40AE050
:101F900010E0C1E0D0E0F894B501C701F601099561
:101FA000982E0E94840B911004C021960C171D07D7
:101FB0006CF4892DDF91CF911F910F91FF90EF90DD
:101FC000DF90CF90BF90AF909F900895CC9F9001ED
:101FD000CD9F300D300D112490E080E045E34A950F
:101FE000F1F70000019682179307C1F7D4CF8091D3
:101FF000E202811110C08091D80080618093D800E6
:102000008AE18A95F1F700C08091D90080FF0AC06B
:1020100081E08093E20281E09091E202913009F048
:1020200080E0089582E08093E2020E948D06109283
:102030004406F1CF0F931F930E94F70F882321F0DE
:102040001F910F910C941C080E941C0800912E06F1
:1020500010912F062091300630913106600F711FCC
:10206000821F931F1F910F9108950E94F70F8823DD
:1020700051F0E0912C06F0912D06309721F001905F
:10208000F081E02D099480E0089554985C9A219A9B
:10209000299885E08A95F1F7000089B12198299A5D
:1020A00090EA9A95F1F790E024E0959587952A9526
:1020B000E1F78095909581700895FF920F931F939B
:1020C000CF93DF93EC01162F042FF22E0E944510C0
:1020D00081110FC0C731D10564F02F2D402F612F22
:1020E000CE014797DF91CF911F910F91FF900C94F4
:1020F0006B080E944510882341F0C731D1052CF4AC
:102100002F2D402F612FCE01EDCFDF91CF911F9169
:102110000F91FF9008959F92AF92BF92CF92DF925E
:10212000EF92FF920F931F93CF93DF935C01C091C7
:1021300055018AE0C89FC02D11241AE01C0FF12E12
:102140001F3210F0BEE2FB2E60915A066695809118
:102150004E0690914F060E948D09982ED0E0CE0138
:10216000880F991F9C0121553E4F6901CF1580F0C2
:1021700081E01E3208F080E0DF91CF911F910F9136
:10218000FF90EF90DF90CF90BF90AF909F90089519
:10219000FE01E55CFD4F808190915601892309F491
:1021A0004EC0F60140A94057550B21A92052330BD0
:1021B000449FB001459F700D700D1124229FC001F6
:1021C000239F900D900D1124860F971F082F8230AA
:1021D000910520F1AFEF813EFEE19F0738F4DC016D
:1021E000F5E0B695A795FA95E1F7A85FB1E0EB2F7A
:1021F000EA0FFF27FF1FBF0175956795062F669FA2
:10220000F001679FF00DF00D11248E179F07E0F489
:10221000AFEFA60FAB1758F70FEF0B0F60915706F4
:102220007091580680915906E92CF50109950E9494
:102230009709462F282F672FCE010E945D10219607
:10224000F2E0CF0ED11C92CF6F3F41F3B1E0B60F59
:10225000E1CFDF92EF92FF920F931F93CF93DF9323
:102260007C01C09155018AE0C89FC02D11241AE05D
:102270001C0F012F1F3208F00EE260915A0666957E
:10228000669521E0620F08F46FEF80914E06909101
:102290004F060E948D09D82ED0E0C01760F081E073
:1022A0001E3208F080E0DF91CF911F910F91FF90D7
:1022B000EF90DF900895FE01E55CFD4F80819091E5
:1022C0005601892391F060915706709158068091CC
:1022D00059062D2D4C2FF70109950E949709462F7D
:1022E000282F672FCE010E945D102196D6CFFF9236
:1022F0000F931F93CF93DF93182F062FF42ED0E068
:10230000C0E02F2D402F612FCE010E945D1021963D
:10231000CE32D105B1F7DF91CF911F910F91FF9090
:102320000895CF92DF92EF92FF920F931F93CF9376
:10233000DF936C017B0164E670E088E70E94B52FB3
:10234000EC0197FD12C010E000E0F601E00FF11F74
:10235000849164E670E00E942F30EC01892B29F40F
:102360000F5F1F4F0E151F0581F70E94B230CE017F
:10237000DF91CF911F910F91FF90EF90DF90CF9061
:102380000895CF93C0912A0680912B068823D1F01F
:102390000E941C08605A75418F4F9F4F609326061C
:1023A000709327068093280690932906C11108C0D0
:1023B00062E070E08AEA9BE00E949111892B29F08B
:1023C000C0912A068C2FCF91089581E080932A0630
:1023D000F7CF1F93CF93DF93162F8A3031F481E02C
:1023E000DF91CF911F910C94A7128D3011F480E0F2
:1023F000F7CFC0912406D091250696E0FE01AEE10C
:10240000B6E001900D929A95E1F7803EA8F186E042
:10241000FE0111928A95E9F7C0912406D091250614
:10242000111136C046E050E0BE018EE196E00E94F8
:10243000AE339E012E513440892BA9F52A5F3F4FC0
:1024400040911B04642F70E0C9010E94D832481BE0
:10245000463010F4240F311D211572E0370710F0BB
:1024600030E020E0225E3B4F309325062093240687
:10247000DF91CF911F910895F6E08F9FB001112455
:102480006659794F46E050E0CE010E94A533C4CF93
:102490009E012A5F3F4FFE012E173F0719F28081F0
:1024A00080958193F9CFC90145E0969587954A9526
:1024B000E1F741E050E0BA0102C0660F771F8A954C
:1024C000E2F7CB0160911C0470911D04862B972BC1
:1024D000B9016B5F7F4FE5E076956795EA95E1F787
:1024E00002C0440F551F6A95E2F7842B952B9093F9
:1024F0001D0480931C04A2CF0F931F93CF93DF93EF
:10250000EC01FC0101900020E9F78F010150110955
:10251000C017D10728F0DF91CF911F910F91089537
:1025200060E089910E94E911F3CF1F93CF93DF936D
:10253000EC01162FFE018491811104C0DF91CF912F
:102540001F910895612F0E94E9112196F3CFCF9337
:10255000382FE0912406F0912506EE51F4402091A9
:102560001B04622F70E0CF010E94D832281B822FFB
:10257000332369F066E00E94EC32C82FC15010F49A
:10258000CF91089560E080E20E94E911F7CF9F01AA
:10259000280F311D2115324018F080E0F0E0E0E016
:1025A0008E0F9F2F911D825E9B4F909325068093E7
:1025B0002406E6CF1F93CF93DF93EC01FC01E55C8B
:1025C000FD4F80816823C9F00E949533182F0E9427
:1025D00095338F77782F20E8720F08F47FEF612F03
:1025E000809159060E949709462F282F672FCE0108
:1025F000DF91CF911F910C945D10DF91CF911F91CE
:102600000895E6E5F6E085E0808380915901909198
:102610005A01A0915B0181839283A3838FE7848316
:102620008FEF858346E050E06CE170E0CF010C94C1
:102630008136CF9384E090E00E947336C82F82E207
:1026400090E00E947336982F8C2FCF9108950F93AE
:102650001F93CF93DF9300D000D000D00F92CDB75F
:10266000DEB786E0E6E5F6E0DE01119601900D9218
:102670008A95E1F71F8247E050E06EEF72E0CE01ED
:1026800001960E94AE33009105031091060320913C
:10269000070330910803EFB7F89440913306509147
:1026A00034066091350670913606EFBF401B510B22
:1026B000620B730B443651056105710510F4892BCB
:1026C00019F18091390190913A018D509D4F4091BF
:1026D000380150E04830510510F047E050E0BE01AD
:1026E0006F5F7F4F0E94BB3385E090E00E942432F1
:1026F000892BB1F40E941C086093050370930603B4
:10270000809307039093080381E027960FB6F8940F
:10271000DEBF0FBECDBFDF91CF911F910F91089506
:1027200080E0F3CFCF93DF9300D000D0CDB7DEB7FA
:102730004091EF025091F0026091F1027091F2022B
:102740002FB7F8948091330690913406A091350606
:10275000B09136062FBF841B950BA60BB70B8436A2
:102760009105A105B10568F10E941A106E5F7F4FB7
:102770008F4F9F4F69837A838B839C8380912F0136
:10278000909130018D509D4F40912E0150E0453089
:10279000510510F044E050E0BE016F5F7F4F0E9492
:1027A000BB3384E090E00E942432892B61F40E94C4
:1027B0001C086093EF027093F0028093F1029093F3
:1027C000F20281E001C080E00F900F900F900F9017
:1027D000DF91CF9108956F927F928F929F92AF92E7
:1027E000BF92CF92DF92EF92FF920F931F93CF93FE
:1027F000DF930F92CDB7DEB7862E5A016901682E9E
:10280000880F7708C3010E942432892B09F088C001
:102810008AE0869DF001879DF00D1124EC5FFE4F4C
:10282000458150E04115510511F041E050E08AE04A
:10283000869DF001879DF00D1124EC5FFE4F6681AF
:1028400077816D507D4FCE0101960E94BB33F5011B
:1028500040815181628173812FB7F8948091330652
:1028600090913406A0913506B09136062FBF841B97
:10287000950BA60BB70B84369105A105B10540F465
:10288000B701C8010E9450089981891709F44FC007
:10289000082C000C9908C4010E942432892B91F065
:1028A000B12C8B2D0F90DF91CF911F910F91FF9045
:1028B000EF90DF90CF90BF90AF909F908F907F90E0
:1028C0006F9008958AE0889DF001899DF00D112494
:1028D000EC5FFE4F458150E0E416F50608F4A701D1
:1028E0008AE0889DF001899DF00D1124EC5FFE4F78
:1028F000668177816D507D4FC6010E94BB33B70161
:10290000C8010E94500899818913CACF0E941C08EF
:10291000F5016083718382839383BB24B394C1CF19
:10292000B12CA701B801C6010E94BB33BACFBB24AA
:10293000B394F7CFCF92DF92EF92FF920F931F9352
:10294000CF93DF9300D000D0CDB7DEB76B0184E02A
:10295000E82EF12C04EF12E09E012F5F3F4F47EE6F
:1029600052E061E080E00E94EB13882361F049812E
:102970005A816B817C814093E3025093E40260931F
:10298000E5027093E6024091E3025091E402609107
:10299000E5027091E602F6014083518362837383FE
:1029A0000F900F900F900F90DF91CF911F910F918B
:1029B000FF90EF90DF90CF90089569EE7EEF90E06A
:1029C00080E00E94AF3660E082E090E00E949136A5
:1029D00060E083E090E00E9491361092D502109260
:1029E000D6021092D7021092D80260E084E090E004
:1029F0000E94913660E082E290E00E94913660E0B1
:102A000085E090E00E94913660E086E090E00E94D0
:102A100091366FEF87E090E00E94913640E050E001
:102A2000BA0188E090E00E94A33660E08DE090E07B
:102A30000E94913640E050E0BA0188E190E00E94A7
:102A4000A33660E087E190E00E94913640E050E0DC
:102A5000BA018CE190E00E94A33670E060E080E271
:102A600090E00E94AF3640E050E0BA0188E190E08B
:102A70000E94A33640E050E0BA018FE090E00E944F
:102A8000A33640E050E0BA0183E190E00C94A33615
:102A9000CF93C0910B03C2FB992790F9981781F04F
:102AA00080FBC2F9C0930B0360910A0384E090E0BD
:102AB0000E9491366C2F82E290E0CF910C94913677
:102AC000CF9108951F920F920FB60F9211242F935A
:102AD0003F934F935F936F937F938F939F93AF93A6
:102AE000BF93EF93FF938091E10082FF09C0809133
:102AF000E20082FF05C08091E1008B7F8093E100BE
:102B00008091DA0080FF24C08091D80080FF20C02F
:102B10008091DA008E7F8093DA008091D90080FF67
:102B20009BC080E189BD82E189BD09B400FEFDCF73
:102B300081E08093440680913706811109C00E948C
:102B40008D060E9458078091E20084608093E20025
:102B50008091E10080FF17C08091E20080FF13C0E8
:102B60008091E2008E7F8093E2008091E20080619C
:102B70008093E2008091D80080628093D80019BCD5
:102B800085E0809344068091E10084FF29C0809114
:102B9000E20084FF25C080E189BD82E189BD89B55D
:102BA000982F917080FFFBCF8091D8008F7D80930C
:102BB000D8008091E1008F7E8093E1008091E20057
:102BC0008F7E8093E2008091E20081608093E2003A
:102BD00080914506882309F445C084E0809344062B
:102BE0008091E10083FF27C08091E20083FF23C032
:102BF0008091E100877F8093E10082E0809344062A
:102C0000109245068091E1008E7F8093E1008091D3
:102C1000E2008E7F8093E2008091E20080618093E9
:102C2000E20042E060E080E00E9426078091F00030
:102C300088608093F000FF91EF91BF91AF919F91D9
:102C40008F917F916F915F914F913F912F910F9055
:102C50000FBE0F901F90189519BC10924406109249
:102C6000370676CF8091E30087FD93E0909344068A
:102C7000B7CF78941F921FB61F9211248F939F9302
:102C8000AF93BF938091330690913406A09135069F
:102C9000B09136060196A11DB11D80933306909325
:102CA0003406A0933506B0933606BF91AF919F913D
:102CB0008F911F901FBE1F9018959C014FB7F894DD
:102CC0008091330690913406A0913506B091360676
:102CD0004FBF821B930B08952FB7F8948091330652
:102CE00090913406A0913506B09136062FBF089515
:102CF0000E946C169C0190917C0380917D03982B1F
:102D000021F0309379032093780390917E03809192
:102D10007F03982B21F030937703209376038AE783
:102D200093E00C9442081092D2021092D1020E94B9
:102D3000530D86E0EAE7F3E0DF011D928A95E9F79B
:102D40001092740310927303109275030C9478160A
:102D500060931704709318048093190490931A04D5
:102D60000C9493160F931F9341E050E060E070E0E5
:102D700004C0440F551F661F771F8A95D2F7CB01F9
:102D8000BA01609570958095909500911704109107
:102D900018042091190430911A04602371238223AE
:102DA00093231F910F910C94A8169091D0028095B7
:102DB00089238093D002282F277039F4282F082EDA
:102DC000000C330B9217130621F490910B0392FF22
:102DD00007C08595859585950E94B2161092D00200
:102DE00008950F931F9341E050E060E070E004C04D
:102DF000440F551F661F771F8A95D2F780911704DD
:102E000090911804A0911904B0911A048A019B01B1
:102E1000082B192B2A2B3B2BC901B8011F910F91AD
:102E20000C94A8160F931F9341E050E060E070E00F
:102E30008A019B0104C0000F111F221F331F8A95B6
:102E4000D2F7C901B8011F910F910C94A816609395
:102E5000D5027093D6028093D7029093D8020C9437
:102E600093161092D302EEE6F2E086E0DF011D92A7
:102E70008A95E9F70C9493161F93CF93DF93CDB700
:102E8000DEB7AA970FB6F894DEBF0FBECDBF86E4BB
:102E900096E02091F100DC012D93CD01B6E08E3457
:102EA0009B07B9F780914706833009F46FC0B8F4E7
:102EB000813009F446C0823009F4B0C08091E80046
:102EC00083FF38C180914606909147069A3008F0FA
:102ED00031C1E92FF0E0E85DF84C0C940C338A30F6
:102EE00009F48BC08B3009F46EC0893039F78091BA
:102EF0004606813219F780914A0690914B06029757
:102F0000E8F68091E800877F8093E8008091E800F0
:102F100082FF37C09091F3008091F200029729F46C
:102F20008091F1008B7F813021F48091F1008093BA
:102F300039068091E8008B778093E8000E940707AC
:102F4000BDCF80914606813A09F0B8CF8091E80064
:102F5000877F8093E80080914A0690914B06892BE9
:102F600061F468E08AE396E070E00E94B90780911E
:102F7000E8008B778093E800A1CF60E090E080E0EC
:102F8000F3CF809144068111C1CF98CF809146063E
:102F9000813A09F093CF80914A0690914B06892B94
:102FA00009F08CCF8091E800877F8093E8008091C2
:102FB000E80080FFFCCF809154018093F100809164
:102FC000E8008E77B9CF80914606813209F076CF3E
:102FD00080914A0690914B06892B09F06FCF809122
:102FE000E800877F8093E8000E94070780914806E9
:102FF000809354010E94311761CF8091460681323F
:1030000009F05CCF8091E800877F8093E8000E9400
:103010000707809149068093380650CF8091460675
:10302000813A09F04BCF8091E800877F8093E800D8
:103030008091E80080FFFCCF80913806BECF8038B9
:1030400099F0823809F076C080914A068F708730F7
:1030500008F070C08093E9008091EB0085FB882721
:1030600080F91092E90006C08091420690914306D3
:10307000911182609091E800977F9093E80080938F
:10308000F1001092F1008091E8008E77B0C18823A2
:1030900009F49DC1823009F04DC08091480681112C
:1030A000A1C180914A068F702FEF280F263008F0BB
:1030B00041C08093E9002091EB0020FF93C1933041
:1030C00031F48091EB0080628093EB008BC1909192
:1030D000EB0090619093EB0021E030E001C0220F03
:1030E0008A95EAF72093EA001092EA008091EB00BB
:1030F0008860EACF81111EC0109148061F77809129
:10310000E3008078812B8093E3008091E800877F43
:103110008093E8000E9407078091E80080FFFCCFC1
:103120008091E30080688093E30082E0111183E0E6
:10313000809344068091E80083FF0AC08091E800F4
:10314000877F8093E8008091EB0080628093EB00A2
:10315000AA960FB6F894DEBF0FBECDBFDF91CF9118
:103160001F9108958058823028F7209148063091A9
:1031700049062C3DE3E03E07A1F583E08A838AE21D
:1031800089834FB7F894DE01139620E03EE051E2C8
:10319000E32FF0E050935700E49120FF03C0E29545
:1031A000EF703F5FEF708E2F90E0EA30C0F0C7966F
:1031B0008D939D932F5F243159F74FBF8091E80085
:1031C000877F8093E8006AE270E0CE0101960E945A
:1031D000B9078091E8008B778093E800ABCFC09669
:1031E000E7CF80914A0690914B06432F55274330F5
:1031F000510509F44AC078F54130510509F47AC007
:1032000084E590E0ECEAFBE04230510509F092CF12
:103210002091E800277F2093E80020914C06309110
:103220004D068217930708F49C0140E021153105F3
:1032300009F065C0411163C08091E80082FDC9CFEB
:1032400080914406882329F2853019F28091E800A4
:1032500083FFF2CFBECF4132510509F43CC0423268
:10326000510509F067CF8330910508F063CFFC0169
:10327000EE0FFF1FED55FE4F0190F081E02D8056BF
:103280009E4FDC018C9190E01AC03327213031052C
:10329000D1F02115310561F02230310509F04ACF16
:1032A000E2E1FCE0E4918E2F90E0E2E1FCE007C077
:1032B000E4E3FCE0E4918E2F90E0E4E3FCE000978F
:1032C00009F438CFA5CFE4E2FCE0E4918E2F90E042
:1032D000E4E2FCE0F4CF8330910508F02BCF880FB7
:1032E000991FFC01E755FE4F0190F081E02D89E028
:1032F00090E08ECF82E190E0E0E0FCE089CF809129
:103300004406882309F465CF853009F462CF8091A3
:10331000E80083FD5ECF8091E80082FD8DCF809133
:10332000E80080FF83CF9091F3008091F200211597
:10333000310519F08830910550F041E0089709F007
:1033400040E08091E8008E778093E8006FCF449151
:103350004093F1003196215031090196E8CF803831
:1033600009F0E8CE8091E800877F8093E8008091A3
:1033700045068093F10087CE8111DCCE109148067E
:10338000123008F0D7CE8091E800877F8093E80064
:10339000109345060E940707112311F084E005C031
:1033A0008091E30087FDFACF81E08093440642E0FC
:1033B00061EC81E00E94260742E261EC82E00E941B
:1033C000260742E061EC83E00E942607B3CE80919D
:1033D0004806813009F0AECE81E0933009F080E0FC
:1033E000809343061092E9008091E800877F8093E4
:1033F000E8000E9407079ECE1F920F920FB60F9211
:1034000011242F933F934F935F936F937F938F93E9
:103410009F93AF93BF93CF93DF93EF93FF93D0919D
:10342000E900DF708091EC00C82FC17080FDC0E81A
:103430001092E9008091F000877F8093F0007894EB
:103440000E943C171092E9008091F0008860809300
:10345000F000CD2BCF70C093E900FF91EF91DF9189
:10346000CF91BF91AF919F918F917F916F915F911C
:103470004F913F912F910F900FBE0F901F90189575
:10348000882309F460C09CEF980F913A78F4EEE637
:10349000F2E024E732E09191891303C0DF01119734
:1034A0001C922E173F07B9F70C94530D90E2980F1A
:1034B000983088F4877021E030E0A90102C0440F01
:1034C000551F8A95E2F7CA0180959091D30289230E
:1034D0008093D302E9CF9BE5980F9330B0F48091AD
:1034E000760290917702892B71F1109277021092F7
:1034F0007602E0912C06F0912D06309721F106809E
:10350000F781E02D90E080E0099498E5980F9731DD
:10351000A0F48091780290917902892BA1F0109209
:10352000790210927802E0912C06F0912D063097E6
:1035300051F00084F185E02DE5CF8D3E20F00E9412
:103540006D0A0C9478160895CF93DF93EC010E94D6
:10355000401ACE010E94F10E9E01205E31092830F2
:10356000310510F0CD2B21F4DF91CF910C948F0E0B
:10357000DF91CF910C947A0ECF93C82F8823E1F17D
:103580008CEF8C0F813AF8F4EEE6F2E0DF018D91DA
:10359000C81761F082E0A437B807C9F76C2F8CE632
:1035A00092E00E942808CF910C94530D8191C8138A
:1035B00003C0DF0111971C9282E0E437F807B1F7EE
:1035C0000E94530DEBCF80E28C0F883068F4C770F7
:1035D00021E030E001C0220FCA95EAF78091D302C2
:1035E000822B8093D302DFCFCD3E30F08C2F0E9410
:1035F000280BCF910C947816CF9108951F93CF93F9
:10360000DF93182FD0E0C0E0893311F4C0E5D0E09B
:10361000812F0E94BC1A209731F4812FDF91CF9126
:103620001F910C94401A8FE99FE00197F1F700C0B9
:1036300000002197F0CF0F931F93CF93DF93C62FF6
:10364000D42F022FFC0182818823A1F060935406BD
:103650000E946C169093530680935206C77081E0C7
:1036600001C0880FCA95EAF7DF91CF911F910F91A2
:103670000C949A0E80915406681335C080915206BE
:10368000909153060E945D16883C910560F510E20A
:103690001D0FCD17B9F080E28C0F883040F4C77051
:1036A00081E001C0880FCA95EAF70E948F0E18309A
:1036B00048F481E09D2F977001C0880F9A95EAF732
:1036C0000E949A0E802F0E94FE1A183098F4D7702C
:1036D00081E001C0880FDA95EAF7DF91CF911F9161
:1036E0000F910C948F0EC77081E001C0880FCA95AE
:1036F000EAF7F3CFDF91CF911F910F910895CF9308
:10370000C62F60911704709118048091190490914C
:103710001A040E94A40E8130E1F0882339F082302F
:1037200001F18330F1F180E0CF910895809116048A
:10373000882341F0CC2321F081E00E941217F3CFBF
:1037400082E0FBCF89EFC11101C08AEF0E94FE1A0F
:10375000EACF809116048823A9F3C111F1CF80E04C
:10376000ECCF80911604882319F0C111F8CFE4CF73
:1037700080EECC2379F00E94BC1A81EE0E94BC1A24
:103780008DE10E94FE1A80EE0E94401A81EE0E9496
:10379000401AC9CF0E94BC1A8DE10E94FE1A80EE29
:1037A000F6CF80911604882369F289EAC111CECF41
:1037B0008AEACCCFCF92DF92EF92FF920F931F93C2
:1037C000CF93DF930F92CDB7DEB7EE24E394F12CC5
:1037D00009EF12E09E012F5F3F4F4BEE52E063E096
:1037E00082E00E94EB13082F882321F1C09016037A
:1037F0008C2D90E09C012D5D3C4F79011981F901E0
:103800008081181BD12E80E00AC0DA94F7018081F4
:103810008F5F808360E08C2D0E947F1B802F1D14A2
:10382000A4F3912F17FD90E0191B11110EC0811107
:103830000E944B0D802F0F90DF91CF911F910F9120
:10384000FF90EF90DF90CF9008951F5FF701808188
:103850008150808361E08C2D0E947F1B802FE5CFFB
:10386000CF93DF93EC010E94F10E9E01205E31099F
:103870002830310510F0209739F40E949A0E8C2FD1
:10388000DF91CF910C94BC1A0E94850EF8CF4F9215
:103890005F926F927F928F929F92AF92BF92CF92E0
:1038A000DF92EF92FF920F931F93CF93DF93CDB7E9
:1038B000DEB762970FB6F894DEBF0FBECDBF7C01B6
:1038C000FC0183819481892B39F01081D180812F73
:1038D0008D218F3F09F05FC562960FB6F894DEBF69
:1038E0000FBECDBFDF91CF911F910F91FF90EF9051
:1038F000DF90CF90BF90AF909F908F907F906F9010
:103900005F904F9008950E948A0D082F682F89813B
:103910009A810E94250EE12FF0E026E0D29EE00D74
:10392000F11D112430E3039FE00DF11D1124EE0F72
:10393000FF1FE15BFE4F0591149103368DE51807DB
:1039400009F47BC004369DE5190709F4A7C0043FBC
:10395000ECE51E0709F4B6C008F05CC0093D2CE593
:10396000120709F4ABC00A3D3CE5130709F4B6C0E1
:10397000083D8CE5180709F49DC0F70142814423F6
:1039800009F41AC5109254060430FDE51F0708F02B
:10399000A8C00B3F2CE5120730F4C80182509C45AB
:1039A000449708F0A3C00E94191390930B038093CF
:1039B0000A0300318CE5180709F46BC108F0E7C071
:1039C0000830ECE51E0709F452C108F0B9C0043014
:1039D0002CE5120709F43DC108F09FC002308CE5C8
:1039E000180709F430C180910A03826003301C4536
:1039F00009F42CC160910A0310910B0384E090E05C
:103A00000E949136612F82E290E00E9491360E94DE
:103A100031171EC0063F9CE5190709F45BC008F486
:103A200055C027E245EE66EE073FFCE51F0709F0AB
:103A3000A4CFC7010E941B1B0BC0F7018281882302
:103A400039F0809168038F5F833029F18093680398
:103A50008091D002877009F43FCFF70182818823DB
:103A600009F43ACF82E062960FB6F894DEBF0FBE3B
:103A7000CDBFDF91CF911F910F91FF90EF90DF901D
:103A8000CF90BF90AF909F908F907F906F905F90FE
:103A90004F900C94D51610926803DACFF70182810B
:103AA000882309F46ACF8091160491E089278093D6
:103AB000160463CF26E241EE61EEBBCF27E245EE6E
:103AC00065EEB7CF26E241EE60EEB3CF27E245EEDA
:103AD00064EEAFCF26E241EE62EEABCF28E241E0EA
:103AE000EFCF02363DE5130709F45DCF0631ECE573
:103AF0001E0709F082C48091D3028A7A91E009F40A
:103B000090E09093750269E2811165E38CE692E0A2
:103B10000E9428080E94530D9BCF80910A03806168
:103B20000630ECE51E0709F491C080910A03886015
:103B300007301C4508F48AC080910A03806286C061
:103B400080910A038D7F0C302CE5120709F47EC0AA
:103B500058F40A308CE5180709F493C008F48BC0B8
:103B600080910A038E7F72C080910A03877F0E3096
:103B7000ECE51E0709F46AC080910A038B7F0F30C1
:103B80001C4508F463C080910A038F7E5FC00D3F1F
:103B90002CE5120709F479C068F504318CE51807A3
:103BA00009F48BC080F40231ECE51E0709F475C0FE
:103BB00080910A038F7B03311C4508F447C0809134
:103BC0000A03837F43C00B3F2CE5120709F445C06D
:103BD00008F049C005311C4509F00CCF80910A035B
:103BE00082FB992790F921E0922790FB82F990FBC4
:103BF00083F92CC001309DE5190709F454C088F4FD
:103C000080910B0383600F3FFCE51F0749F1809112
:103C10000B038D7F01151D4518F180910B038C7FDF
:103C20001FC003303DE5130709F456C008F44EC029
:103C300002361D4509F0DECE90910A03892F8F7E52
:103C400094FF806103C080910A03816080930A031E
:103C5000D1CE80910A038460F9CF80910B038160FB
:103C600080930B03C7CE80910B038260F9CF8091C4
:103C70000A038064EBCF0E94311780910A038068A9
:103C8000E5CF80910A038C60E1CF80910B038E7F9A
:103C9000E7CF80910A038F7DD9CF0E9431178091A1
:103CA0000A038F77D3CF80910B03982F9095917053
:103CB0008E7F892B90FB81F9D3CF0E943117909191
:103CC0000A03892F97FB87F98058C0CF61E08EE007
:103CD00090E00E9491368ECE60E0F9CF809175021F
:103CE00081110FC089E2EEE6F2E024E732E0919123
:103CF000891303C0DF0111971C922E173F07B9F7F4
:103D000009CF85E3F0CF8091560691E08927809313
:103D1000560610925801909355069ACE4AEF58E0F5
:103D200063E079E00E94660893CE43E059E06AEFD1
:103D300078E0F8CF48EE58E061EF78E0F3CF48EB59
:103D400058E064EC78E0EECF81E00E94650680CE1A
:103D50008095822372C381FD78C3F7018281882315
:103D600081F00B35FDE51F0709F490C008F05DC038
:103D700001153CE5130709F46AC00F3D1C4509F421
:103D800082C0F701828110810181882309F482C0F9
:103D9000812F902F0E948A0DD82E682F812F902F6F
:103DA0000E94250EE12FF0E026E0029FE00DF11DBC
:103DB000112430E3D39EE00DF11D1124EE0FFF1FFF
:103DC000E15BFE4F859194910E94E00B8C01882E5F
:103DD000F701D280A580A2945FE0A5228091D00255
:103DE0008770A1F0CD2CDD2091F0812F807F803471
:103DF00021F080E2800F883048F082E00E94D516E2
:103E00008091D0028770CC24C3948111C12CB12E33
:103E1000B2943FE0B322FBE0FB1508F476C0EB2D33
:103E2000F0E0EE5CF84C0C940C330C359DE5190772
:103E300079F10D351D4509F0A4CF80910B0382FB6C
:103E4000882780F991E089270E9448159ACF0E941F
:103E50003117FFEF24E33CE0F15020403040E1F720
:103E600000C0000087E797E790930108809300085F
:103E700088E19AE00FB6F894A895809360000FBE91
:103E800090936000FFCF0E94DD14E2CD81E0DCCF93
:103E900080E0DACF812F902F0E94FC0DD82E82CFA8
:103EA000212F2F70A22E107F19F0A29420EFA222B2
:103EB000DD20C9F0AA2069F080E2800F883010F080
:103EC00081100BC08091D302A82AA092D3020E9435
:103ED000530D802F0E94BC1A18C08091D202A82ACC
:103EE000A092D202F4CF802F0E94401AAA2069F03B
:103EF000A094005E083010F0811045C08091D3027C
:103F0000A822A092D3020E94530DEB2DE850FF0B84
:103F1000349710F40E943510CC20A9F08091D00283
:103F200080FD11C0F70112828595859585950E94C7
:103F3000F116C7010E94471C8091D0028595859596
:103F400085950E94B21685E0F701DE011196019079
:103F50000D928A95E1F789819A810E94FC0D9A81E0
:103F6000E981F0E026E0929FE00DF11D112430E39D
:103F7000839FE00DF11D1124EE0FFF1FE15BFE4F4B
:103F800085919491A9CC8091D202A822A092D202CC
:103F9000BACF312F3F70932E107F103219F09294C8
:103FA00090EF9922882071F081E0881681F1DD2060
:103FB000D9F1AA2091F1F701858180FF8ACF8F7016
:103FC00085832BC0DD20B1F09091D402892D892BFF
:103FD000A11003C00E949A0E98CFE1E0AE12FACF72
:103FE00020910B0322FD91CF981709F48ECF809377
:103FF000D4028BCFA11006C00E944D0D892D0E94C6
:104000008F0E83CFF1E0AF1609F47FCFF5CFDD201F
:1040100031F025E02A1508F478CF892DDBCF34E084
:104020003A1508F472CFEACFAA2041F3F9E38F12D0
:10403000ABC12FEF37EE83E0215030408040E1F7F5
:1040400000C00000A1C1802FDD20B9F10E94280B23
:10405000015F110B08301105B0F581E090E001C05F
:10406000880F0A95EAF726E0E6E8F3E0DE01179606
:1040700001900D922A95E1F726E0FE013796DE01C8
:104080001D9601900D922A95E1F72885DD20C1F05B
:10409000822B8E8786E0FE013D96DE01119601900F
:1040A0000D928A95E1F786E0FE013196A6E8B3E02D
:1040B00001900D928A95E1F728CF0E946D0AC8CF32
:1040C00080958223E6CF0E9478161FCF812F8370C0
:1040D00009F066C0D11019CF802F82958695877020
:1040E000880F880F602F6F70462E512C712C612C19
:1040F000082E04C0440C551C661C771C0A94D2F789
:1041000040E050E0BA0104FF0FC04FE050E060E033
:1041100070E004C0440F551F661F771F8A95D2F7C1
:104120004095509560957095812F86958695837002
:10413000823019F1D8F40091D5021091D602209165
:10414000D7023091D802813069F044295529662977
:104150007729CB01BA0160237123822393230E9424
:104160002717D3CE402A512A622A732ACB01BA01DB
:104170006429752986299729F2CF4429552966296A
:1041800077290091D5021091D6022091D702309163
:10419000D802CB01BA016027712782279327DFCF8E
:1041A0008695DD2011F0812F8170882309F4ADCE32
:1041B000802F829586958770880F880F602F6F708B
:1041C000462E512C712C612C082E04C0440C551C19
:1041D000661C771C0A94D2F740E050E0BA0104FF55
:1041E0000FC04FE050E060E070E004C0440F551F86
:1041F000661F771F8A95D2F7409550956095709508
:10420000812F869586958370823019F1D8F40091BC
:104210001704109118042091190430911A04813068
:1042200069F04429552966297729CB01BA01602311
:104230007123822393230E94A81667CE402A512A15
:10424000622A732ACB01BA01642975298629972924
:10425000F2CF442955296629772900911704109136
:1042600018042091190430911A04CB01BA01602777
:10427000712782279327DFCF1F70DD2029F0812F40
:104280000E94F116802FA6CE802F0E948F0E812FC4
:104290000E94B2163ACE802F92EF891609F454C0CC
:1042A000981578F0E0EF8E1639F1F1EF8F1609F4DA
:1042B00043C0DD2009F463C0A1100BCE812F8F71A4
:1042C00040C023EF821609F444C034EF8312F1CFCB
:1042D000DD2009F449C01F71812F0E94F1168091E1
:1042E0000B0382FD07C0E8E01E9FC001112483601C
:1042F0008093D002812F25C0DD20C9F084E08A158B
:1043000008F403CE1F7161E070E080E090E004C02B
:10431000660F771F881F991F1A95D2F7009117040F
:10432000109118042091190430911A04A0CF95E03F
:104330009A1508F4EACDE6CF812F8F71DD2009F4BC
:10434000A7CF0E94F116E1CD812F8F71DD20C9F337
:104350009FCFDD2029F0812F8F710E941217D5CDBC
:1043600060E070E0CB0167CF81E00E94D516F1E0FC
:10437000FA1508F0CACD82E00E94D516C6CDAA2053
:1043800039F0893309F455CE802F0E94401ABDCDF3
:10439000812F8F717DCF85E0DE01119601900D9206
:1043A0008A95E1F7F701228189819A812111ABCAAF
:1043B0000E94FC0D082FAFCA0631FCE51F0709F467
:1043C0008DCC8091D30282720A3C2CE5120709F44D
:1043D000B6CC08F058C0063C9CE5190709F4AACCF5
:1043E000E0F5043CFCE51F0709F498CC08F09DCCEF
:1043F000033C3CE5130709F486CCF801E950FD4580
:1044000080916106382F3370E032F10508F0A3CCBB
:1044100063E0F695E7956A95E1F7E45AF94F208154
:10442000B8016770772781E090E001C0880F6A9536
:10443000EAF7442309F48CCC822B8083326080918C
:1044400061068C7F832B809361060E94150F8091FB
:1044500061068D7F8093610680CC40ED58E06CED65
:1044600078E0083C9CE5190709F45CCC41EF58E082
:1044700068EE78E0093C1C4508F454CC4CED58E05B
:1044800060ED78E04FCC0E3CFCE51F0709F45CCCF6
:10449000B0F440EA58E06CEA78E00C3C3CE51307E5
:1044A00009F440CC44EC58E068EB78E00D3C1C4546
:1044B00008F438CC4CEA58E060EA78E033CC073DA9
:1044C000ECE51E0708F4C4CA0E35FDE51F0709F424
:1044D000BFCA93CF1F93CF93DF9380919D02807FBC
:1044E000A9F480919A02882389F08091CF02D0911B
:1044F0009E026091980270919902A0919B02B091E6
:104500009C02C62FC72316E0D81304C0DF91CF91B9
:104510001F91089590E0109711F0CF3F19F4019684
:104520008770F2CF189F9001199F300D1124F90167
:10453000E156FD4F41814713F2CF40814613EFCF43
:1045400042814111ECCF438154814A1B5B0B483CB3
:10455000510528F780919D028F70806180939D02A4
:10456000F901EC55FD4F80818F708061808388E96F
:1045700092E00E94471CDF91CF911F910C94800D17
:10458000AF92BF92CF92DF92EF92FF920F931F9361
:10459000CF93DF93CDB7DEB761970FB6F894DEBF48
:1045A0000FBECDBF8C0185E0F801DE011D960190A4
:1045B0000D928A95E1F7F801E28088E9A82E82E061
:1045C000B82E60919B0270919C026115710509F4EF
:1045D00032C19091980240919902892F84238F3F94
:1045E00009F429C120813181C380D480F0909A02DE
:1045F000F601E61BF70BFF2009F4E8C080919D024D
:10460000582F507FE83CF10508F0ABC0511177C03E
:10461000FE2C431321C092131FC0E1101DC08F70E8
:10462000806180939D02C5010E94471C80919D027C
:10463000F80185838F2D61960FB6F894DEBF0FBE0B
:10464000CDBFDF91CF911F910F91FF90EF90DF9041
:10465000CF90BF90AF900895CD2829F0822F83236B
:104660008F3F09F003C180E0F82FF170DF2E80FF4B
:104670003CC08091CF0240919E0256E0841315C049
:104680002D873E878D859E850E94E10D292F2295DD
:104690002F702230F0F0243018F59F70F1F0F801FF
:1046A0009581907FD1F4D12C1EC090E0589FF001ED
:1046B000599FF00D1124E156FD4F6181361306C05C
:1046C0006081261303C06281E6120FC001968770D5
:1046D000D5CF9F7011F0882331F3805E883018F3B6
:1046E000C8010E94471CFD2CA5CFEE2009F4A2CFE3
:1046F00080919D02816080939D02F12C9BCF43139A
:1047000006C0921304C0F801EE2009F479C0C80174
:104710000E94530E882309F1EE20F9F080919D024A
:10472000803270F0209198023091990238872F835F
:104730001986DB86CA868C87CE0107960E94471CA5
:1047400086E0F801A8E9B2E001900D928A95E1F7C0
:104750000E946A22FF24F3946DCFC8010E94471C77
:10476000F9CF51110AC088E992E00E94471C86E007
:10477000F50111928A95E9F7C0CF43130FC0921348
:104780000DC0E1100BC0F8018583C8010E94471CD1
:1047900086E0F50111928A95E9F74CCFC8010E9495
:1047A000530E8823D1F2EE20C1F280919D02803217
:1047B00038F220919802309199023A8329831B8222
:1047C000DD82CC828E83CE010196B8CFE83CF10524
:1047D000F8F6FE2CEE2009F243131FC092131DC001
:1047E00080919D0280FD10C0982F907F69F0F801A4
:1047F0008583903F31F0982F907F905F8F70892B49
:104800008583C8010E94471C86E0F801A8E9B2E050
:1048100001900D928A95E1F70DCFC8010E94530EC9
:1048200081118ECF80919D02816080939D02C8018D
:104830000E94471CFFCEEE2009F48FCFC8010E94D2
:10484000530EF82E882309F488CF86E0F801A8E9F2
:10485000B2E001900D928A95E1F7809198029091D3
:1048600099020E94E10D0E946A22E4CE81E08E2529
:10487000FBCE1F93CF93DF93CDB7DEB767970FB60D
:10488000F894DEBF0FBECDBF4B8B5C8B6D8B7E8BE8
:104890008F8B61111092D2021A8A198A85E0FE016B
:1048A0007396DE011D9601900D928A95E1F786E0E0
:1048B000FE013D96DE01179601900D928A95E1F773
:1048C000CE0107960E94C022882389F016E08091CD
:1048D000CF0290919E02891349C067960FB6F89453
:1048E000DEBF0FBECDBFDF91CF911F91089586E04F
:1048F000FE013796DE01119601900D928A95E1F73F
:104900008A859B85892B11F38F81988589238F3F19
:10491000E9F220919E0230E0C90101968770992743
:104920004091CF024817190671F40E943117109276
:104930009E021092CF0286E0E8E9F2E0DF011D92CC
:104940008A95E9F7C3CF96E0929FD001939FB00D6F
:104950001124A156BD4FFE01319601900D929A95FA
:10496000E1F780939E020E94800DB0CF819FC0012D
:10497000112481569D4F0E94C022882309F4ADCF97
:104980008091CF0290E00196877099278093CF02A3
:104990009ECF9F92AF92BF92CF92DF92EF92FF9203
:1049A0000F931F93CF93DF93CDB7DEB72C970FB63E
:1049B000F894DEBF0FBECDBF8E010F5F1F4F88E0A2
:1049C000F80111928A95E9F78AE7C82E81E0D82E7E
:1049D000F12CE12CAA24A394B12CF60181916F0152
:1049E0008F3F09F44AC0F894E82FE295EF70F0E0A9
:1049F00021A18F70A50102C0440F551F8A95E2F7CF
:104A0000CA01922F982B91A392A18095892382A30A
:104A10000E94840B00C0E2E8F1E030E020E0912C3D
:104A200041914F3F09F470C0A42FA295AF70B0E040
:104A300090968C9190E04F7002C0959587954A951D
:104A4000E2F780FD61C08A2D022E01C0880F0A9412
:104A5000EAF7982A2F5F3F4F2630310509F7F60114
:104A6000319780818F3F11F00E94860B50EA5A9552
:104A7000F1F7F801EE0DFF1D90828FEFE81AF80AAA
:104A8000E4E0EE16F10409F0A8CF48E050E0B801E8
:104A90008CE093E00E94AE337C01892B41F088E0EA
:104AA000F801ACE0B3E001900D928A95E1F7109126
:104AB0001503E114F10451F181E08093DB020E94BF
:104AC0006C169093DA028093D9028091D90290916A
:104AD000DA020E945D16059790F0E12FF0E0E95EA2
:104AE000FC4F80910C03808380910D038183809122
:104AF0000E03828380910F0383831092DB02EF28E1
:104B000049F081E090E064C080E0A3CF8091DB02B7
:104B10008111DBCF0E94F70FF82EE0911503882357
:104B200009F48DC019861A861B861C860E2F10E08C
:104B3000095E1C4F809109038A3008F05BC04AE986
:104B400054E1BE01675F7F4FC8010E94B30F882305
:104B500009F464C04AED5BE1BE01675F7F4FC801A5
:104B60000E94B30F882309F459C042E953E1BE0102
:104B7000675F7F4FC8010E94B30F882309F44EC0BE
:104B800047E253E1BE01675F7F4FC8010E94B30F48
:104B9000882309F443C010920903A0911403B0E0E4
:104BA000A95EBC4FBE01675F7F4F9E01235F3F4FF1
:104BB00080E04D91FB019191BF01491731F0AD01AA
:104BC00041505109FA0190838F2D6217730789F7BD
:104BD0002C960FB6F894DEBF0FBECDBFDF91CF91FC
:104BE0001F910F91FF90EF90DF90CF90BF90AF900B
:104BF0009F9008958091DC029091DD020E945D16E5
:104C0000843F914008F09BCFE0911403F0E0E95E0F
:104C1000FC4F108211821282138273CF809109039C
:104C20008F3F31F08F5F809309038A3008F4B5CF4E
:104C30000E946C169093DD028093DC02E5CFF0E0D9
:104C4000E95EFC4FF89484E0A4EFB2E001900D928D
:104C50008A95E1F764E070E084EF92E00E945008EA
:104C60008093F3020E94840BF894E0912603F0E015
:104C7000ED5DFC4F808189878093F90261E070E0EF
:104C8000CE0109960E9450088093F8020E94840B7E
:104C9000F894C090FA02D090FB02E090FC02F090F1
:104CA000FD028091DE029091DF02A091E002B091BE
:104CB000E102C816D906EA06FB06D1F0C092DE0270
:104CC000D092DF02E092E002F092E1020E94F70F40
:104CD00081110EC00E941C08C61AD70AE80AF90AF8
:104CE000C0922E06D0922F06E0923006F092310646
:104CF0000E94840BF89486E0EEEFF2E0A6E5B6E0C1
:104D000001900D928A95E1F70E94840B80E060CFBC
:104D10001F921FB61F9211248F939F93AF93BF933F
:104D200080913206811113C0809133069091340630
:104D3000A0913506B09136064196A11DB11D809314
:104D4000330690933406A0933506B0933606BF9190
:104D5000AF919F918F911F901FBE1F901895CDB757
:104D6000DEB7A3970FB6F894DEBF0FBECDBF84B7F2
:104D7000877F84BF0FB6F894A89580916000886102
:104D800080936000109260000FBE80E890E00FB644
:104D9000F89480936100909361000FBE85B780689E
:104DA00085BF85B7806885BF82E89BE090936B02E2
:104DB00080936A020E948D060E9458078091E2004B
:104DC00084608093E2007894809144068823A1F067
:104DD0001091E9001F709091EC00892F817090FD77
:104DE00080E8182B1092E9008091E80083FD0E9472
:104DF0003C171F701093E90082E084BD93E095BDDD
:104E00009AEF97BD80936E0010922E0610922F0697
:104E100010923006109231060E9445108093400196
:104E20000E94F70F81110E941731809140018091FB
:104E3000400194E0811190E09093150384E0891B78
:104E40008093140381E30E94860B83E30E94860B08
:104E500082E30E94860B86E30E94860B02E811E043
:104E600088E8E82E81E0F82ED8018D918D018F3FE2
:104E700011F00E94860BE016F106B1F7ECE0F3E0CA
:104E800084E193E0A7E1B3E011921D928E179F0792
:104E9000D9F790E080E00E947B36893E9E4F11F06A
:104EA0000E94DD1482E090E00E94733680936A03D2
:104EB0000E94191390930B0380930A0383E090E000
:104EC0000E947336682F70E090E080E00E94271700
:104ED00090E080E00E947B36893E9E4F21F00E9448
:104EE000DD140E94011346E050E06CE170E086E5BD
:104EF00096E00E946336809156068C7F11F40E94E2
:104F000001130E94F70F811102C00E941A310E9402
:104F1000F70F882309F471C183E08093600380FD5B
:104F20006EC180E880931B040E94AF2F6DE070E09B
:104F300082EE92E00E949111892BE9F58091600345
:104F400063E070E081FD5DC18FED92E00E94911100
:104F5000892B89F56DE070E08FEC92E00E94911151
:104F6000892B49F50E941C08605A75418F4F9F4F4D
:104F7000609326067093270680932806909329064F
:104F8000EEE1F4E080E092E0DF019C011D9221500F
:104F90003040E1F7F0932506E09324068FEF9FEF72
:104FA00090931D0480931C0481E080932B068093D2
:104FB0002A061092610386988E9A87988F9A8FB1ED
:104FC00086FB882780F92FB130E0220F232F221F84
:104FD000330B92E0232B09F490E0892B8093270375
:104FE0009091400181E0982790932603891B80933C
:104FF000160381E491E090932D0680932C0618E12E
:10500000E12EF12C00E4C02E8091440600E112E173
:10501000853009F42EC10E94C924B82E81110E9446
:105020001C08EBE6F3E0A7E1B3E010E000E0802E1F
:10503000AD9081918A1509F42BC18A25912CDD242C
:10504000D394982F9D2109F41EC10E94F70F882345
:1050500099F09E8A8F8AAD2081E009F480E0888FE4
:105060000E946C168160782F9A8F898F4E895F8994
:10507000688D8A8D0E943924F801E559FC4F8081A2
:10508000D826D0820E941A1060931F0370932003C9
:10509000809321039093220330915606A32FA3708F
:1050A000DA2E19F0D32ED694D694209158012130BF
:1050B00009F413C1222309F402C1223009F4F3C216
:1050C000233009F4F9C2E0912703EE0FEE0FE093CD
:1050D00027038FB186FB882780F988A319A28FB197
:1050E00090E0880F892F881F990B009711F082E0BC
:1050F00090E0A8A1B9A18A2BE82BE0932703109197
:105100002603EF70F0E0E857FE4F80819091250371
:10511000890F80932503D12C84306CF0E12FF0E0CF
:10512000ED5DFC4F80818F5F808360E0812F0E9466
:105130007F1BDD24D394809125038D3F6CF4E12FF8
:10514000F0E0ED5DFC4F80818150808361E0812F34
:105150000E947F1BDD24D39480912503082E000C30
:10516000990B64E070E00E94F83280932503D1101F
:105170000E944B0D80912B06882309F4E2C3809195
:105180006203909163030E945D16C29708F452C3B4
:105190000E946C1690936303809362038EE194E007
:1051A00090932506809324060E94F70F882309F424
:1051B000E7C460E081E693E00E94951260911704D5
:1051C000709118048091190490911A040E94A40E01
:1051D000813009F49CC4882309F4A3C2823009F405
:1051E000A9C4833009F4B9C460E086EF92E00E945C
:1051F000951281E00E94A712A8C280E08ECE80E2C4
:1052000091CE8CED92E0A2CE80914406843009F1DB
:10521000109232060FB6F894A895E09260000FBE87
:10522000C092600083B7817F846083BF83B7816051
:1052300083BF7894889583B78E7F83BF0FB6F89429
:10524000A895809160008861809360001092600052
:105250000FBE80914306882361F00E94C924E7E1D4
:10526000F3E08191811123C68FE193E08E179F07B0
:10527000C1F780914406853009F4C6CF0E943117EA
:105280000E943510C8CE9394DD0C96E09912D9CEC9
:105290000F5F1F4F0830110509F0C9CE8FEF8B8FBC
:1052A0008C8F1D8E0E946C168160782F9F8F8E8F41
:1052B0004B8D5C8D6D8D8F8D0E943924E3CE1092C5
:1052C000550160934E0670934F068093500690935D
:1052D000510681E080935801F6CE90914C0181E017
:1052E000D9120BC0832F837020914B0130E091E0E5
:1052F0008217130609F490E0892F8170809357017B
:1053000080915B0690915601981739F08093560171
:1053100040E060E080E00E947711BAE0BD1550F0F7
:10532000ED2DF0E0E25CF84C0C940C3380915701C9
:10533000811102C000E027C040E060E080E00E94F0
:105340007711F8CF009155018AE0089F002D1124B4
:10535000BAE0AB2EA00E9A2CEEE2EA1510F4AEE203
:105360009A2E6091570670915806809159060E94B6
:105370009709862E772E682E10E00915B0F001E00F
:10538000FDE2FA15B8F2809155018F5F80935501C7
:10539000011199CE82E080935801809157018111CB
:1053A00092CED11090CE83E095CFF801E55CFD4F11
:1053B000808190915601892331F0262D482D672D4B
:1053C000C8010E945D100F5F1F4FD7CF009155019C
:1053D0008AE0089F002D1124FAE0AF2EA00E9A2C2F
:1053E0002EE22A1510F4EEE29E2E409058066090B0
:1053F000590610915706612F742D862D0E9497092A
:10540000862E772E582E60915A06610F742D862DA8
:105410000E949709462E672E382E10E0091530F0AD
:1054200001E03DE23A1508F0AECF84CFF801E55C2B
:10543000FD4F908180915601892359F0232D442DF1
:10544000662D90FD03C0252D482D672DC8010E94B3
:105450005D100F5F1F4FE2CF009155018AE0089F5A
:10546000002D11247AE0A72EA00E8A2C4EE24A15B8
:1054700010F46EE2862E70905806609059062091C6
:105480005A063C2D329F312D1124932E10E0081521
:1054900030F001E04DE24A1508F075CF4BCFF8012E
:1054A000E55CFD4F8081909156018923B9F0F801A8
:1054B000EE0FFF1FE155FE4F81A982958F7060911D
:1054C0005706899D600D1124772D862D0E9497091E
:1054D000462F282F672FC8010E945D100F5F1F4FB6
:1054E000D6CF009155018AE0089F002D11244AE093
:1054F000A42EA00E8A2C8EE28A1510F43EE2832E92
:10550000709058066090590620915A063C2D329FA3
:10551000312D1124932E10E0081508F0BACFF801B0
:10552000E55CFD4F8081909156018923D9F0F80107
:10553000EE0FFF1FE155FE4F60A9969EB0011124AA
:1055400025E0759567952A95E1F780915706680FD4
:10555000772D862D0E949709462F282F672FC80187
:105560000E945D100F5F1F4FD7CF84E699E00E9425
:105570002911082F08CF809055010AE0809E002D48
:1055800011241AE0100FA12E1F3210F08EE2A82E67
:1055900060915A06669580914E0690914F060E9442
:1055A0008D09782E802E912CC401880F991FDC0163
:1055B000A155BE4F2D018A1428F001E01E3208F4D7
:1055C000E2CEB8CEF401E55CFD4F808190915601AA
:1055D0008923C1F0F20121A92052330B40A9405781
:1055E000550B609157067091580680915906072D0A
:1055F0000E943F090E949709462F282F672FC40158
:105600000E945D10F2E04F0E511C2FEF821A920A99
:10561000D2CF8DE199E00E948B10ABCF8BE199E066
:10562000A6CF8DE099E0F7CF0091570101111EC080
:1056300060915A0620E1620F08F46FEF80914E06E8
:1056400090914F060E948D0965E070E00E94D8326B
:10565000892B09F06FCE0E9495336EE270E00E94B4
:10566000F832609156010E94DA128DCE00915501F8
:105670008AE0089F002D11241AE0A12EA00E8A2D89
:105680003EE23A1508F48EE210E0882E912C0815BF
:1056900019050CF0FECE60915601C8010E94DA1285
:1056A0000F5F1F4FF4CFD0924C01832F83708093F4
:1056B0004B010E948C0F77CE80915506882341F0D4
:1056C00046E050E06CE170E086E596E00E948136AD
:1056D0001092550640904E0650904F06609050062E
:1056E000709051060E94F70F8823C1F02FB7F894ED
:1056F000609133067091340680913506909136069C
:105700002FBF6419750986099709603171058105F4
:10571000910508F4D8CC10925801D5CC0E941A10EB
:10572000F0CF61E08BE593E00E94951260E085E5A3
:1057300093E00E94951260E08FE493E00E9495123E
:1057400060E089E493E00E94951260E085EF92E0CA
:105750000E94951281E00E94A71260E080EF92E023
:105760000E94951281E00E94A71260E08FEE92E005
:105770000E94951281E00E94A7128091560686959C
:1057800086951F928F938CE591E09F938F931F9244
:1057900016E01F938AE393E09F938F930E94C43394
:1057A0008AE393E00E947C12809157061F928F93A8
:1057B00083E691E09F938F931F921F9384E393E07E
:1057C0009F938F930E94C43384E393E00E947C12E2
:1057D000809158061F928F938AE691E09F938F9352
:1057E0001F921F938EE293E09F938F930E94C43386
:1057F0008EE293E00E947C12809159061F928F9353
:1058000081E791E09F938F931F921F9388E293E02B
:105810009F938F930E94C4330FB6F894DEBF0FBEE0
:10582000CDBF88E293E00E947C1280912B068823F2
:1058300009F462C020911C0430911D04211531052A
:1058400009F45AC080916103811156C0082F10E0FD
:1058500044244394512C082E02C0440C551C0A9435
:10586000E2F7A90144215521452B09F4EFC190919C
:10587000600390FDEDC18295880F807680934F0183
:105880009801369527953695279520935201815E8C
:10589000809350011092530124E630E047E050E03D
:1058A0006DE471E088E70E945E30892B29F5A8013C
:1058B00075E0440F551F7A95E1F78091600380FDF4
:1058C000D5C1425E5B4F04E610E020E230E060E4C8
:1058D00088E70E948530892B79F40E94C111C201AA
:1058E0008095909540901C0450901D0448225922A8
:1058F00050921D0440921C0480912A06882309F1CD
:105900000E941C0800912606109127062091280667
:1059100030912906601B710B820B930B6F3F7F4FF9
:105920008F4F9F4770F480912B06882351F062E0DF
:1059300070E088E695E00E949111892B11F4109295
:105940002A06B11001C0D1100E94C11186E0EAE719
:10595000F3E0DE01119601900D928A95E1F7D09067
:105960007C03B0907D0310917E0300917F03109221
:105970007C0310927D0310927E0310927F038D2D85
:105980008B2909F448C080917803909179030E9493
:105990005D169C0190917403992309F4DBC22333B3
:1059A0003105C8F19F3F19F09F5F90937403DD208C
:1059B00059F00E94080B9FEF1D140CF491E0899F91
:1059C000802D112480937C03BB2059F00E94080B8A
:1059D0009FEF1B140CF491E0899F802D112480937C
:1059E0007D0330917C033323B1F020917D0322238A
:1059F00091F045EB3403C0011124992309F49AC1B5
:105A000090937C0345EB240390011124332309F484
:105A100095C130937D03812F802B09F448C080917C
:105A20007603909177030E945D169C019091730319
:105A3000992309F48AC225363105C8F19F3F19F030
:105A40009F5F90937303112359F00E94E60A9FEF22
:105A500011160CF491E0899F802D112480937E0310
:105A6000002359F00E94E60A9FEF10160CF491E013
:105A7000899F802D112480937F0330917E033323EF
:105A8000B1F020917F03222391F045EB3403C00154
:105A90001124992309F456C190937E0345EB240306
:105AA00090011124332309F451C130937F03809175
:105AB0007C0390917D03892B90917E03892B90919B
:105AC0007F03892B11F00E94781686E0FE01319643
:105AD000AAE7B3E001900D928A95E1F70E942B0AA4
